:10000000E3C00000FCC00000FAC00000F8C000001F
:10001000F6C00000F4C00000F2C00000F0C0000014
:10002000EEC00000ECC0000027C60000E8C00000E1
:10003000E6C00000E4C00000E2C00000E0C0000034
:10004000DEC00000DCC00000DAC00000D8C0000044
:10005000D6C00000D4C00000D2C00000D0C0000054
:10006000CEC00000FAC00000CAC00000C8C0000036
:10007000C6C00000C4C00000C2C00000C0C0000074
:10008000BEC00000BCC00000BAC00000B8C0000084
:10009000B6C00000B4C00000B2C00000B0C0000094
:1000A000AEC00000ACC00000AAC0000029074B078A
:1000B00037084B0737089007B207370804081608B7
:1000C0002E034C006F006700690074006500630038
:1000D00068002000440072006900760069006E002C
:1000E0006700200046006F0072006300650000009A
:1000F00012034C006F006700690074006500630024
:1001000068000000040309040902290001010080BD
:100110002809040000020300000009210001210158
:100120002284000705810308000A0705020308006E
:100130000A12010001000000086D0494C2000003CF
:1001400001000105010904A101A1029501750A142C
:1001500026FF033446FF0309308102950C75012503
:1001600001450105091901290C810295020600FFCC
:1001700009018102050126FF0046FF00950175086F
:1001800081022507463B01750465140939814275D2
:1001900001950465000600FF090125014501810262
:1001A00005019501750826FF0046FF00093181020F
:1001B00009358102C0A10226FF0046FF00950775A0
:1001C0000809039102C0C00011241FBECFEFDAE07E
:1001D000DEBFCDBF11E0A0E0B1E0EAE7F1E102C08F
:1001E00005900D92AC30B107D9F721E0ACE0B1E059
:1001F00001C01D92A03BB207E1F709D2BCC700CFF6
:100200009B01AC01DC01CB01B695A795979587952D
:10021000BC01CD0160587B47814E9F4F6BD7215069
:1002200031093093CD002093CC0086E08093CA0042
:1002300082E08093C80088E18093C900539A5A9A5B
:100240000895F89498E088E10FB6F894A895809303
:1002500060000FBE90936000FFCF1F920F920FB609
:100260000F9211242F933F934F935F936F937F933C
:100270008F939F93AF93BF93EF93FF938091CE00A3
:100280008093540110928500109284008091C800E0
:1002900087FF0BC08091CE00809353018091540161
:1002A0008F3F59F42BE931E00AC08091840090918E
:1002B00085008137924050F307C12BE531E0309340
:1002C0005A01209359018091580190915301891747
:1002D000B8F491E0980F909358019091C80097FF5F
:1002E00007C09091CE00F901E80FF11D9083EBCF8C
:1002F00040918400509185004137524070F3E4C032
:100300001092580180915401853509F4DDC0A8F49C
:10031000823209F452C018F48131D9F1D6C0833346
:1003200009F460C0843409F0D0C081E080935201A8
:100330008091530180935101C8C0873709F4A8C048
:10034000D0F4863609F0C1C080915B0190915C01C8
:1003500098278927982790930F0180930E01809109
:100360005D0190915E0198278927982790930D0150
:1003700080930C01AAC0883809F44EC08F3F09F061
:10038000A4C081E08093570180915301809356016E
:100390009CC08091C80085FFFCCF81E18093CE0096
:1003A0008091C80085FFFCCF81E08093CE008091D2
:1003B000C80085FFFCCF8AE068C08091C80085FF37
:1003C000FCCF82E28093CE008091C80085FFFCCFF5
:1003D00081E08093CE00809150019091C80095FFFC
:1003E000FCCF53C08091C80085FFFCCF83E380938E
:1003F000CE008091C80085FFFCCF81E08093CE00C5
:10040000809150019091C80095FFFCCF8093CE0061
:1004100081E08093550159C080915301882309F1EF
:1004200080915B0180930A015B9A1092C90010923F
:10043000C8001092CA001092CD001092CC005398C0
:100440005A98A0910A01B0E020EA36E841E050E075
:1004500079D6D6DE5B988091C90080688093C90008
:1004600034C08091C80085FFFCCF88E88093CE001F
:100470008091C80085FFFCCF81E08093CE00809101
:100480000A019091C80095FFFCCF8093CE001DC05B
:100490008091C80085FFFCCF87E78093CE008091D4
:1004A000C80085FFFCCF82E08093CE008091C80019
:1004B00085FFFCCF88E08093CE008091C80085FF47
:1004C000FCCF1092CE0001C0BCDEFF91EF91BF9136
:1004D000AF919F918F917F916F915F914F913F91DC
:1004E0002F910F900FBE0F901F90189514BE0FB64E
:1004F000F894A895809160008861809360001092C4
:1005000060000FBE90E080E80FB6F8948093610021
:10051000909361000FBE8091810084608093810080
:10052000A0910A01B0E020EA36E841E050E00AD6A6
:1005300067DE8091C90080688093C90078948091BB
:1005400055018823E1F37BC30895089542E061ECEF
:1005500081E0AED242E060EC82E0AAC281E080930A
:10056000E90080915701882399F08091E80080FF8D
:100570000FC06091560170E040E050E08BE991E0DF
:1005800004D1109257018091E8008E778093E800A3
:100590000895CF93DF9300D0CDB7DEB782E080938C
:1005A000E9008091E80082FF26C01A821982109229
:1005B00001018091E80085FF0FC0AE014F5F5F4FE2
:1005C00068E070E082E091E02AD1882311F089810F
:1005D00001C088E0809301018091E8008B778093CF
:1005E000E80060910101662331F070E06E5F7F4F9B
:1005F00080E091E06FD50F900F90DF91CF9108953B
:100600008091A701843011F4A9DFC3CF08956EDF74
:10061000F7DF46D5FDCF8091A901893009F43EC0AE
:100620008A3021F0813009F06EC017C08091A80196
:10063000813209F068C08091E800877F8093E800EC
:100640006091AE017091AF0180E191E090D1809115
:10065000E8008E778093E80008958091A801813AA0
:1006600009F051C08091AA019091AB01933009F03B
:100670004AC09091C80095FFFCCF99E99093CE00B5
:100680009091C80095FFFCCF91E09093CE0090919F
:10069000C80095FFFCCF8093CE0008958091A801FB
:1006A000813289F58091E800877F8093E80060912E
:1006B000AE017091AF0180E191E059D18091E800E5
:1006C0008E778093E8008091AB018330E1F48091D4
:1006D000C80085FFFCCF89E98093CE008091AE01F0
:1006E000885F9091C80095FFFCCF8093CE0068E0B2
:1006F00070E088EA91E0EED46091AE017091AF01B4
:1007000080E191E0E7C40895292F33272330310594
:10071000E1F058F42130310599F02230310569F5C6
:1007200089E290E028E031E02CC02132310501F16E
:100730002232310511F584E890E023E431E021C054
:1007400082E190E021E331E01CC0992781309105DE
:1007500049F028F0039789F4E0EFF0E005C0E4E009
:10076000F1E002C0E0ECF0E0849190E09F0109C06C
:1007700089E090E02AE131E004C080E090E020E0F0
:1007800030E0FA01318320830895CF92DF92EF9217
:10079000FF920F931F93CF93DF93EC018B017A01AC
:1007A000DBD1811133C0E114F10439F0F70180810C
:1007B0009181081B190BC80FD91FC12CD12C011511
:1007C000110519F18091E80085FD16C08091E800BF
:1007D0008E778093E80064D4E114F10449F0F701C6
:1007E00080819181C80ED91ED182C08285E00EC061
:1007F000B3D1882321F30AC089918093F10001507D
:100800001109FFEFCF1ADF0ADACF80E0DF91CF9135
:100810001F910F91FF90EF90DF90CF900895CF92AE
:10082000DF92EF92FF920F931F93CF93DF93EC0130
:100830008B017A0191D1811133C0E114F10439F0B7
:10084000F70180819181081B190BC80FD91FC12C9A
:10085000D12C0115110519F18091E80085FD16C014
:100860008091E8008B778093E8001AD4E114F104BA
:1008700049F0F70180819181C80ED91ED182C082D2
:1008800085E00EC069D1882321F30AC08091F10070
:10089000899301501109FFEFCF1ADF0ADACF80E008
:1008A000DF91CF911F910F91FF90EF90DF90CF904C
:1008B00008952091AE013091AF012617370748F017
:1008C0006115710539F42091E8002E772093E80036
:1008D00001C0B901FC0120E06115710579F1809139
:1008E000A7018823F1F18530F1F18091E80083FDC3
:1008F0003CC08091E80082FD2EC08091E80080FF1E
:10090000EBCF2091F3008091F20090E0922B6115E3
:10091000710551F08830910538F421912093F10050
:10092000615071090196F3CF21E0089709F020E0AA
:100930008091E8008E778093E800CECF2111CFCF51
:100940000AC08091A701882361F0853061F0809111
:10095000E80083FD0AC08091E80082FFF2CF80E0CA
:10096000089582E0089583E0089581E00895611577
:10097000710529F42091E8002B772093E800FC0111
:100980006115710541F18091A701882361F18530DE
:1009900061F18091E80083FD24C08091E80082FF2E
:1009A000EFCF2091F3008091F20090E0922B892B01
:1009B00031F08091F10081936150710991F780913C
:1009C000E8008B778093E800DBCF8091A701882334
:1009D00051F0853051F08091E80080FFF6CF80E043
:1009E000089581E0089582E0089583E008952091BC
:1009F000AE013091AF012617370748F06115710538
:100A000039F42091E8002E772093E80001C0B90165
:100A1000FC0120E06115710591F18091A701882307
:100A200009F440C0853009F43FC08091E80083FD9F
:100A30003DC08091E80082FD2FC08091E80080FFDA
:100A4000E9CF2091F3008091F20090E0922B6115A4
:100A5000710559F08830910540F424912093F100FC
:100A60003196615071090196F2CF21E0089709F0A3
:100A700020E08091E8008E778093E800CBCF2111B1
:100A8000CCCF0AC08091A701882361F0853061F046
:100A90008091E80083FD0AC08091E80082FFF2CFD8
:100AA00080E0089582E0089583E0089581E008954C
:100AB000982F973068F59093E900981739F0709166
:100AC000EC002091ED005091F00003C0242F762F10
:100AD00050E021FD02C09F5FECCF3091EB003E7FE4
:100AE0003093EB003091ED003D7F3093ED0030917D
:100AF000EB0031603093EB007093EC002093ED003D
:100B00005093F0002091EE0027FDE5CF80E008959E
:100B10008F708093E90081E008958091A80187FF9C
:100B200011C08091E80082FD05C08091A70181116C
:100B3000F8CF11C08091E8008B770BC08091A7019E
:100B4000882349F08091E80080FFF8CF8091E80089
:100B50008E778093E80008952091E4003091E500BD
:100B600095E64091EC00842F817040FF23C0809176
:100B7000E80080FD1DC08091A701882399F0853091
:100B800099F08091EB0085FD11C04091E4005091F7
:100B9000E5002417350729F3915011F09A01E1CFB0
:100BA00084E0089582E0089583E0089581E0089547
:100BB00080E008954091E80042FFDDCF08950F9353
:100BC0001F93CF93DF934BD052D0C8EDD0E08881F4
:100BD0008F77888388818068888388818F7D8883E8
:100BE00019BC1092A7011092A3011092A5011092B6
:100BF000A40100EE10E0F80180818B7F8083888162
:100C00008160888342E060E080E052DFE1EEF0E066
:100C100080818E7F8083E2EEF0E08081816080833E
:100C2000808188608083F80180818E7F80838881C5
:100C300080618883DF91CF911F910F910895E8ED36
:100C4000F0E080818F7E8083E7EDF0E0808181603D
:100C5000808384E082BF81E08093A601B0CFE8ED7D
:100C6000F0E080818E7F80831092E20008951092E0
:100C7000DA001092E10008951F920F920FB60F92C2
:100C800011242F933F934F935F936F937F938F9391
:100C90009F93AF93BF93EF93FF938091E10082FF07
:100CA0000AC08091E20082FF06C08091E1008B7F44
:100CB0008093E100F4D18091DA0080FF1DC0809123
:100CC000D80080FF19C08091DA008E7F8093DA000F
:100CD0008091D90080FF0CC080E189BD82E189BD8F
:100CE00009B400FEFDCF81E08093A7012DDC04C094
:100CF00019BC1092A70129DC8091E10080FF18C087
:100D00008091E20080FF14C08091E2008E7F80938A
:100D1000E2008091E20080618093E2008091D8003F
:100D200080628093D80019BC85E08093A701B7D179
:100D30008091E10084FF2FC08091E20084FF2BC0EE
:100D400080E189BD82E189BD09B400FEFDCF8091BB
:100D5000D8008F7D8093D8008091E1008F7E8093B2
:100D6000E1008091E2008F7E8093E2008091E200BA
:100D700081608093E2008091A301882311F084E0D8
:100D800007C08091E30087FD02C081E001C083E0DD
:100D90008093A70184D18091E10083FF22C08091DC
:100DA000E20083FF1EC08091E100877F8093E10015
:100DB00082E08093A7011092A3018091E1008E7FD1
:100DC0008093E1008091E2008E7F8093E200809129
:100DD000E20080618093E20042E060E080E068DE53
:100DE0005ED1FF91EF91BF91AF919F918F917F91D4
:100DF0006F915F914F913F912F910F900FBE0F9088
:100E00001F9018951F93CF93DF93CDB7DEB7AA97A6
:100E10000FB6F894DEBF0FBECDBFE8EAF1E08091D7
:100E2000F100819321E0E03BF207C9F7F4DB809108
:100E3000E80083FF1CC18091A8019091A901492F6E
:100E400050E04A30510508F012C1FA01EA5AFF4F4A
:100E500073C1803881F0823809F009C18091AC01FA
:100E60008F708093E9008091EB0085FB882780F9E3
:100E70001092E90006C08091A4019091A501911102
:100E800082609091E800977F9093E8008093F10052
:100E90001092F100C4C0282F2D7F09F0E8C08823EC
:100EA00019F0823061F0E3C08091AA01813009F02D
:100EB000DEC0933009F080E08093A5012BC08091C3
:100EC000AA01811127C08091AC018F7009F4CFC0B5
:100ED0008093E9002091EB0020FF1CC0933021F4A7
:100EE0008091EB00806214C09091EB009061909330
:100EF000EB0021E030E0A90102C0440F551F8A95A4
:100F0000E2F74093EA001092EA008091EB008860DB
:100F10008093EB001092E9008091E800877F82C007
:100F20008111A5C01091AA011F778091E3008078FC
:100F3000812B8093E3008091E800877F8093E80015
:100F4000ECDD8091E80080FFFCCF8091E3008068B9
:100F50008093E300111102C082E001C083E080931E
:100F6000A70185C08058823008F081C08091AA0115
:100F70009091AB018C3D53E0950771F583E08A8336
:100F80008AE289834FB7F894DE01139620E03EE0B1
:100F900051E2E32FF0E050935700E49120FF03C0AB
:100FA000E295EF703F5FEF708E2F90E0EA3010F027
:100FB000C79601C0C0968D939D932F5F243149F74A
:100FC0004FBF8091E800877F8093E8006AE270E07D
:100FD000CE0101966EDC12C0AE014F5F5F4F609193
:100FE000AC0192DBBC01892B09F441C09091E8006F
:100FF000977F9093E80089819A81F9DC8091E800DD
:101000008B778093E80033C0803889F58091E800C1
:10101000877F8093E8008091A3018093F100809105
:10102000E8008E778093E80078DD21C081111FC031
:101030008091AA019091AB0199270297C4F4809105
:10104000E800877F8093E8008091AA018093A30144
:1010500064DD8091A301811106C08091E30087FDCA
:1010600002C081E001C084E08093A7016FDA809123
:10107000E80083FF0AC08091E800877F8093E80042
:101080008091EB0080628093EB00AA960FB6F894F3
:10109000DEBF0FBECDBFDF91CF911F9108950895A0
:1010A000CF938091A701882399F0C091E900CF7078
:1010B0009091EC00892F817090FD80E8C82B1092F0
:1010C000E9008091E80083FD9DDECF70C093E900C8
:1010D000CF910895680F791F8617970751F0FC018B
:1010E0002191CF013091C80035FFFCCF2093CE0075
:1010F000F3CF0895A1E21A2EAA1BBB1BFD010DC060
:10110000AA1FBB1FEE1FFF1FA217B307E407F507B7
:1011100020F0A21BB30BE40BF50B661F771F881F93
:10112000991F1A9469F760957095809590959B0129
:10113000AC01BD01CF010895EE0FFF1F0590F491A2
:10114000E02D099409D0A59F900DB49F900DA49F08
:10115000800D911D11240895A29FB001B39FC0017D
:10116000A39F700D811D1124911DB29F700D811DD3
:0A1170001124911D0895F894FFCF9B
:0C117A00EE000000000000000000050076
:00000001FF
