:10000000D2C00000EBC00000E9C00000E7C0000063
:10001000E5C00000E3C00000E1C00000DFC0000058
:10002000DDC00000DBC000005DC50000D7C00000DF
:10003000D5C00000D3C00000D1C00000CFC0000078
:10004000CDC00000CBC00000C9C00000C7C0000088
:10005000C5C00000C3C00000C1C00000BFC0000098
:10006000BDC00000CAC00000B9C00000B7C0000099
:10007000B5C00000B3C00000B1C00000AFC00000B8
:10008000ADC00000ABC00000A9C00000A7C00000C8
:10009000A5C00000A3C00000A1C000009FC00000D8
:1000A0009DC000009BC0000099C000005F06810653
:1000B000650781066507C306E50665073707490733
:1000C00036034C006F006700690074006500630030
:1000D00068002000440072006900760069006E002C
:1000E0006700200046006F0072006300650020007A
:1000F000500072006F00000012034C006F00670098
:1001000069007400650063006800000004030904CE
:1001100009022900010100802809040000020300EF
:100120000000092100012101225A0007058103086E
:10013000000A0705020308000A120100010000007E
:10014000086D0498C206110301000105010904A10C
:1001500001A1029501750E1426FF3F3446FF3F09A9
:10016000308102950E750125014501050919012906
:100170000E81020501950175042507463B016514B2
:1001800009398142650026FF0046FF00750881019C
:1001900009318102093581028101C0A1020902955C
:1001A000079102C0C00011241FBECFEFDAE0DEBF0E
:1001B000CDBF11E0A0E0B1E0E4E6FFE002C00590B1
:1001C0000D92AA30B107D9F711E0AAE0B1E001C061
:1001D0001D92A83AB107E1F7C6D1C2C611CF5E9A07
:1001E000F89428E088E190E00FB6F894A895809301
:1001F00060000FBE20936000FFCF1F920F920FB6DA
:100200000F9211242F933F934F935F936F937F939C
:100210008F939F93AF93BF93EF93FF935C9A8091DB
:10022000CE0080938D018091C80087FFFCCF809124
:10023000CE0080938C0180918D018F3F19F483E96A
:1002400091E002C08AE491E0909392018093910141
:1002500080919101909192012091900130918C01B7
:10026000231778F431E0320F30939001FC01E20F54
:10027000F11D2091C80027FFFCCF2091CE002083E4
:10028000EBCF109290015C9880918D01833309F43B
:1002900042C028F48131A1F0823231F15AC0853553
:1002A00009F453C08F3F09F451C0843409F051C0A0
:1002B00081E080938B0180918C0180938A0149C0F9
:1002C0008091C80085FFFCCF81E18093CE008091B2
:1002D000C80085FFFCCF81E08093CE008091C800EC
:1002E00085FFFCCF8BE014C08091C80085FFFCCF58
:1002F00082E28093CE008091C80085FFFCCF81E030
:100300008093CE0080918E019091C80095FFFCCF24
:100310008093CE001EC08091C80085FFFCCF83E390
:100320008093CE008091C80085FFFCCF81E0809350
:10033000CE0080918E019091C80095FFFCCF8093F4
:10034000CE0081E080938E0104C049DF81E080937C
:100350008F01FF91EF91BF91AF919F918F917F910D
:100360006F915F914F913F912F910F900FBE0F9022
:100370001F90189581E090E09093CD008093CC0081
:1003800086E08093CA001092C800E9ECF0E088E1B2
:100390008083539A5A9A808180688083089514BE1E
:1003A00088E10FB6F89480936000109260000FBE51
:1003B00090E080E80FB6F89480936100909361001C
:1003C0000FBED8DF7894549A559A569A579A8091CE
:1003D0008E018823E1F369C30895089542E061EC3A
:1003E00081E09DD242E060EC82E099C28091A1015F
:1003F000813019F0893011F108958091A001813A7E
:1004000009F051C08091A2019091A301933009F0AD
:100410004AC09091C80095FFFCCF99E99093CE0017
:100420009091C80095FFFCCF91E09093CE00909101
:10043000C80095FFFCCF8093CE0008958091A00165
:10044000813289F58091E800877F8093E800609190
:10045000A6017091A7018AE091E0BFD18091E800E8
:100460008E778093E8008091A3018330E1F480913E
:10047000C80085FFFCCF89E98093CE008091A6015A
:10048000885F9091C80095FFFCCF8093CE0068E014
:1004900070E080EA91E04ED56091A6017091A701CD
:1004A0008AE091E047C5089581E08093E90080915A
:1004B000E80080FD5D9A80918F01882399F08091FA
:1004C000E80080FFFCCF40E050E068E070E083E9A6
:1004D00091E092D08091E8008E778093E8005D985B
:1004E00010928F010895CF93DF9300D0CDB7DEB780
:1004F0001A82198282E08093E9008091E80082FFED
:1005000026C05E9A8091E80085FF0FC0AE014F5F64
:100510005F4F68E070E082E091E0B6D0811104C0E6
:1005200088E090E09A8389835E988091E8008B77D9
:100530008093E80069817A816115710541F06093CB
:10054000010177276E5F7F4F80E091E0F3D40F9039
:100550000F90DF91CF91089580919F01843011F425
:10056000A3DFC1CF08951BDFF7DF5F9AC7D45F9881
:10057000FBCF292F332723303105B9F05CF421302C
:10058000310569F12230310579F589E290E020E109
:1005900031E02EC021323105E9F02232310521F55A
:1005A0008AE590E02BE431E023C099278130910562
:1005B00059F08330910529F0892BB1F4ECE0F1E09A
:1005C00005C0E8EFF0E002C0E0ECF0E0849190E0DC
:1005D0009F010EC089E090E022E231E009C082E193
:1005E00090E029E331E004C080E090E020E030E0DA
:1005F000FA01318320830895CF92DF92EF92FF9228
:100600000F931F93CF93DF937C018B01EA01DDD120
:10061000811131C0209731F088819981081B190B15
:10062000E80EF91EC12CD12C0115110519F180918C
:10063000E80085FD14C08091E8008E778093E80083
:100640005DD4209741F0888199818C0D9D1D9983FF
:10065000888385E010C0B9D1882331F30CC0F7013D
:1006600081917F018093F10001501109FFEFCF1AB2
:10067000DF0ADACF80E0DF91CF911F910F91FF90D9
:10068000EF90DF90CF900895CF92DF92EF92FF929C
:100690000F931F93CF93DF937C018B01EA0195D1D8
:1006A000811131C0209731F088819981081B190B85
:1006B000E80EF91EC12CD12C0115110519F18091FC
:1006C000E80085FD14C08091E8008B778093E800F6
:1006D00015D4209741F0888199818C0D9D1D9983B7
:1006E000888385E010C071D1882331F30CC08091DC
:1006F000F100F70181937F0101501109FFEFCF1A3B
:10070000DF0ADACF80E0DF91CF911F910F91FF9048
:10071000EF90DF90CF9008952091A6013091A7012E
:100720002617370748F06115710539F42091E80064
:100730002E772093E80001C0B901FC0120E061158B
:100740007105B9F180919F01882309F440C085307B
:1007500009F43FC08091E80083FD3DC08091E8002E
:1007600082FF06C08091E80082FF26C080E00895E5
:100770008091E80080FFE3CF2091F3008091F200A8
:1007800090E0922B6115710551F08830910538F495
:1007900021912093F100615071090196F3CF21E07E
:1007A000089709F020E08091E8008E778093E800B8
:1007B000C6CF2111C7CFD6CF80919F01882339F0B2
:1007C000853039F08091E80083FFCCCF04C082E00F
:1007D000089583E0089581E008956115710529F475
:1007E0002091E8002B772093E8006115710541F115
:1007F00020919F01222369F1253069F12091E800C1
:1008000023FD23C02091E80022FFF2CFFC01CF019D
:100810004091F3002091F20030E0342B232B01F3C0
:100820008091F1008193CF016150710961157105CB
:1008300071F7D6CF80919F01882359F0853059F008
:100840008091E80080FFF6CF02C081E0089580E04B
:10085000089582E0089583E008952091A6013091E3
:10086000A7012617370748F06115710539F4209163
:10087000E8002E772093E80001C0B901FC0120E0D8
:1008800061157105C1F180919F01882309F441C070
:10089000853009F440C08091E80083FD3EC080911E
:1008A000E80082FF06C08091E80082FF27C080E058
:1008B00008958091E80080FFE3CF2091F3008091BC
:1008C000F20090E0922B6115710559F08830910586
:1008D00040F424912093F100319661507109019602
:1008E000F2CF21E0089709F020E08091E8008E77B0
:1008F0008093E800C5CF2111C6CFD5CF80919F014D
:10090000882339F0853039F08091E80083FFCBCF20
:1009100004C082E0089583E0089581E00895982F4F
:10092000973058F59093E900981739F07091EC00E2
:100930002091ED005091F00003C0242F762F50E05D
:1009400021FF19C03091EB003E7F3093EB003091D6
:10095000ED003D7F3093ED003091EB00316030933E
:10096000EB007093EC002093ED005093F000209189
:10097000EE0027FF07C09F5FD3CF8F708093E90001
:1009800081E0089580E008958091A00187FD05C071
:100990008091E80080FF0EC012C08091E80082FDC7
:1009A00005C080919F018111F8CF08958091E800E2
:1009B0008B7708C080919F018111EACF08958091C3
:1009C000E8008E778093E80008958091E40090918C
:1009D000E50045E62091EC0020FF21C02091E800D1
:1009E00020FD21C020919F01222389F0253089F02C
:1009F0002091EB0025FD0FC02091E4003091E5002F
:100A00002817390739F3415041F0C901E3CF82E09B
:100A1000089583E0089581E0089584E00895209189
:100A2000E80022FFDFCF80E008950F931F93CF935C
:100A3000DF934BD052D0C8EDD0E088818F77888388
:100A400088818068888388818F7D888319BC109213
:100A50009F0110929B0110929D0110929C0100EE4B
:100A600010E0F80180818B7F80838881816088839A
:100A700042E060E080E053DFE1EEF0E080818E7FD5
:100A80008083E2EEF0E080818160808380818860F5
:100A90008083F80180818E7F808388818061888354
:100AA000DF91CF911F910F910895E8EDF0E08081E3
:100AB0008F7E8083E7EDF0E080818160808384E039
:100AC00082BF81E080939E01B0CFE8EDF0E08081AD
:100AD0008E7F80831092E20008951092DA001092C7
:100AE000E10008951F920F920FB60F9211242F93D9
:100AF0003F934F935F936F937F938F939F93AF93A6
:100B0000BF93EF93FF938091E10082FF0AC0809131
:100B1000E20082FF06C08091E1008B7F8093E100BC
:100B2000ECD18091DA0080FF1DC08091D80080FF59
:100B300019C08091DA008E7F8093DA008091D9000D
:100B400080FF0CC080E189BD82E189BD09B400FE4F
:100B5000FDCF81E080939F013FDC04C019BC10925F
:100B60009F013BDC8091E10080FF18C08091E20092
:100B700080FF14C08091E2008E7F8093E20080911C
:100B8000E20080618093E2008091D80080628093CF
:100B9000D80019BC85E080939F01AFD18091E1001E
:100BA00084FF2FC08091E20084FF2BC080E189BDCB
:100BB00082E189BD09B400FEFDCF8091D8008F7D10
:100BC0008093D8008091E1008F7E8093E100809136
:100BD000E2008F7E8093E2008091E200816080934A
:100BE000E20080919B01882311F084E007C080918E
:100BF000E30087FF02C083E001C081E080939F0192
:100C00007CD18091E10083FF22C08091E20083FFCC
:100C10001EC08091E100877F8093E10082E0809395
:100C20009F0110929B018091E1008E7F8093E100F3
:100C30008091E2008E7F8093E2008091E2008061EB
:100C40008093E20042E060E080E069DE56D1FF91EF
:100C5000EF91BF91AF919F918F917F916F915F9134
:100C60004F913F912F910F900FBE0F901F901895AD
:100C70001F93CF93DF93CDB7DEB7AA970FB6F89443
:100C8000DEBF0FBECDBFE0EAF1E08091F1008193BD
:100C900021E0E83AF207C9F7A9DB8091E80083FF79
:100CA00014C12091A0013091A101832F90E08A30DE
:100CB000910508F00AC1FC01EA5AFF4F4BC12038E8
:100CC00081F0223809F001C18091A4018F708093D6
:100CD000E9008091EB0085FB882780F91092E900FC
:100CE00006C080919C0190919D019111826090912C
:100CF000E800977F9093E8008093F1001092F10054
:100D0000C1C0822F8D7F09F0E0C0222319F022306C
:100D100061F0DBC08091A201813009F0D6C0333090
:100D200009F080E080939D0128C08091A20181118B
:100D300024C02091A4012F7009F4C7C02093E900BA
:100D40008091EB0080FF19C08091EB00333011F4EB
:100D5000806211C080618093EB0081E090E0022E00
:100D600001C0880F0A94EAF78093EA001092EA0023
:100D70008091EB0088608093EB001092E9008091F5
:100D8000E800877F82C02111A0C01091A2011F77C7
:100D90008091E3008078812B8093E3008091E800CC
:100DA000877F8093E800F0DD8091E80080FFFCCF32
:100DB0008091E30080688093E300112311F083E0C9
:100DC00001C082E080939F0180C02058223008F04B
:100DD0007CC08091A2019091A3018C3D23E09207F9
:100DE00071F583E08A838AE289834FB7F894DE0144
:100DF000139620E03EE051E2E32FF0E050935700DD
:100E0000E49120FF03C0E295EF703F5FEF708E2FFB
:100E100090E0EA3010F0C79601C0C0968D939D9384
:100E20002F5F243149F74FBF8091E800877F80937F
:100E3000E8006AE270E0CE0101966EDC12C0AE01FD
:100E40004F5F5F4F6091A40194DB009709F43DC0B0
:100E50002091E800277F2093E800BC0189819A81D6
:100E6000FCDC8091E8008B778093E8002EC020386E
:100E700061F58091E800877F8093E80080919B0175
:100E80008093F1008091E8008E778093E8007CDD0C
:100E90001CC021111AC09091A2019230B0F480912F
:100EA000E800877F8093E80090939B016DDD80913F
:100EB0009B01811104C08091E30087FF02C084E0A0
:100EC00001C081E080939F0189DA8091E80083FF6F
:100ED0000AC08091E800877F8093E8008091EB0052
:100EE00080628093EB00AA960FB6F894DEBF0FBE27
:100EF000CDBFDF91CF911F9108950895CF93809139
:100F00009F018823A9F08091E9008F709091EC00F7
:100F100090FF02C090E801C090E0C92FC82B10924A
:100F2000E9008091E80083FDA3DECF70C093E90063
:100F3000CF910895680F791F8617970751F0FC012C
:100F40002191CF013091C80035FFFCCF2093CE0016
:100F5000F3CF0895EE0FFF1F0590F491E02D099453
:040F6000F894FFCF33
:0A0F6400EE00000000000000000095
:00000001FF
