:10000000D3C00000ECC00000EAC00000E8C000005F
:10001000E6C00000E4C00000E2C00000E0C0000054
:10002000DEC00000DCC000000CC60000D8C000002C
:10003000D6C00000D4C00000D2C00000D0C0000074
:10004000CEC00000CCC00000CAC00000C8C0000084
:10005000C6C00000C4C00000C2C00000C0C0000094
:10006000BEC00000EAC00000BAC00000B8C0000076
:10007000B6C00000B4C00000B2C00000B0C00000B4
:10008000AEC00000ACC00000AAC00000A8C00000C4
:10009000A6C00000A4C00000A2C00000A0C00000D4
:1000A0009EC000009CC000009AC000000E073007F0
:1000B0001C0830071C08750797071C08E907FB0791
:1000C0002203470032003700200052006100630025
:1000D00069006E0067002000570068006500650039
:1000E0006C000000040309040902290001010080DA
:1000F000310904000002030000000921110121015F
:100100002285000705810310000207050203100085
:100110000212010002000000106D049BC2381200A0
:1001200002000105010904A101150025073500465B
:100130003B0165140939750495018142650025016B
:10014000450105091901291675019516810226FF39
:100150003F46FF3F750E950105010930810226FFDC
:100160000046FF00750895030932093509318102FF
:100170000600FF09019502810295017501250145DF
:10018000010509091781020600FF0901950781028F
:1001900026FF0046FF000600FF090295077508913B
:1001A0000295900903B102C011241FBECFEFDAE01F
:1001B000DEBFCDBF11E0A0E0B1E0E4E4F1E102C0B8
:1001C00005900D92A431B107D9F721E0A4E1B1E087
:1001D00001C01D92A03CB207E1F709D2B1C710CF10
:1001E0009B01AC01DC01CB01B695A795979587954E
:1001F000BC01CD0160587B47814E9F4F60D7215095
:1002000031093093CD002093CC0086E08093CA0062
:1002100082E08093C80088E18093C900539A5A9A7B
:100220000895F89498E088E10FB6F894A895809323
:1002300060000FBE90936000FFCF1F920F920FB629
:100240000F9211242F933F934F935F936F937F935C
:100250008F939F93AF93BF93EF93FF938091CE00C3
:1002600080935C0110928500109284008091C800F8
:1002700087FF0BC08091CE0080935B0180915C0171
:100280008F3F59F423EA31E00AC0809184009091B5
:1002900085008137924050F307C123E631E0309367
:1002A0006201209361018091600190915B01891747
:1002B000B8F491E0980F909360019091C80097FF77
:1002C00007C09091CE00F901E80FF11D9083EBCFAC
:1002D00040918400509185004137524070F3E4C052
:1002E0001092600180915C01853509F4DDC0A8F4AD
:1002F000823209F452C018F48131D9F1D6C0833367
:1003000009F460C0843409F0D0C081E080935A01C0
:1003100080915B0180935901C8C0873709F4A8C058
:10032000D0F4863609F0C1C08091630190916401D8
:100330009827892798279093170180931601809119
:100340006501909166019827892798279093150158
:1003500080931401AAC0883809F44EC08F3F09F079
:10036000A4C081E080935F0180915B0180935E0176
:100370009CC08091C80085FFFCCF81E18093CE00B6
:100380008091C80085FFFCCF81E08093CE008091F2
:10039000C80085FFFCCF88E068C08091C80085FF59
:1003A000FCCF82E28093CE008091C80085FFFCCF15
:1003B00081E08093CE00809158019091C80095FF14
:1003C000FCCF53C08091C80085FFFCCF83E38093AE
:1003D000CE008091C80085FFFCCF81E08093CE00E5
:1003E000809158019091C80095FFFCCF8093CE007A
:1003F00081E080935D0159C080915B01882309F100
:1004000080916301809312015B9A1092C90010924F
:10041000C8001092CA001092CD001092CC005398E0
:100420005A98A0911201B0E020EA36E841E050E08D
:100430006ED6D6DE5B988091C90080688093C90033
:1004400034C08091C80085FFFCCF88E88093CE003F
:100450008091C80085FFFCCF81E08093CE00809121
:1004600012019091C80095FFFCCF8093CE001DC073
:100470008091C80085FFFCCF87E78093CE008091F4
:10048000C80085FFFCCF82E08093CE008091C80039
:1004900085FFFCCF88E08093CE008091C80085FF67
:1004A000FCCF1092CE0001C0BCDEFF91EF91BF9156
:1004B000AF919F918F917F916F915F914F913F91FC
:1004C0002F910F900FBE0F901F90189514BE0FB66E
:1004D000F894A895809160008861809360001092E4
:1004E00060000FBE90E080E80FB6F8948093610042
:1004F000909361000FBE80918100846080938100A1
:10050000A0911201B0E020EA36E841E050E0FFD5CA
:1005100067DE8091C90080688093C90078948091DB
:100520005D018823E1F370C30895089542E161EC11
:1005300081E0A3D242E160EC82E09FC281E080933F
:10054000E90080915F01882399F08091E80080FFA5
:100550000FC060915E0170E040E050E083EA91E0FE
:10056000F9D010925F018091E8008E778093E800C7
:100570000895CF93DF9300D0CDB7DEB782E08093AC
:10058000E9008091E80082FF26C01A821982109249
:1005900001018091E80085FF0FC0AE014F5F5F4F02
:1005A00060E170E082E091E01FD1882311F0898141
:1005B00001C080E1809301018091E8008B778093F6
:1005C000E80060910101662331F070E06E5F7F4FBB
:1005D00080E091E064D50F900F90DF91CF91089566
:1005E0008091B701843011F4A9DFC3CF08956EDF85
:1005F000F7DF3BD5FDCF8091B901893009F441C0C7
:100600008A3021F0813009F068C017C08091B801AC
:10061000813209F062C08091E800877F8093E80012
:100620006091BE017091BF0188E191E085D1809118
:10063000E8008E778093E80008958091B801813AB0
:1006400009F04BC08091BA019091BB012091C80084
:1006500025FFFCCF29E92093CE002091C80025FF7B
:10066000FCCF22E02093CE002091C80025FFFCCFD4
:100670009093CE009091C80095FFFCCF8093CE0060
:1006800008958091B801813241F58091E800877F1B
:100690008093E8006091BE017091BF0188E191E014
:1006A0004BD18091E8008E778093E8008091BB0168
:1006B000833099F48091C80085FFFCCF89E980934D
:1006C000CE008091C80085FFFCCF88E08093CE00EB
:1006D00068E070E088EB91E0E2C40895292F3327A9
:1006E00023303105E1F058F42130310599F0223002
:1006F000310541F589E290E028EE30E027C0213253
:100700003105D9F022323105E9F485E890E023E2A1
:1007100031E01CC082E190E021E131E017C099276F
:10072000009729F0029771F4E0ECF0E002C0E4EEEB
:10073000F0E0849190E09F0109C089E090E02AEF09
:1007400030E004C080E090E020E030E0FA01318346
:1007500020830895CF92DF92EF92FF920F931F9321
:10076000CF93DF93EC018B017A01DBD1811133C090
:10077000E114F10439F0F70180819181081B190B14
:10078000C80FD91FC12CD12C0115110519F1809169
:10079000E80085FD16C08091E8008E778093E80020
:1007A00064D4E114F10449F0F70180819181C80E0D
:1007B000D91ED182C08285E00EC0B3D1882321F337
:1007C0000AC089918093F10001501109FFEFCF1AFF
:1007D000DF0ADACF80E0DF91CF911F910F91FF9078
:1007E000EF90DF90CF900895CF92DF92EF92FF923B
:1007F0000F931F93CF93DF93EC018B017A0191D17B
:10080000811133C0E114F10439F0F7018081918145
:10081000081B190BC80FD91FC12CD12C01151105AC
:1008200019F18091E80085FD16C08091E8008B7772
:100830008093E8001AD4E114F10449F0F7018081B3
:100840009181C80ED91ED182C08285E00EC069D1C7
:10085000882321F30AC08091F10089930150110986
:10086000FFEFCF1ADF0ADACF80E0DF91CF911F913F
:100870000F91FF90EF90DF90CF9008952091BE01EF
:100880003091BF012617370748F06115710539F41B
:100890002091E8002E772093E80001C0B901FC0107
:1008A00020E06115710579F18091B7018823F1F19C
:1008B0008530F1F18091E80083FD3CC08091E80033
:1008C00082FD2EC08091E80080FFEBCF2091F300E5
:1008D0008091F20090E0922B6115710551F080310A
:1008E000910538F421912093F1006150710901962E
:1008F000F3CF21E0409709F020E08091E8008E7767
:100900008093E800CECF2111CFCF0AC08091B701EC
:10091000882361F0853061F08091E80083FD0AC092
:100920008091E80082FFF2CF80E0089582E0089590
:1009300083E0089581E008956115710529F42091FF
:10094000E8002B772093E800FC016115710541F167
:100950008091B701882361F1853061F18091E800D1
:1009600083FD24C08091E80082FFEFCF2091F30047
:100970008091F20090E0922B892B31F08091F10070
:1009800081936150710991F78091E8008B77809392
:10099000E800DBCF8091B701882351F0853051F01A
:1009A0008091E80080FFF6CF80E0089581E008950F
:1009B00082E0089583E008952091BE013091BF0147
:1009C0002617370748F06115710539F42091E800C2
:1009D0002E772093E80001C0B901FC0120E06115E9
:1009E000710591F18091B701882309F440C08530E9
:1009F00009F43FC08091E80083FD3DC08091E8008C
:100A000082FD2FC08091E80080FFE9CF2091F300A4
:100A10008091F20090E0922B6115710559F08031C0
:100A2000910540F424912093F100319661507109B1
:100A30000196F2CF21E0409709F020E08091E80094
:100A40008E778093E800CBCF2111CCCF0AC0809164
:100A5000B701882361F0853061F08091E80083FD63
:100A60000AC08091E80082FFF2CF80E0089582E022
:100A7000089583E0089581E00895982F973068F5F0
:100A80009093E900981739F07091EC002091ED00F7
:100A90005091F00003C0242F762F50E021FD02C0BA
:100AA0009F5FECCF3091EB003E7F3093EB003091B5
:100AB000ED003D7F3093ED003091EB0031603093DD
:100AC000EB007093EC002093ED005093F000209128
:100AD000EE0027FDE5CF80E008958F708093E90058
:100AE00081E008958091B80187FF11C08091E800EE
:100AF00082FD05C08091B7018111F8CF11C08091AE
:100B0000E8008B770BC08091B701882349F0809172
:100B1000E80080FFF8CF8091E8008E778093E800AE
:100B200008952091E4003091E50095E64091EC00B5
:100B3000842F817040FF23C08091E80080FD1DC09C
:100B40008091B701882399F0853099F08091EB006E
:100B500085FD11C04091E4005091E5002417350750
:100B600029F3915011F09A01E1CF84E0089582E0D9
:100B7000089583E0089581E0089580E0089540910C
:100B8000E80042FFDDCF08950F931F93CF93DF93CB
:100B90004BD052D0C8EDD0E088818F778883888190
:100BA0008068888388818F7D888319BC1092B70103
:100BB0001092B3011092B5011092B40100EE10E052
:100BC000F80180818B7F808388818160888342E106
:100BD00060E080E052DFE1EEF0E080818E7F808394
:100BE000E2EEF0E080818160808380818860808394
:100BF000F80180818E7F8083888180618883DF9186
:100C0000CF911F910F910895E8EDF0E080818F7EE4
:100C10008083E7EDF0E080818160808384E082BFA3
:100C200081E08093B601B0CFE8EDF0E080818E7F67
:100C300080831092E20008951092DA001092E10091
:100C400008951F920F920FB60F9211242F933F9386
:100C50004F935F936F937F938F939F93AF93BF93C4
:100C6000EF93FF938091E10082FF0AC08091E20040
:100C700082FF06C08091E1008B7F8093E100F4D178
:100C80008091DA0080FF1DC08091D80080FF19C0DC
:100C90008091DA008E7F8093DA008091D90080FF06
:100CA0000CC080E189BD82E189BD09B400FEFDCFA1
:100CB00081E08093B70138DC04C019BC1092B70101
:100CC00034DC8091E10080FF18C08091E20080FF59
:100CD00014C08091E2008E7F8093E2008091E20058
:100CE00080618093E2008091D80080628093D80078
:100CF00019BC85E08093B701B7D18091E10084FFF2
:100D00002FC08091E20084FF2BC080E189BD82E189
:100D100089BD09B400FEFDCF8091D8008F7D8093FE
:100D2000D8008091E1008F7E8093E1008091E20005
:100D30008F7E8093E2008091E20081608093E200E8
:100D40008091B301882311F084E007C08091E30013
:100D500087FD02C081E001C083E08093B70184D1A8
:100D60008091E10083FF22C08091E20083FF1EC0DA
:100D70008091E100877F8093E10082E08093B7015A
:100D80001092B3018091E1008E7F8093E100809109
:100D9000E2008E7F8093E2008091E2008061809388
:100DA000E20042E160E080E068DE5ED1FF91EF9119
:100DB000BF91AF919F918F917F916F915F914F9173
:100DC0003F912F910F900FBE0F901F9018951F937A
:100DD000CF93DF93CDB7DEB7AA970FB6F894DEBFF7
:100DE0000FBECDBFE8EBF1E08091F100819321E0EF
:100DF000E03CF207C9F7FFDB8091E80083FF1CC1EC
:100E00008091B8019091B901492F50E04A305105C5
:100E100008F012C1FA01EA5AFF4F73C1803881F01D
:100E2000823809F009C18091BC018F708093E9007C
:100E30008091EB0085FB882780F91092E90006C0BD
:100E40008091B4019091B501911182609091E80078
:100E5000977F9093E8008093F1001092F100C4C056
:100E6000282F2D7F09F0E8C0882319F0823061F027
:100E7000E3C08091BA01813009F0DEC0933009F0FF
:100E800080E08093B5012BC08091BA01811127C009
:100E90008091BC018F7009F4CFC08093E90020914C
:100EA000EB0020FF1CC0933021F48091EB008062A6
:100EB00014C09091EB0090619093EB0021E030E042
:100EC000A90102C0440F551F8A95E2F74093EA003A
:100ED0001092EA008091EB0088608093EB00109202
:100EE000E9008091E800877F82C08111A5C0109140
:100EF000BA011F778091E3008078812B8093E30013
:100F00008091E800877F8093E800ECDD8091E80025
:100F100080FFFCCF8091E30080688093E300111193
:100F200002C082E001C083E08093B70185C0805891
:100F3000823008F081C08091BA019091BB018C3D54
:100F400053E0950771F583E08A838AE289834FB77E
:100F5000F894DE01139620E03EE051E2E32FF0E04A
:100F600050935700E49120FF03C0E295EF703F5F7C
:100F7000EF708E2F90E0EA3010F0C79601C0C09657
:100F80008D939D932F5F243149F74FBF8091E800E7
:100F9000877F8093E8006AE270E0CE0101966EDC04
:100FA00012C0AE014F5F5F4F6091BC0197DBBC0187
:100FB000892B09F441C09091E800977F9093E80055
:100FC00089819A81F9DC8091E8008B778093E80031
:100FD00033C0803889F58091E800877F8093E800EE
:100FE0008091B3018093F1008091E8008E77809327
:100FF000E80078DD21C081111FC08091BA01909175
:10100000BB0199270297C4F48091E800877F809301
:10101000E8008091BA018093B30164DD8091B3014F
:10102000811106C08091E30087FD02C081E001C00C
:1010300084E08093B7017ADA8091E80083FF0AC0E8
:101040008091E800877F8093E8008091EB008062C8
:101050008093EB00AA960FB6F894DEBF0FBECDBF0B
:10106000DF91CF911F9108950895CF938091B7019B
:10107000882399F0C091E900CF709091EC00892FFE
:10108000817090FD80E8C82B1092E9008091E80003
:1010900083FD9DDECF70C093E900CF910895680F66
:1010A000791F8617970751F0FC012191CF013091EC
:1010B000C80035FFFCCF2093CE00F3CF0895A1E206
:1010C0001A2EAA1BBB1BFD010DC0AA1FBB1FEE1FC2
:1010D000FF1FA217B307E407F50720F0A21BB30B0D
:1010E000E40BF50B661F771F881F991F1A9469F789
:1010F00060957095809590959B01AC01BD01CF01E5
:101100000895EE0FFF1F0590F491E02D099409D08A
:10111000A59F900DB49F900DA49F800D911D11244B
:101120000895A29FB001B39FC001A39F700D811DC0
:101130001124911DB29F700D811D1124911D0895E0
:04114000F894FFCF51
:10114400EE000000000000000000000000000000AD
:041154000000050092
:00000001FF
