:1000000015C100002EC100002CC100002AC1000053
:1000100028C1000026C1000024C1000022C1000048
:1000200020C100001EC10000F6C500001AC100007A
:1000300018C1000016C1000014C1000012C1000068
:1000400010C100000EC100000CC100000AC1000078
:1000500008C1000006C1000004C1000002C1000088
:1000600000C100002CC10000FCC00000FAC000006C
:10007000F8C00000F6C00000F4C00000F2C00000AC
:10008000F0C00000EEC00000ECC00000EAC00000BC
:10009000E8C00000E6C00000E4C00000E2C00000CC
:1000A000E0C00000DEC00000DCC00000F8061A0757
:1000B000FE071A07FE075C077E07FE07D007E20768
:1000C00003212703110600000000000000000000CB
:1000D00000000D0D000000000D8403000000000072
:1000E0000000000000000000000000000000000010
:1000F000F3003838000000003E03470032003900AA
:100100002000440072006900760069006E006700FC
:10011000200046006F00720063006500200052005E
:100120006100630069006E006700200057006800EE
:10013000650065006C00000012034C006F00670052
:10014000690074006500630068000000040309048E
:1001500009022900010100C0640904000002030033
:10016000000009211001000122A0000705840340BE
:10017000000507050303400005120100010000000F
:10018000406D0460C200890102000105010904A15B
:100190000185010930093109320935150026FF00B2
:1001A0007508950481020939150025073500463B7D
:1001B000016514750495018142650005091901293D
:1001C0000E150025017501950E81020600FF09201C
:1001D000750695018102050109330934150026FFD2
:1001E000007508950281020600FF092195368102FB
:1001F00085050922951F910285030A2127952FB1B4
:1002000002C006F0FF0940A10185F00947953FB102
:100210000285F10948953FB10285F20949950FB170
:100220000285F30A01479507B102C00011241FBEE1
:10023000CFEFDAE0DEBFCDBF11E0A0E0B1E0E6E94C
:10024000F0E102C005900D92A238B107D9F712E093
:10025000A2E8B1E001C01D92A931B107E1F71CD2BB
:1002600018C7CECE8091C80085FFFCCF84E4809370
:10027000CE008091110287FF06C08091C80085FFE3
:10028000FCCF88E007C080911702885F9091C8007A
:1002900095FFFCCF8093CE0068E070E081E192E0B2
:1002A000E2C65E9AF89428E088E190E00FB6F894F0
:1002B000A895809360000FBE20936000FFCF1F922F
:1002C0000F920FB60F9211242F933F934F935F938A
:1002D0006F937F938F939F93AF93BF93EF93FF930E
:1002E0008091CE00809305028091C80087FFFCCFEB
:1002F0008091CE0080930402809105028F3F19F413
:1003000082E491E002C082EC91E090930A02809333
:1003100009028091090290910A022091080230910D
:100320000402231778F431E0320F30930802FC0105
:10033000E20FF11D2091C80027FFFCCF2091CE00D5
:100340002083EBCF1092080280910502833309F4D9
:1003500042C028F48131A1F0823231F15AC0853592
:1003600009F453C08F3F09F451C0843409F051C0DF
:1003700081E080930302809104028093020249C0CD
:100380008091C80085FFFCCF81E18093CE008091F1
:10039000C80085FFFCCF81E08093CE008091C8002B
:1003A00085FFFCCF89E014C08091C80085FFFCCF99
:1003B00082E28093CE008091C80085FFFCCF81E06F
:1003C0008093CE00809106029091C80095FFFCCFEB
:1003D0008093CE001EC08091C80085FFFCCF83E3D0
:1003E0008093CE008091C80085FFFCCF81E0809390
:1003F000CE00809106029091C80095FFFCCF8093BB
:10040000CE0081E08093060204C04BDF81E0809340
:100410000702FF91EF91BF91AF919F918F917F91D3
:100420006F915F914F913F912F910F900FBE0F9061
:100430001F90189581E090E09093CD008093CC00C0
:1004400086E08093CA001092C800E9ECF0E088E1F1
:100450008083539A5A9A808180688083089514BE5D
:1004600088E10FB6F89480936000109260000FBE90
:1004700090E080E80FB6F89480936100909361005B
:100480000FBED8DF7894569A809106028823E1F354
:10049000A5C30895089542E361EC84E0D9D242E314
:1004A00060EC83E0D5C240911202413021F0493026
:1004B00009F45CC0089580911102813A09F08FC05F
:1004C0002091130230911402333009F088C0C90121
:1004D0009927833F91055CF4813F910564F403976C
:1004E000E9F440930B0260E380EC90E02FC0833F7F
:1004F000910549F113C010920302B4DE809103020A
:100500008823E1F38091E800877F8093E800609181
:10051000020270E082EC91E096D122C08091C80086
:1005200085FFFCCF89E98093CE008091C80085FFCC
:10053000FCCF81E08093CE008091C80085FFFCCF86
:100540002093CE00089568E080EF90E0009709F4D2
:1005500046C02091E800277F2093E80070E015D284
:100560008091E8008B778093E800089580911102D4
:100570008132A9F58091E800877F8093E80060913F
:1005800017027091180282E891E0BFD18091E800D3
:100590008E778093E800809113029091140293303B
:1005A000F1F4803F41F45EDE609117027091180211
:1005B00082E891E058C59091C80095FFFCCF99E979
:1005C0009093CE009091C80095FFFCCF91E090935E
:1005D000CE009091C80095FFFCCF8093CE00089587
:1005E00084E08093E90080910B028823B1F0809130
:1005F0000702882391F08091E80080FFFCCF40E063
:1006000050E060E470E082E491E08DD01092070247
:100610008091E8008E778093E8000895CF93DF9370
:1006200000D0CDB7DEB71A82198283E08093E9004B
:100630008091E80082FF24C08091E80085FF0EC011
:10064000AE014F5F5F4F60E470E082E091E0B3D0B5
:10065000811104C080E490E09A8389838091E8004E
:100660008B778093E80069817A816115710541F08B
:100670006093010177276E5F7F4F80E091E0F3D4B4
:100680000F900F90DF91CF910895809110028430E8
:1006900011F4A6DFC3CF0895E2DEF7DFC8D4FDCFA3
:1006A000292F332723303105B9F05CF4213031058F
:1006B00069F12230310579F589E290E020E531E0F9
:1006C0002EC021323105E9F02232310521F580EAD0
:1006D00090E02BE831E023C099278130910541F06B
:1006E0008230910541F0892BB1F4ECE4F1E005C0D2
:1006F000E8E3F1E002C0E8EFF0E0849190E09F01D0
:100700000EC089E090E022E631E009C082E190E08D
:1007100029E731E004C080E090E020E030E0FA0119
:10072000318320830895CF92DF92EF92FF920F934F
:100730001F93CF93DF937C018B01EA01DFD18111FD
:1007400031C0209731F088819981081B190BE80E80
:10075000F91EC12CD12C0115110519F18091E80069
:1007600085FD14C08091E8008E778093E8005FD407
:10077000209741F0888199818C0D9D1D99838883F4
:1007800085E010C0BBD1882331F30CC0F701819103
:100790007F018093F10001501109FFEFCF1ADF0AAA
:1007A000DACF80E0DF91CF911F910F91FF90EF9012
:1007B000DF90CF900895CF92DF92EF92FF920F9348
:1007C0001F93CF93DF937C018B01EA0197D18111B5
:1007D00031C0209731F088819981081B190BE80EF0
:1007E000F91EC12CD12C0115110519F18091E800D9
:1007F00085FD14C08091E8008B778093E80017D4C2
:10080000209741F0888199818C0D9D1D9983888363
:1008100085E010C073D1882331F30CC08091F100C2
:10082000F70181937F0101501109FFEFCF1ADF0A11
:10083000DACF80E0DF91CF911F910F91FF90EF9081
:10084000DF90CF900895209117023091180226175B
:10085000370748F06115710539F42091E8002E77CB
:100860002093E80001C0B901FC0120E06115710589
:10087000C1F180911002882309F441C0853009F448
:1008800040C08091E80083FD3EC08091E80082FF77
:1008900006C08091E80082FF27C080E00895809123
:1008A000E80080FFE3CF2091F3008091F20090E018
:1008B000922B6115710551F08034910538F4219126
:1008C0002093F100615071090196F3CF21E080344B
:1008D000910509F020E08091E8008E778093E80090
:1008E000C5CF2111C6CFD5CF80911002882339F012
:1008F000853039F08091E80083FFCBCF04C082E0DF
:10090000089583E0089581E008956115710529F443
:100910002091E8002B772093E8006115710541F1E3
:1009200020911002222369F1253069F12091E8001D
:1009300023FD23C02091E80022FFF2CFFC01CF016C
:100940004091F3002091F20030E0342B232B01F38F
:100950008091F1008193CF0161507109611571059A
:1009600071F7D6CF80911002882359F0853059F065
:100970008091E80080FFF6CF02C081E0089580E01A
:10098000089582E0089583E0089520911702309140
:1009900018022617370748F06115710539F42091C0
:1009A000E8002E772093E80001C0B901FC0120E0A7
:1009B00061157105C9F180911002882309F442C0C4
:1009C000853009F441C08091E80083FD3FC08091EB
:1009D000E80082FF06C08091E80082FF28C080E026
:1009E00008958091E80080FFE3CF2091F30080918B
:1009F000F20090E0922B6115710559F08034910559
:100A000040F424912093F1003196615071090196D0
:100A1000F2CF21E08034910509F020E08091E800D8
:100A20008E778093E800C4CF2111C5CFD4CF8091B9
:100A30001002882339F0853039F08091E80083FF77
:100A4000CACF04C082E0089583E0089581E008954C
:100A5000982F973058F59093E900981739F07091D6
:100A6000EC002091ED005091F00003C0242F762F70
:100A700050E021FF19C03091EB003E7F3093EB0036
:100A80003091ED003D7F3093ED003091EB0031600F
:100A90003093EB007093EC002093ED005093F00046
:100AA0002091EE0027FF07C09F5FD3CF8F70809308
:100AB000E90081E0089580E008958091110287FDAA
:100AC00005C08091E80080FF0EC012C08091E80050
:100AD00082FD05C0809110028111F8CF08958091A8
:100AE000E8008B7708C0809110028111EACF089549
:100AF0008091E8008E778093E80008958091E4006B
:100B00009091E50045E62091EC0020FF21C0209166
:100B1000E80020FD21C020911002222389F0253019
:100B200089F02091EB0025FD0FC02091E400309169
:100B3000E5002817390739F3415041F0C901E3CFE7
:100B400082E0089583E0089581E0089584E00895A7
:100B50002091E80022FFDFCF80E008950F931F93DC
:100B6000CF93DF934BD052D0C8EDD0E088818F7700
:100B7000888388818068888388818F7D888319BC79
:100B80001092100210920C0210920E0210920D029E
:100B900000EE10E0F80180818B7F80838881816086
:100BA000888342E360E080E053DFE1EEF0E08081A3
:100BB0008E7F8083E2EEF0E080818160808380819F
:100BC00088608083F80180818E7F80838881806146
:100BD0008883DF91CF911F910F910895E8EDF0E0A8
:100BE00080818F7E8083E7EDF0E08081816080836B
:100BF00084E082BF81E080930F02B0CFE8EDF0E0A7
:100C000080818E7F80831092E20008951092DA0036
:100C10001092E10008951F920F920FB60F921124C7
:100C20002F933F934F935F936F937F938F939F93F4
:100C3000AF93BF93EF93FF938091E10082FF0AC0CF
:100C40008091E20082FF06C08091E1008B7F80935B
:100C5000E100ECD18091DA0080FF1DC08091D800C6
:100C600080FF19C08091DA008E7F8093DA00809136
:100C7000D90080FF0CC080E189BD82E189BD09B443
:100C800000FEFDCF81E08093100203DC04C019BC9C
:100C900010921002FFDB8091E10080FF18C080916C
:100CA000E20080FF14C08091E2008E7F8093E2001A
:100CB0008091E20080618093E2008091D8008062A0
:100CC0008093D80019BC85E080931002AFD1809149
:100CD000E10084FF2FC08091E20084FF2BC080E1FF
:100CE00089BD82E189BD09B400FEFDCF8091D800A5
:100CF0008F7D8093D8008091E1008F7E8093E1000A
:100D00008091E2008F7E8093E2008091E20081601A
:100D10008093E20080910C02882311F084E007C0E8
:100D20008091E30087FF02C083E001C081E08093EF
:100D300010027CD18091E10083FF22C08091E2000B
:100D400083FF1EC08091E100877F8093E10082E0F5
:100D50008093100210920C028091E1008E7F8093AC
:100D6000E1008091E2008E7F8093E2008091E200BA
:100D700080618093E20042E360E080E069DE56D16A
:100D8000FF91EF91BF91AF919F918F917F916F9163
:100D90005F914F913F912F910F900FBE0F901F9039
:100DA00018951F93CF93DF93CDB7DEB7AA970FB6F1
:100DB000F894DEBF0FBECDBFE1E1F2E08091F1001B
:100DC000819322E0E931F207C9F76DDB8091E800F9
:100DD00083FF14C12091110230911202832F90E001
:100DE0008A30910508F00AC1FC01EA5AFF4F4BC155
:100DF000203881F0223809F001C1809115028F70EE
:100E00008093E9008091EB0085FB882780F91092A0
:100E1000E90006C080910D0290910E02911182604E
:100E20009091E800977F9093E8008093F1001092F2
:100E3000F100C1C0822F8D7F09F0E0C0222319F09C
:100E4000223061F0DBC080911302813009F0D6C0FE
:100E5000333009F080E080930E0228C080911302A5
:100E6000811124C0209115022F7009F4C7C020936E
:100E7000E9008091EB0080FF19C08091EB003330D6
:100E800011F4806211C080618093EB0081E090E0FA
:100E9000022E01C0880F0A94EAF78093EA001092AC
:100EA000EA008091EB0088608093EB001092E900EB
:100EB0008091E800877F82C02111A0C010911302A9
:100EC0001F778091E3008078812B8093E3008091ED
:100ED000E800877F8093E800F0DD8091E80080FFE4
:100EE000FCCF8091E30080688093E300112311F030
:100EF00083E001C082E08093100280C0205822303D
:100F000008F07CC080911302909114028C3D23E084
:100F1000920771F583E08A838AE289834FB7F89458
:100F2000DE01139620E03EE051E2E32FF0E0509323
:100F30005700E49120FF03C0E295EF703F5FEF7030
:100F40008E2F90E0EA3010F0C79601C0C0968D93C6
:100F50009D932F5F243149F74FBF8091E800877F31
:100F60008093E8006AE270E0CE0101966CDC12C06A
:100F7000AE014F5F5F4F6091150292DB009709F45D
:100F80003DC02091E800277F2093E800BC018981C3
:100F90009A81FBDC8091E8008B778093E8002EC07B
:100FA000203861F58091E800877F8093E800809188
:100FB0000C028093F1008091E8008E778093E80026
:100FC0007CDD1CC021111AC0909113029230B0F444
:100FD0008091E800877F8093E80090930C026DDD9C
:100FE00080910C02811104C08091E30087FF02C050
:100FF00084E001C081E0809310024DDA8091E80026
:1010000083FF0AC08091E800877F8093E800809189
:10101000EB0080628093EB00AA960FB6F894DEBFD7
:101020000FBECDBFDF91CF911F9108950895CF934B
:10103000809110028823A9F08091E9008F7090912F
:10104000EC0090FF02C090E801C090E0C92FC82BCF
:101050001092E9008091E80083FDA3DECF70C09379
:10106000E900CF910895680F791F8617970751F00F
:10107000FC012191CF013091C80035FFFCCF2093B6
:10108000CE00F3CF0895EE0FFF1F0590F491E02DF1
:061090000994F894FFCF63
:10109600EE0000000000000000000000000000005C
:1010A600000000000000000000000000000000003A
:1010B600000000000000000000000000000000002A
:1010C600000000000000000000000000000000001A
:1010D6000000018080808008000000000000000001
:1010E60000000000000000000000000000000000FA
:1010F600000000000000000000000000000080FF6B
:10110600FFFFFFFFFF00FFFF0000000000000000E0
:021116000000D7
:00000001FF
