:10000000B9C00000D2C00000D0C00000CEC00000C7
:10001000CCC00000CAC00000C8C00000C6C00000BC
:10002000C4C00000C2C00000E4C40000BEC00000A4
:10003000BCC00000BAC00000B8C00000B6C00000DC
:10004000B4C00000B2C00000B0C00000AEC00000EC
:10005000ACC00000AAC00000A8C00000A6C00000FC
:10006000A4C00000D0C00000A0C000009EC00000DE
:100070009CC000009AC0000098C0000096C000001C
:1000800094C0000092C0000090C000008EC000002C
:100090008CC000008AC0000088C0000086C000003C
:1000A00084C0000082C0000080C00000E605080691
:1000B000F4060806F4064D066F06F406C106D306DC
:1000C000212601070000000026034A006F00790086
:1000D00073007400690063006B00000018034700A0
:1000E00049004D00580000000403090409022200E1
:1000F000010100C0320904000001030000000921D1
:100100001101000122540007058103400001120182
:10011000100100000008EB03432001000102000170
:1001200005010904A101A102150026FFFF75109524
:1001300004093009310932093581822507463B011E
:10014000750495016514093981427504950105FF0F
:1001500081017508950105FF8101150025017501D3
:10016000950D05091901290D81027503950105FFFA
:100170008101C0C011241FBECFEFDAE0DEBFCDBFCA
:1001800011E0A0E0B1E0E4EDFEE002C005900D92C8
:10019000A230B107D9F721E0A2E0B1E001C01D9281
:1001A000AE39B207E1F7CCD193C62ACF9B01AC019F
:1001B000DC01CB01B695A79597958795BC01CD013C
:1001C00060587B47814E9F4F42D621503109309372
:1001D000CD002093CC0086E08093CA0082E080931B
:1001E000C80088E18093C900539A5A9A0895F894F8
:1001F00098E088E10FB6F894A895809360000FBE50
:1002000090936000FFCF1F920F920FB60F921124B0
:100210002F933F934F935F936F937F938F939F930E
:10022000AF93BF93EF93FF938091CE0080930A0129
:1002300010928500109284008091C80087FF0BC047
:100240008091CE008093090180910A018F3F59F47B
:1002500021E531E00AC080918400909185008137CA
:10026000924050F306C121E131E030931001209318
:100270000F0180910E01909109018917B8F491E066
:10028000980F90930E019091C80097FF07C090912E
:10029000CE00F901E80FF11D9083EBCF409184006F
:1002A000509185004137524070F3E3C010920E0127
:1002B00080910A01853509F4DCC0A8F4823209F482
:1002C00051C018F48131D9F1D5C0833309F45FC02E
:1002D000843409F0CFC081E0809308018091090146
:1002E00080930701C7C0873709F4A7C0D0F48636CA
:1002F00009F0C0C0809111019091120198278927BF
:1003000098279093050180930401809113019091A7
:10031000140198278927982790930301809302015D
:10032000A9C0883809F44DC08F3F09F0A3C081E00F
:1003300080930D018091090180930C019BC08091F5
:10034000C80085FFFCCF81E18093CE008091C8007A
:1003500085FFFCCF81E08093CE008091C80085FFAF
:10036000FCCF84C08091C80085FFFCCF82E28093DF
:10037000CE008091C80085FFFCCF81E08093CE0045
:10038000809106019091C80095FFFCCF53C08091E9
:10039000C80085FFFCCF83E38093CE008091C80026
:1003A00085FFFCCF81E08093CE0080910601909183
:1003B000C80095FFFCCF8093CE0081E080930B01B5
:1003C00059C080910901882309F18091110180931E
:1003D00000015B9A1092C9001092C8001092CA00E6
:1003E0001092CD001092CC0053985A98A091000121
:1003F000B0E020EA36E841E050E051D5D7DE5B9826
:100400008091C90080688093C90034C08091C80081
:1004100085FFFCCF88E88093CE008091C80085FFDF
:10042000FCCF81E08093CE00809100019091C800C4
:1004300095FFFCCF8093CE001DC08091C80085FF42
:10044000FCCF87E78093CE008091C80085FFFCCF6A
:1004500082E08093CE008091C80085FFFCCF88E0C9
:100460008093CE008091C80085FFFCCF1092CE0013
:1004700001C0BDDEFF91EF91BF91AF919F918F9130
:100480007F916F915F914F913F912F910F900FBE90
:100490000F901F90189514BE0FB6F894A8958091F0
:1004A0006000886180936000109260000FBE90E051
:1004B00080E80FB6F89480936100909361000FBEBE
:1004C00080918100846080938100A0910001B0E060
:1004D00020EA36E841E050E0E2D468DE8091C900CD
:1004E00080688093C900789480910B018823E1F3A0
:1004F00063C20895089542E361EC81E096C181E012
:100500008093E90080910D01882399F08091E800A3
:1005100080FF0FC060910C0170E040E050E081E589
:1005200091E07AD010920D018091E8008E7780934F
:10053000E800089580919501843009F4E0CF089592
:10054000AADFF8DF6AD4FDCF80919701813011F5E1
:1005500080919601813AF1F48091E800877F809341
:10056000E80080919801909199018115934031F4B0
:1005700068E070E080EC90E0F7D007C060919C01EB
:1005800070919D0181E591E091D08091E8008B7799
:100590008093E8000895292F332723303105E1F0B7
:1005A00058F42130310599F02230310569F582E2A5
:1005B00090E02CEE30E02CC02132310501F12232E6
:1005C000310511F584E590E020E231E021C082E1BF
:1005D00090E02EE031E01CC099278130910549F070
:1005E00028F0029789F4E8ECF0E005C0E8EEF0E0CE
:1005F00002C0ECEDF0E0849190E09F0109C089E039
:1006000090E02EEF30E004C080E090E020E030E0A9
:10061000FA01318320830895CF92DF92EF92FF9207
:100620000F931F93CF93DF93EC018B017A0151D18C
:10063000811133C0E114F10439F0F7018081918117
:10064000081B190BC80FD91FC12CD12C011511057E
:1006500019F18091E80085FD16C08091E8008E7741
:100660008093E800DAD3E114F10449F0F7018081C6
:100670009181C80ED91ED182C08285E00EC029D1D9
:10068000882321F30AC089918093F1000150110958
:10069000FFEFCF1ADF0ADACF80E0DF91CF911F9111
:1006A0000F91FF90EF90DF90CF90089520919C01E3
:1006B00030919D012617370748F06115710539F40F
:1006C0002091E8002E772093E80001C0B901FC01D9
:1006D00020E06115710579F1809195018823F1F190
:1006E0008530F1F18091E80083FD3CC08091E80005
:1006F00082FD2EC08091E80080FFEBCF2091F300B7
:100700008091F20090E0922B6115710551F08830D4
:10071000910538F421912093F100615071090196FF
:10072000F3CF21E0089709F020E08091E8008E7770
:100730008093E800CECF2111CFCF0AC080919501E0
:10074000882361F0853061F08091E80083FD0AC064
:100750008091E80082FFF2CF80E0089582E0089562
:1007600083E0089581E0089520919C0130919D01DE
:100770002617370748F06115710539F42091E80014
:100780002E772093E80001C0B901FC0120E061153B
:10079000710591F180919501882309F440C085305D
:1007A00009F43FC08091E80083FD3DC08091E800DE
:1007B00082FD2FC08091E80080FFE9CF2091F300F7
:1007C0008091F20090E0922B6115710559F088300C
:1007D000910540F424912093F10031966150710904
:1007E0000196F2CF21E0089709F020E08091E8001F
:1007F0008E778093E800CBCF2111CCCF0AC08091B7
:100800009501882361F0853061F08091E80083FDD7
:100810000AC08091E80082FFF2CF80E0089582E074
:10082000089583E0089581E00895982F973068F542
:100830009093E900981739F07091EC002091ED0049
:100840005091F00003C0242F762F50E021FD02C00C
:100850009F5FECCF3091EB003E7F3093EB00309107
:10086000ED003D7F3093ED003091EB00316030932F
:10087000EB007093EC002093ED005093F00020917A
:10088000EE0027FDE5CF80E008958F708093E900AA
:1008900081E008958091960187FF11C08091E80062
:1008A00082FD05C0809195018111F8CF11C0809122
:1008B000E8008B770BC080919501882349F08091E7
:1008C000E80080FFF8CF8091E8008E778093E80001
:1008D00008952091E4003091E50095E64091EC0008
:1008E000842F817040FF23C08091E80080FD1DC0EF
:1008F00080919501882399F0853099F08091EB00E3
:1009000085FD11C04091E4005091E50024173507A2
:1009100029F3915011F09A01E1CF84E0089582E02B
:10092000089583E0089581E0089580E0089540915E
:10093000E80042FFDDCF08950F931F93CF93DF931D
:100940004BD052D0C8EDD0E088818F7788838881E2
:100950008068888388818F7D888319BC1092950177
:1009600010929101109293011092920100EE10E00A
:10097000F80180818B7F808388818160888342E059
:1009800060E080E052DFE1EEF0E080818E7F8083E6
:10099000E2EEF0E0808181608083808188608083E6
:1009A000F80180818E7F8083888180618883DF91D8
:1009B000CF911F910F910895E8EDF0E080818F7E37
:1009C0008083E7EDF0E080818160808384E082BFF6
:1009D00081E080939401B0CFE8EDF0E080818E7FDC
:1009E00080831092E20008951092DA001092E100E4
:1009F00008951F920F920FB60F9211242F933F93D9
:100A00004F935F936F937F938F939F93AF93BF9316
:100A1000EF93FF938091E10082FF0AC08091E20092
:100A200082FF06C08091E1008B7F8093E100F4D1CA
:100A30008091DA0080FF1DC08091D80080FF19C02E
:100A40008091DA008E7F8093DA008091D90080FF58
:100A50000CC080E189BD82E189BD09B400FEFDCFF3
:100A600081E08093950145DD04C019BC1092950189
:100A700041DD8091E10080FF18C08091E20080FF9D
:100A800014C08091E2008E7F8093E2008091E200AA
:100A900080618093E2008091D80080628093D800CA
:100AA00019BC85E080939501B7D18091E10084FF66
:100AB0002FC08091E20084FF2BC080E189BD82E1DC
:100AC00089BD09B400FEFDCF8091D8008F7D809351
:100AD000D8008091E1008F7E8093E1008091E20058
:100AE0008F7E8093E2008091E20081608093E2003B
:100AF00080919101882311F084E007C08091E30088
:100B000087FD02C081E001C083E08093950184D11C
:100B10008091E10083FF22C08091E20083FF1EC02C
:100B20008091E100877F8093E10082E080939501CE
:100B3000109291018091E1008E7F8093E10080917D
:100B4000E2008E7F8093E2008091E20080618093DA
:100B5000E20042E060E080E068DE5ED1FF91EF916C
:100B6000BF91AF919F918F917F916F915F914F91C5
:100B70003F912F910F900FBE0F901F9018951F93CC
:100B8000CF93DF93CDB7DEB7AA970FB6F894DEBF49
:100B90000FBECDBFE6E9F1E08091F100819321E045
:100BA000EE39F207C9F7D0DC8091E80083FF1CC161
:100BB0008091960190919701492F50E04A3051055C
:100BC00008F012C1FA01EA5AFF4F63C1803881F080
:100BD000823809F009C180919A018F708093E900F1
:100BE0008091EB0085FB882780F91092E90006C010
:100BF0008091920190919301911182609091E8000F
:100C0000977F9093E8008093F1001092F100C4C0A8
:100C1000282F2D7F09F0E8C0882319F0823061F079
:100C2000E3C080919801813009F0DEC0933009F073
:100C300080E0809393012BC080919801811127C09F
:100C400080919A018F7009F4CFC08093E9002091C0
:100C5000EB0020FF1CC0933021F48091EB008062F8
:100C600014C09091EB0090619093EB0021E030E094
:100C7000A90102C0440F551F8A95E2F74093EA008C
:100C80001092EA008091EB0088608093EB00109254
:100C9000E9008091E800877F82C08111A5C0109192
:100CA00098011F778091E3008078812B8093E30087
:100CB0008091E800877F8093E800ECDD8091E80078
:100CC00080FFFCCF8091E30080688093E3001111E6
:100CD00002C082E001C083E08093950185C0805806
:100CE000823008F081C080919801909199018C3DEB
:100CF00053E0950771F583E08A838AE289834FB7D1
:100D0000F894DE01139620E03EE051E2E32FF0E09C
:100D100050935700E49120FF03C0E295EF703F5FCE
:100D2000EF708E2F90E0EA3010F0C79601C0C096A9
:100D30008D939D932F5F243149F74FBF8091E80039
:100D4000877F8093E8006AE270E0CE010196AEDC16
:100D500012C0AE014F5F5F4F60919A011CDCBC0175
:100D6000892B09F441C09091E800977F9093E800A7
:100D700089819A81F9DC8091E8008B778093E80083
:100D800033C0803889F58091E800877F8093E80040
:100D9000809191018093F1008091E8008E7780939B
:100DA000E80078DD21C081111FC0809198019091E9
:100DB000990199270297C4F48091E800877F809376
:100DC000E800809198018093910164DD8091910108
:100DD000811106C08091E30087FD02C081E001C05F
:100DE00084E08093950187DB8091E80083FF0AC04F
:100DF0008091E800877F8093E8008091EB0080621B
:100E00008093EB00AA960FB6F894DEBF0FBECDBF5D
:100E1000DF91CF911F9108950895CF93809195010F
:100E2000882399F0C091E900CF709091EC00892F50
:100E3000817090FD80E8C82B1092E9008091E80055
:100E400083FD9DDECF70C093E900CF910895A1E2AC
:100E50001A2EAA1BBB1BFD010DC0AA1FBB1FEE1F34
:100E6000FF1FA217B307E407F50720F0A21BB30B7F
:100E7000E40BF50B661F771F881F991F1A9469F7FB
:100E800060957095809590959B01AC01BD01CF0157
:100E90000895EE0FFF1F0590F491E02D099409D0FD
:100EA000A59F900DB49F900DA49F800D911D1124BE
:100EB0000895A29FB001B39FC001A39F700D811D33
:100EC0001124911DB29F700D811D1124911D089553
:040ED000F894FFCFC4
:020ED400050017
:00000001FF
