:10000000ABC10000C4C10000C2C10000C0C10000FB
:10001000BEC10000BCC10000BAC10000B8C10000F0
:10002000B6C10000B4C100009DC60000B0C1000010
:10003000AEC10000ACC10000AAC10000A8C1000010
:10004000A6C10000A4C10000A2C10000A0C1000020
:100050009EC100009CC100009AC1000098C1000030
:1000600096C1000095C1000092C1000090C100003F
:100070008EC100008CC100008AC1000088C1000050
:1000800086C1000084C1000082C1000080C1000060
:100090007EC100007CC100007AC1000078C1000070
:1000A00076C1000074C1000072C100009F07C10743
:1000B000A808C107A80806082808A8087A088C0814
:1000C0000104C402D601EEFF14130102C401D600DC
:1000D00000020202000300000200000262010201AD
:1000E0005E00320000000000000000000000000080
:1000F00005000000000000000000000000000000FB
:1001000000010000070301B0000000000000000033
:1001100000026B0268000000000000000000000008
:1001200000000000000000000000000000000000CF
:1001300005000000000000000000000000000000BA
:1001400000EF0400070301B0000000000000000001
:1001500000026B02680000000000000000000000C8
:10016000000000000000000000000000000000008F
:10017000050000000000000000000000000000007A
:100180000100AAAAAAAAAAAAFFF700035081D801CF
:100190008A130000000004000202020200000004B2
:1001A000040404000004000102070017000000001E
:1001B000000000000000000000000000000000003F
:1001C000F2FFFF0001020304050600035081D8017D
:1001D0008A13000000000400020202020000000472
:1001E00004040400000400010207001700000000DE
:1001F00000000000000000000000000000000000FF
:1002000000010400070C010218181818090A10113F
:1002100012130000000004000202020200000004A9
:10022000040404000004000102070017000000009D
:1002300000000000000000000000000000000000BE
:10024000360350004C004100590053005400410057
:10025000540049004F004E0028005200290033008E
:10026000200043006F006E00740072006F006C008D
:100270006C006500720000000C0353006F006E00FC
:10028000790000000403090409022900010100802B
:10029000FA09040000020300000009211101000115
:1002A0002294000705810340000107050203400076
:1002B0000112010002000000404C0568020001012B
:1002C00002000105010904A101A10285017508953B
:1002D00001150026FF008103750195131500250106
:1002E0003500450105091901291381027501950D94
:1002F0000600FF8103150026FF0005010901A1008A
:1003000075089504350046FF0009300931093209A6
:10031000358102C00501750895270901810275081C
:10032000953009019102750895300901B102C0A10B
:10033000028502750895300901B102C0A10285EE5F
:10034000750895300901B102C0A10285EF750895C5
:10035000300901B102C0C00011241FBECFEFDAE0A6
:10036000DEBFCDBF11E0A0E0B1E0E8EFF1E102C0F7
:1003700005900D92A437B107D9F722E0A4E7B1E0C8
:1003800001C01D92A131B207E1F729D233C738CE9F
:100390001F920F920FB60F9211242F933F938F93BA
:1003A0009F93EF93FF938091CE008093F50180910E
:1003B000C80087FFFCCF8091CE008093F40180912C
:1003C000F5018F3F19F482E491E002C084EB91E0E3
:1003D0009093FB018093FA012091FA013091FB0187
:1003E0008091F9019091F401891778F491E0980FC8
:1003F0009093F901F901E80FF11D8091C80087FF82
:10040000FCCF8091CE008083EBCF1092F9018091D8
:10041000F501823209F118F4813151F04DC0833376
:1004200091F18F3F09F048C081E08093F70144C00B
:100430008091C80085FFFCCF81E18093CE00809140
:10044000C80085FFFCCF81E08093CE008091C8007A
:1004500085FFFCCF82E014C08091C80085FFFCCFEF
:1004600082E28093CE008091C80085FFFCCF81E0BE
:100470008093CE008091F6019091C80095FFFCCF4B
:100480008093CE0019C08091C80085FFFCCF83E324
:100490008093CE008091C80085FFFCCF81E08093DF
:1004A000CE008091F6019091C80095FFFCCF80931B
:1004B000CE0081E08093F601FF91EF919F918F91A3
:1004C0003F912F910F900FBE0F901F90189581E0D4
:1004D00090E09093CD008093CC0086E08093CA009A
:1004E0001092C800E9ECF0E088E18083539A5A9AB0
:1004F000808180688083089584B7877F84BF0FB62A
:10050000F894A895809160008861809360001092B3
:1005100060000FBE90E080E80FB6F8948093610011
:10052000909361000FBED3DF78948091F601882309
:10053000E1F3FBC30895089542E361EC81E02FD31A
:1005400042E360EC82E02BC3CF93C0910A02C1303A
:1005500021F0C93009F478C0E4C080910902813AE1
:1005600009F0DFC020910B0230910C02333009F00A
:10057000D8C0C9019927823F9105C1F064F4813048
:10058000910509F4BBC08F3E9105B9F540E450E0F8
:1005900060E471E02AC0873F910509F4B2C0883F4A
:1005A0009105F9F0853F910541F503C080EC91E09C
:1005B000AAC040E450E060E871E084E791E011D621
:1005C0008091FC01811103C0C093FC012BC086E027
:1005D000EEEFF1E0A6E7B1E001900D928A95E1F728
:1005E00021C040E450E060E071E084E791E0F9D59B
:1005F0008091FD0180937B0115C08091C80085FF2B
:10060000FCCF89E98093CE008091C80085FFFCCFA4
:1006100081E08093CE008091C80085FFFCCF2093BD
:10062000CE007FC08091E800877F8093E8006091D2
:100630000F027091100284E791E0ACD18091E80044
:100640008B778093E8006DC080910902813209F0B8
:1006500068C08091E800877F8093E80060910F0276
:100660007091100284E791E0F8D19091E8009E77B4
:100670009093E800811155C080910B0290910C027B
:100680009330B9F499278F3E910571F0853F91051C
:1006900009F047C086E0E6E7F1E0AEEFB1E0019097
:1006A0000D928A95E1F73DC080917A018093FD011A
:1006B00038C09230B1F58130A1F58093F801809176
:1006C000C80085FFFCCF8EEE8093CE0080910F0294
:1006D0008F5F9091C80095FFFCCF8093CE008091F2
:1006E000C80085FFFCCF81E08093CE0060910F02AF
:1006F0007091100284E791E0CF915DC580E092E0B7
:1007000002C080EC90E0009709F48CCF2091E800C3
:10071000277F2093E80060910F0270911002DDD1D5
:100720008DCFCF9108958091F8018823C9F081E0A1
:100730008093E9008091F701882391F08091E8008F
:1007400080FFFCCF40E050E061E370E082E491E0A4
:100750008DD01092F7018091E8008E778093E800A9
:100760000895CF93DF9300D0CDB7DEB71A821982F8
:1007700082E08093E9008091E80082FF24C08091AC
:10078000E80085FF0EC0AE014F5F5F4F60E470E090
:1007900082E091E0B5D0811104C080E490E09A83BA
:1007A00089838091E8008B778093E80069817A8162
:1007B0006115710541F06093010177276E5F7F4FEE
:1007C00080E091E0F8D40F900F90DF91CF910895E1
:1007D00080910802843011F4A6DFC3CF08958CDE27
:1007E000F7DFCFD4FDCF292F332723303105E1F0B8
:1007F0005CF42130310599F02230310579F589E238
:1008000090E028E832E02EC02132310511F1223289
:10081000310521F584E990E023EC32E023C082E148
:1008200090E021EB32E01EC099278130910541F024
:100830008230910541F0892B89F4E4E8F2E005C0AB
:10084000E8E7F2E002C0E0E4F2E0849190E09F018A
:1008500009C089E090E02AE932E004C080E090E03D
:1008600020E030E0FA01318320830895CF92DF92B7
:10087000EF92FF920F931F93CF93DF93EC018B01C5
:100880007A01E1D1811133C0E114F10439F0F701AB
:1008900080819181081B190BC80FD91FC12CD12C45
:1008A0000115110519F18091E80085FD16C08091B0
:1008B000E8008E778093E80064D4E114F10449F0F5
:1008C000F70180819181C80ED91ED182C08285E056
:1008D0000EC0B9D1882321F30AC089918093F10019
:1008E00001501109FFEFCF1ADF0ADACF80E0DF9164
:1008F000CF911F910F91FF90EF90DF90CF900895CF
:10090000CF92DF92EF92FF920F931F93CF93DF93DB
:10091000EC018B017A0197D1811133C0E114F1040C
:1009200039F0F70180819181081B190BC80FD91F7D
:10093000C12CD12C0115110519F18091E80085FD1C
:1009400016C08091E8008B778093E8001AD4E114F8
:10095000F10449F0F70180819181C80ED91ED1823E
:10096000C08285E00EC06FD1882321F30AC0809138
:10097000F100899301501109FFEFCF1ADF0ADACF96
:1009800080E0DF91CF911F910F91FF90EF90DF906A
:10099000CF90089520910F0230911002261737074B
:1009A00048F06115710539F42091E8002E77209305
:1009B000E80001C0B90140E061157105A9F120917D
:1009C0000802222309F443C0253009F442C02091D3
:1009D000E80023FD40C02091E80022FD32C02091B4
:1009E000E80020FFE9CF4091F3002091F20030E0D1
:1009F000342BFC01CF016115710559F0203431050C
:100A000040F481918093F100615071092F5F3F4F55
:100A1000F1CF41E02034310509F040E02091E800B9
:100A20002E772093E800C8CF4111C9CF0AC080912A
:100A30000802882361F0853061F08091E80083FD31
:100A40000AC08091E80082FFF2CF80E0089582E042
:100A5000089583E0089581E008956115710529F4F2
:100A60002091E8002B772093E800FC0161157105C7
:100A700041F180910802882361F1853061F1809114
:100A8000E80083FD24C08091E80082FFEFCF209131
:100A9000F3008091F20090E0922B892B31F080914D
:100AA000F10081936150710991F78091E8008B7793
:100AB0008093E800DBCF80910802882351F08530D5
:100AC00051F08091E80080FFF6CF80E0089581E04A
:100AD000089582E0089583E0089520910F023091F7
:100AE00010022617370748F06115710539F4209177
:100AF000E8002E772093E80001C0B901FC0120E056
:100B00006115710599F180910802882309F441C0AB
:100B1000853009F440C08091E80083FD3EC080919B
:100B2000E80082FD30C08091E80080FFE9CF20918D
:100B3000F3008091F20090E0922B6115710559F05D
:100B40008034910540F424912093F1003196615056
:100B500071090196F2CF21E08034910509F020E07F
:100B60008091E8008E778093E800CACF2111CBCF27
:100B70000AC080910802882361F0853061F080917D
:100B8000E80083FD0AC08091E80082FFF2CF80E098
:100B9000089582E0089583E0089581E00895982FF4
:100BA000973058F59093E900981739F07091EC0060
:100BB0002091ED005091F00003C0242F762F50E0DB
:100BC00021FF19C03091EB003E7F3093EB00309154
:100BD000ED003D7F3093ED003091EB0031603093BC
:100BE000EB007093EC002093ED005093F000209107
:100BF000EE0027FF07C09F5FD3CF8F708093E9007F
:100C000081E0089580E008958091090287FF11C076
:100C10008091E80082FD05C0809108028111F8CF23
:100C200011C08091E8008B770BC080910802882367
:100C300049F08091E80080FFF8CF8091E8008E773E
:100C40008093E80008952091E4003091E50095E656
:100C50004091EC00842F817040FF22C08091E80019
:100C600080FD1CC080910802882391F0853091F0AE
:100C70008091EB0085FD10C04091E4005091E500AB
:100C80004217530729F39A01915011F784E0089510
:100C900082E0089583E0089581E0089580E008955A
:100CA0004091E80042FFDECF08950F931F93CF934A
:100CB000DF934BD052D0C8EDD0E088818F77888306
:100CC00088818068888388818F7D888319BC109291
:100CD000080210920402109206021092050200EE21
:100CE00010E0F80180818B7F808388818160888318
:100CF00042E360E080E053DFE1EEF0E080818E7F50
:100D00008083E2EEF0E08081816080838081886072
:100D10008083F80180818E7F8083888180618883D1
:100D2000DF91CF911F910F910895E8EDF0E0808160
:100D30008F7E8083E7EDF0E080818160808384E0B6
:100D400082BF81E080930702B0CFE8EDF0E08081C0
:100D50008E7F80831092E20008951092DA00109244
:100D6000E10008951F920F920FB60F9211242F9356
:100D70003F934F935F936F937F938F939F93AF9323
:100D8000BF93EF93FF938091E10082FF0AC08091AF
:100D9000E20082FF06C08091E1008B7F8093E1003A
:100DA000EFD18091DA0080FF1DC08091D80080FFD4
:100DB00019C08091DA008E7F8093DA008091D9008B
:100DC00080FF0CC080E189BD82E189BD09B400FECD
:100DD000FDCF81E080930802ADDB04C019BC109206
:100DE0000802A9DB8091E10080FF18C08091E20039
:100DF00080FF14C08091E2008E7F8093E20080919A
:100E0000E20080618093E2008091D800806280934C
:100E1000D80019BC85E080930802B2D18091E1002E
:100E200084FF2FC08091E20084FF2BC080E189BD48
:100E300082E189BD09B400FEFDCF8091D8008F7D8D
:100E40008093D8008091E1008F7E8093E1008091B3
:100E5000E2008F7E8093E2008091E20081608093C7
:100E6000E20080910402882311F084E007C08091A1
:100E7000E30087FD02C081E001C083E080930802A7
:100E80007FD18091E10083FF22C08091E20083FF47
:100E90001EC08091E100877F8093E10082E0809313
:100EA0000802109204028091E1008E7F8093E1009D
:100EB0008091E2008E7F8093E2008091E200806169
:100EC0008093E20042E360E080E069DE59D1FF9167
:100ED000EF91BF91AF919F918F917F916F915F91B2
:100EE0004F913F912F910F900FBE0F901F9018952B
:100EF0001F93CF93DF93CDB7DEB7AA970FB6F894C1
:100F0000DEBF0FBECDBFE9E0F2E088E08E0F90912A
:100F1000F10091938E13FBCF17DB8091E80083FFE4
:100F200017C18091090290910A02492F50E04A307E
:100F3000510508F00DC1FA01EA5AFF4F4CC1803843
:100F400081F0823809F004C180910D028F70809386
:100F5000E9008091EB0085FB882780F91092E90079
:100F600006C08091050290910602911182609091D5
:100F7000E800977F9093E8008093F1001092F100D1
:100F8000C4C0282F2D7F09F0E3C0882319F08230D8
:100F900061F0DEC080910B02813009F0D9C093303E
:100FA00009F080E0809306022BC080910B02811132
:100FB00027C080910D028F7009F4CAC08093E900A8
:100FC0002091EB0020FF1CC0933021F48091EB00B6
:100FD000806214C09091EB0090619093EB0021E04F
:100FE00030E0A90102C0440F551F8A95E2F74093F3
:100FF000EA001092EA008091EB0088608093EB0099
:101000001092E9008091E800877F82C08111A0C022
:1010100010910B021F778091E3008078812B8093E1
:10102000E3008091E800877F8093E800EDDD809108
:10103000E80080FFFCCF8091E30080688093E300AC
:10104000111102C082E001C083E08093080280C0D9
:101050008058823008F07CC080910B0290910C0285
:101060008C3D53E0950771F583E08A838AE289839A
:101070004FB7F894DE01139620E03EE051E2E32FF3
:10108000F0E050935700E49120FF03C0E295EF7029
:101090003F5FEF708E2F90E0EA3010F0C79601C0EE
:1010A000C0968D939D932F5F243149F74FBF809158
:1010B000E800877F8093E8006AE270E0CE01019645
:1010C00069DC12C0AE014F5F5F4F60910D028BDB98
:1010D000BC01892B09F43CC09091E800977F909364
:1010E000E80089819A81F9DC8091E8008B77809310
:1010F000E8002EC0803861F58091E800877F8093FA
:10110000E800809104028093F1008091E8008E77DE
:101110008093E80079DD1CC081111AC090910B0208
:101120009230B0F48091E800877F8093E80090933C
:1011300004026ADD80910402811106C08091E300FF
:1011400087FD02C081E001C084E080930802F4D9E9
:101150008091E80083FF0AC08091E800877F809338
:10116000E8008091EB0080628093EB00AA960FB6B6
:10117000F894DEBF0FBECDBFDF91CF911F910895D0
:101180000895CF9380910802882399F0C091E900D7
:10119000CF709091EC00892F817090FD80E8C82B72
:1011A0001092E9008091E80083FDA2DECF70C09329
:1011B000E900CF910895680F791F8617970751F0BE
:1011C000FC012191CF013091C80035FFFCCF209365
:1011D000CE00F3CF0895EE0FFF1F0590F491E02DA0
:1011E0000994FB01DC0102C005900D924150504072
:0811F000D8F70895F894FFCF31
:1011F800EE000000000000000000000000000000F9
:1012080000000000000000000000000000000000D6
:1012180000000000000000000000000000000000C6
:1012280000000000000000000000000000000000B6
:1012380000000100000000007A80827D00000000AC
:101248000000000000000000000000000000000294
:10125800EE100000000002FF770180021F02020169
:041268009C000500E1
:00000001FF
