:100000001DC1000036C1000034C1000032C1000033
:1000100030C100002EC100002CC100002AC1000028
:1000200028C1000026C100007AC6000022C10000DD
:1000300020C100001EC100001CC100001AC1000048
:1000400018C1000016C1000014C1000012C1000058
:1000500010C100000EC100000CC100000AC1000068
:1000600008C1000053C1000004C1000002C100002B
:1000700000C10000FEC00000FCC00000FAC000008B
:10008000F8C00000F6C00000F4C00000F2C000009C
:10009000F0C00000EEC00000ECC00000EAC00000AC
:1000A000E8C00000E6C00000E4C000007C079E0736
:1000B0008A089E078A08E30705088A08570869081E
:1000C000032127044D002C56000000000000000012
:1000D00000000D0D00000000000000000000000006
:1000E0000000000000000000000000000000000010
:1000F000F3003838000000002A035700690072003E
:1001000065006C00650073007300200043006F0001
:100110006E00740072006F006C006C00650072006D
:1001200000003A0353006F006E0079002000430086
:100130006F006D0070007500740065007200200093
:1001400045006E0074006500720074006100690073
:100150006E006D0065006E00740000000403090469
:1001600009022900010100C0FA090400000203008D
:10017000000009211101000122A0000705840340AD
:1001800000050705030340000512010002000000FE
:1001900040EB03432000010102000105010905A114
:1001A0000185010930093109320935150026FF00A2
:1001B0007508950481020939150025073500463B6D
:1001C000016514750495018142650005091901292D
:1001D0000E150025017501950E81020600FF09200C
:1001E000750695018102050109330934150026FFC2
:1001F000007508950281020600FF092195368102EB
:1002000085050922951F910285030A2127952FB1A3
:1002100002C006F0FF0940A10185F00947953FB1F2
:100220000285F10948953FB10285F20949950FB160
:100230000285F30A01479507B102C00011241FBED1
:10024000CFEFDAE0DEBFCDBF11E0A0E0B1E0E0E249
:10025000F2E102C005900D92A434B107D9F722E073
:10026000A4E4B1E001C01D92A032B207E1F728D2A8
:10027000D5C7C6CE8091C80085FFFCCF84E48093AB
:10028000CE008091180287FF06C08091C80085FFCC
:10029000FCCF88E007C080911E02885F9091C80063
:1002A00095FFFCCF8093CE0068E070E088E192E09B
:1002B00064C79B01AC01DC01CB01B695A79597956E
:1002C0008795BC01CD0160587B47814E9F4F65D714
:1002D000215031093093CD002093CC0086E08093EB
:1002E000CA0082E08093C80088E18093C900539AD5
:1002F0005A9A0895F89498E088E10FB6F894A89572
:10030000809360000FBE90936000FFCF1F920F920A
:100310000FB60F9211242F933F934F935F936F93D8
:100320007F938F939F93AF93BF93EF93FF938091AE
:10033000CE0080938C0110928500109284008091F1
:10034000C80087FF0BC08091CE0080938B01809105
:100350008C018F3F59F423ED31E00AC08091840075
:10036000909185008137924050F307C123E931E035
:1003700030939201209391018091900190918B0193
:100380008917B8F491E0980F909390019091C8006C
:1003900097FF07C09091CE00F901E80FF11D9083FF
:1003A000EBCF40918400509185004137524070F36B
:1003B000E4C01092900180918C01853509F4DDC074
:1003C000A8F4823209F452C018F48131D9F1D6C0B0
:1003D000833309F460C0843409F0D0C081E0809395
:1003E0008A0180918B0180938901C8C0873709F405
:1003F000A8C0D0F4863609F0C1C0809193019091D5
:100400009401982789279827909347018093460164
:10041000809195019091960198278927982790932C
:10042000450180934401AAC0883809F44EC08F3F2B
:1004300009F0A4C081E080938F0180918B018093AB
:100440008E019CC08091C80085FFFCCF81E1809324
:10045000CE008091C80085FFFCCF81E08093CE0064
:100460008091C80085FFFCCF85E068C08091C800FE
:1004700085FFFCCF82E28093CE008091C80085FF8B
:10048000FCCF81E08093CE00809188019091C800DC
:1004900095FFFCCF53C08091C80085FFFCCF83E35C
:1004A0008093CE008091C80085FFFCCF81E08093CF
:1004B000CE00809188019091C80095FFFCCF809379
:1004C000CE0081E080938D0159C080918B018823FB
:1004D00009F180919301809342015B9A1092C900C7
:1004E0001092C8001092CA001092CD001092CC0059
:1004F00053985A98A0914201B0E020EA36E841E0D2
:1005000050E073D6D6DE5B988091C90080688093F6
:10051000C90034C08091C80085FFFCCF88E8809373
:10052000CE008091C80085FFFCCF81E08093CE0093
:10053000809142019091C80095FFFCCF8093CE003E
:100540001DC08091C80085FFFCCF87E78093CE0057
:100550008091C80085FFFCCF82E08093CE0080911F
:10056000C80085FFFCCF88E08093CE008091C80052
:1005700085FFFCCF1092CE0001C0BCDEFF91EF9151
:10058000BF91AF919F918F917F916F915F914F91AB
:100590003F912F910F900FBE0F901F90189514BE92
:1005A0000FB6F894A89580916000886180936000F0
:1005B000109260000FBE90E080E80FB6F894809330
:1005C0006100909361000FBE8091810084608093F0
:1005D0008100A0914201B0E020EA36E841E050E01D
:1005E00004D667DE8091C90080688093C900789442
:1005F00080918D018823E1F375C30895089542E346
:1006000061EC84E0A8D242E360EC83E0A4C284E021
:100610008093E90080918F01882399F08091E80010
:1006200080FF0FC060918E0170E040E050E083EDEC
:1006300091E0FAD010928F018091E8008E7780933C
:10064000E8000895CF93DF9300D0CDB7DEB783E005
:100650008093E9008091E80082FF26C01A82198207
:10066000109201018091E80085FF0FC0AE014F5F3D
:100670005F4F60E470E082E091E020D1882311F0C8
:10068000898101C080E4809301018091E8008B772B
:100690008093E80060910101662331F070E06E5FA5
:1006A0007F4F80E091E069D50F900F90DF91CF915F
:1006B000089580911702843011F4A9DFC3CF089503
:1006C0006EDFF7DF40D5FDCF80911902813021F038
:1006D000893009F443C0089580911802813A09F0E5
:1006E00061C080911A0290911B02833023E092072F
:1006F00051F48091E800877F8093E80060E370E028
:1007000080EC90E00DC0833F23E0920781F480915C
:10071000E800877F8093E80068E070E080EF90E079
:10072000B8D18091E8008B778093E8000895815FCD
:1007300093400297B8F510928A019CDD80918A015E
:100740008823E1F38091E800877F8093E80060913F
:10075000890170E083E991E0FBD0E3CF809118023A
:10076000813201F58091E800877F8093E8006091F5
:100770001E0270911F0288E491E04BD18091E80045
:100780008E778093E80080911A0290911B02803F3F
:10079000934041F46FDD60911E0270911F0288E466
:1007A00091E0EBC40895292F332723303105E1F080
:1007B00058F42130310599F02230310569F589E28C
:1007C00090E020E631E02CC02132310501F12232E7
:1007D000310511F580EA90E02BE931E021C082E19A
:1007E00090E029E831E01CC099278130910549F05B
:1007F00028F0029789F4E8EFF0E005C0ECE5F1E0BD
:1008000002C0E2E2F1E0849190E09F0109C089E03A
:1008100090E022E731E004C080E090E020E030E0AA
:10082000FA01318320830895CF92DF92EF92FF92F5
:100830000F931F93CF93DF93EC018B017A01DFD1EC
:10084000811133C0E114F10439F0F7018081918105
:10085000081B190BC80FD91FC12CD12C011511056C
:1008600019F18091E80085FD16C08091E8008E772F
:100870008093E80068D4E114F10449F0F701808125
:100880009181C80ED91ED182C08285E00EC0B7D139
:10089000882321F30AC089918093F1000150110946
:1008A000FFEFCF1ADF0ADACF80E0DF91CF911F91FF
:1008B0000F91FF90EF90DF90CF900895CF92DF924D
:1008C000EF92FF920F931F93CF93DF93EC018B0175
:1008D0007A0195D1811133C0E114F10439F0F701A7
:1008E00080819181081B190BC80FD91FC12CD12CF5
:1008F0000115110519F18091E80085FD16C0809160
:10090000E8008B778093E8001ED4E114F10449F0ED
:10091000F70180819181C80ED91ED182C08285E005
:100920000EC06DD1882321F30AC08091F100899314
:1009300001501109FFEFCF1ADF0ADACF80E0DF9113
:10094000CF911F910F91FF90EF90DF90CF9008957E
:1009500020911E0230911F022617370748F06115BB
:10096000710539F42091E8002E772093E80001C04A
:10097000B901FC0120E06115710591F18091170228
:10098000882309F440C0853009F43FC08091E80015
:1009900083FD3DC08091E80082FD2FC08091E8007A
:1009A00080FFE9CF2091F3008091F20090E0922B3C
:1009B0006115710551F08034910538F4219120932F
:1009C000F100615071090196F3CF21E08034910567
:1009D00009F020E08091E8008E778093E800CBCF8B
:1009E0002111CCCF0AC080911702882361F0853095
:1009F00061F08091E80083FD0AC08091E80082FFE9
:100A0000F2CF80E0089582E0089583E0089581E0C8
:100A100008956115710529F42091E8002B77209342
:100A2000E800FC016115710541F1809117028823EE
:100A300061F1853061F18091E80083FD24C08091EF
:100A4000E80082FFEFCF2091F3008091F20090E068
:100A5000922B892B31F08091F100819361507109C3
:100A600091F78091E8008B778093E800DBCF80914D
:100A70001702882351F0853051F08091E80080FF03
:100A8000F6CF80E0089581E0089582E0089583E044
:100A9000089520911E0230911F022617370748F053
:100AA0006115710539F42091E8002E772093E80054
:100AB00001C0B901FC0120E06115710599F1809137
:100AC0001702882309F441C0853009F440C08091A1
:100AD000E80083FD3EC08091E80082FD30C0809137
:100AE000E80080FFE9CF2091F3008091F20090E0D0
:100AF000922B6115710559F08034910540F42491D1
:100B00002093F1003196615071090196F2CF21E0F6
:100B10008034910509F020E08091E8008E77809381
:100B2000E800CACF2111CBCF0AC0809117028823D9
:100B300061F0853061F08091E80083FD0AC080910A
:100B4000E80082FFF2CF80E0089582E0089583E01C
:100B5000089581E00895982F973068F59093E90003
:100B6000981739F07091EC002091ED005091F00051
:100B700003C0242F762F50E021FD02C09F5FECCFF1
:100B80003091EB003E7F3093EB003091ED003D7FE4
:100B90003093ED003091EB0031603093EB007093B7
:100BA000EC002093ED005093F0002091EE0027FD23
:100BB000E5CF80E008958F708093E90081E008958B
:100BC0008091180287FF11C08091E80082FD05C066
:100BD000809117028111F8CF11C08091E8008B77C6
:100BE0000BC080911702882349F08091E80080FFB4
:100BF000F8CF8091E8008E778093E80008952091E7
:100C0000E4003091E50095E64091EC00842F81707E
:100C100040FF23C08091E80080FD1DC08091170235
:100C2000882399F0853099F08091EB0085FD11C003
:100C30004091E4005091E5002417350729F39150C5
:100C400011F09A01E1CF84E0089582E0089583E0F5
:100C5000089581E0089580E008954091E80042FF02
:100C6000DDCF08950F931F93CF93DF934BD052D0D6
:100C7000C8EDD0E088818F778883888180688883F9
:100C800088818F7D888319BC1092170210921302FD
:100C9000109215021092140200EE10E0F80180810B
:100CA0008B7F808388818160888342E360E080E07D
:100CB00052DFE1EEF0E080818E7F8083E2EEF0E0B3
:100CC000808181608083808188608083F801808159
:100CD0008E7F8083888180618883DF91CF911F918F
:100CE0000F910895E8EDF0E080818F7E8083E7ED3D
:100CF000F0E080818160808384E082BF81E0809326
:100D00001602B0CFE8EDF0E080818E7F80831092F4
:100D1000E20008951092DA001092E10008951F9207
:100D20000F920FB60F9211242F933F934F935F931F
:100D30006F937F938F939F93AF93BF93EF93FF93A3
:100D40008091E10082FF0AC08091E20082FF06C02C
:100D50008091E1008B7F8093E100F4D18091DA00F3
:100D600080FF1DC08091D80080FF19C08091DA00FB
:100D70008E7F8093DA008091D90080FF0CC080E1E3
:100D800089BD82E189BD09B400FEFDCF81E0809379
:100D9000170233DC04C019BC109217022FDC8091BB
:100DA000E10080FF18C08091E20080FF14C08091B4
:100DB000E2008E7F8093E2008091E2008061809368
:100DC000E2008091D80080628093D80019BC85E051
:100DD00080931702B7D18091E10084FF2FC08091EA
:100DE000E20084FF2BC080E189BD82E189BD09B4A6
:100DF00000FEFDCF8091D8008F7D8093D800809138
:100E0000E1008F7E8093E1008091E2008F7E8093ED
:100E1000E2008091E20081608093E2008091130201
:100E2000882311F084E007C08091E30087FD02C0B1
:100E300081E001C083E08093170284D18091E100BA
:100E400083FF22C08091E20083FF1EC08091E100F9
:100E5000877F8093E10082E0809317021092130253
:100E60008091E1008E7F8093E1008091E2008E7F8F
:100E70008093E2008091E20080618093E20042E38F
:100E800060E080E068DE5ED1FF91EF91BF91AF91AD
:100E90009F918F917F916F915F914F913F912F9192
:100EA0000F900FBE0F901F9018951F93CF93DF9355
:100EB000CDB7DEB7AA970FB6F894DEBF0FBECDBF91
:100EC000E8E1F2E08091F100819322E0E032F20764
:100ED000C9F7FADB8091E80083FF1CC180911802FA
:100EE00090911902492F50E04A30510508F012C183
:100EF000FA01EA5AFF4F73C1803881F0823809F055
:100F000009C180911C028F708093E9008091EB00F1
:100F100085FB882780F91092E90006C080911402B1
:100F200090911502911182609091E800977F9093C3
:100F3000E8008093F1001092F100C4C0282F2D7FAB
:100F400009F0E8C0882319F0823061F0E3C0809195
:100F50001A02813009F0DEC0933009F080E08093FE
:100F600015022BC080911A02811127C080911C02AA
:100F70008F7009F4CFC08093E9002091EB0020FF2F
:100F80001CC0933021F48091EB00806214C09091DA
:100F9000EB0090619093EB0021E030E0A90102C0EA
:100FA000440F551F8A95E2F74093EA001092EA0039
:100FB0008091EB0088608093EB001092E9008091B3
:100FC000E800877F82C08111A5C010911A021F77A7
:100FD0008091E3008078812B8093E3008091E8008A
:100FE000877F8093E800ECDD8091E80080FFFCCFF4
:100FF0008091E30080688093E300111102C082E0D9
:1010000001C083E08093170285C08058823008F0C9
:1010100081C080911A0290911B028C3D53E095078C
:1010200071F583E08A838AE289834FB7F894DE0101
:10103000139620E03EE051E2E32FF0E0509357009A
:10104000E49120FF03C0E295EF703F5FEF708E2FB9
:1010500090E0EA3010F0C79601C0C0968D939D9342
:101060002F5F243149F74FBF8091E800877F80933D
:10107000E8006AE270E0CE0101966ADC12C0AE01BF
:101080004F5F5F4F60911C028EDBBC01892B09F41E
:1010900041C09091E800977F9093E80089819A8100
:1010A000F8DC8091E8008B778093E80033C08038CB
:1010B00089F58091E800877F8093E8008091130292
:1010C0008093F1008091E8008E778093E80078DDCE
:1010D00021C081111FC080911A0290911B02992793
:1010E0000297C4F48091E800877F8093E8008091A4
:1010F0001A028093130264DD80911302811106C0ED
:101100008091E30087FD02C081E001C084E080930C
:10111000170275DA8091E80083FF0AC08091E80029
:10112000877F8093E8008091EB0080628093EB00E2
:10113000AA960FB6F894DEBF0FBECDBFDF91CF9158
:101140001F9108950895CF9380911702882399F0F5
:10115000C091E900CF709091EC00892F817090FDD3
:1011600080E8C82B1092E9008091E80083FD9DDEA5
:10117000CF70C093E900CF910895680F791F86174B
:10118000970751F0FC012191CF013091C80035FF44
:10119000FCCF2093CE00F3CF0895A1E21A2EAA1B14
:1011A000BB1BFD010DC0AA1FBB1FEE1FFF1FA21717
:1011B000B307E407F50720F0A21BB30BE40BF50B14
:1011C000661F771F881F991F1A9469F7609570959D
:1011D000809590959B01AC01BD01CF010895EE0F64
:1011E000FF1F0590F491E02D099409D0A59F900D63
:1011F000B49F900DA49F800D911D11240895A29F6E
:10120000B001B39FC001A39F700D811D1124911DDA
:10121000B29F700D811D1124911D0895F894FFCF88
:10122000EE000000000000000000000000000000D0
:1012300000000000000000000000000000000000AE
:10124000000000000000000000000000000000009E
:10125000000000000000000000000000000000008E
:041260000000050085
:00000001FF
