:10000000ABC10000C4C10000C2C10000C0C10000FB
:10001000BEC10000BCC10000BAC10000B8C10000F0
:10002000B6C10000B4C1000069C60000B0C1000044
:10003000AEC10000ACC10000AAC10000A8C1000010
:10004000A6C10000A4C10000A2C10000A0C1000020
:100050009EC100009CC100009AC1000098C1000030
:1000600096C1000095C1000092C1000090C100003F
:100070008EC100008CC100008AC1000088C1000050
:1000800086C1000084C1000082C1000080C1000060
:100090007EC100007CC100007AC1000078C1000070
:1000A00076C1000074C1000072C100006B078D07AB
:1000B00071088D077108CF07F107710843085508CB
:1000C0000104C402D601EEFF14130102C401D600DC
:1000D00000020202000300000200000262010201AD
:1000E0005E00320000000000000000000000000080
:1000F00005000000000000000000000000000000FB
:1001000000010000070301B0000000000000000033
:1001100000026B0268000000000000000000000008
:1001200000000000000000000000000000000000CF
:1001300005000000000000000000000000000000BA
:1001400000EF0400070301B0000000000000000001
:1001500000026B02680000000000000000000000C8
:10016000000000000000000000000000000000008F
:10017000050000000000000000000000000000007A
:100180000100AAAAAAAAAAAAFFF700035081D801CF
:100190008A130000000004000202020200000004B2
:1001A000040404000004000102070017000000001E
:1001B000000000000000000000000000000000003F
:1001C000F2FFFF0001020304050600035081D8017D
:1001D0008A13000000000400020202020000000472
:1001E00004040400000400010207001700000000DE
:1001F00000000000000000000000000000000000FF
:1002000000010400070C010218181818090A10113F
:1002100012130000000004000202020200000004A9
:10022000040404000004000102070017000000009D
:1002300000000000000000000000000000000000BE
:10024000360350004C004100590053005400410057
:10025000540049004F004E0028005200290033008E
:10026000200043006F006E00740072006F006C008D
:100270006C006500720000000C0353006F006E00FC
:10028000790000000403090409022900010100802B
:10029000FA09040000020300000009211101000115
:1002A0002294000705810340000107050203400076
:1002B0000112010002000000404C0568020001012B
:1002C00002000105010904A101A10285017508953B
:1002D00001150026FF008103750195131500250106
:1002E0003500450105091901291381027501950D94
:1002F0000600FF8103150026FF0005010901A1008A
:1003000075089504350046FF0009300931093209A6
:10031000358102C00501750895270901810275081C
:10032000953009019102750895300901B102C0A10B
:10033000028502750895300901B102C0A10285EE5F
:10034000750895300901B102C0A10285EF750895C5
:10035000300901B102C0C00011241FBECFEFDAE0A6
:10036000DEBFCDBF11E0A0E0B1E0EEE8F1E102C0F8
:1003700005900D92A437B107D9F712E0A4E7B1E0D8
:1003800001C01D92A031B107E1F7F9D1FEC638CE08
:100390001F920F920FB60F9211242F933F938F93BA
:1003A0009F93EF93FF938091CE008093F50180910E
:1003B000C80087FFFCCF8091CE008093F40180912C
:1003C000F5018F3F19F482E491E002C084EB91E0E3
:1003D0009093FA018093F9018091F9019091FA01CB
:1003E0002091F8013091F401231778F431E0320FB5
:1003F0003093F801FC01E20FF11D2091C80027FFA6
:10040000FCCF2091CE002083EBCF1092F801809199
:10041000F501823209F118F4813151F04DC0833376
:1004200091F18F3F09F048C081E08093F70144C00B
:100430008091C80085FFFCCF81E18093CE00809140
:10044000C80085FFFCCF81E08093CE008091C8007A
:1004500085FFFCCF82E014C08091C80085FFFCCFEF
:1004600082E28093CE008091C80085FFFCCF81E0BE
:100470008093CE008091F6019091C80095FFFCCF4B
:100480008093CE0019C08091C80085FFFCCF83E324
:100490008093CE008091C80085FFFCCF81E08093DF
:1004A000CE008091F6019091C80095FFFCCF80931B
:1004B000CE0081E08093F601FF91EF919F918F91A3
:1004C0003F912F910F900FBE0F901F90189581E0D4
:1004D00090E09093CD008093CC0086E08093CA009A
:1004E0001092C800E9ECF0E088E18083539A5A9AB0
:1004F000808180688083089584B7877F84BF88E186
:100500000FB6F89480936000109260000FBE90E0E8
:1005100080E80FB6F89480936100909361000FBE5D
:10052000D6DF78948091F6018823E1F3CAC3089559
:10053000089542E361EC81E0FED242E360EC82E0A8
:10054000FAC2CF93C0910902C13021F0C93009F439
:1005500077C0BBC080910802813A09F0B6C02091F3
:100560000A0230910B02333009F0AFC0C90199275C
:10057000823F910509F499C064F48130910509F432
:1005800091C08F3E9105A9F540E450E060E471E030
:1005900025C0873F910551F1883F9105D9F0853FEE
:1005A000910539F540E450E060E871E084E791E0BE
:1005B000E3D58091FB01811103C0C093FB012EC0E4
:1005C00086E0EDEFF1E0A6E7B1E001900D928A95AB
:1005D000E1F724C040E450E060E071E084E791E09E
:1005E000CBD58091FC0180937B0118C080EC90E01A
:1005F0005EC08091C80085FFFCCF89E98093CE0062
:100600008091C80085FFFCCF81E08093CE0080916F
:10061000C80085FFFCCF2093CE0057C08091E80032
:10062000877F8093E80060910E0270910F0284E74B
:1006300091E07CD18091E8008B778093E80045C001
:1006400080910802813209F040C08091E800877FE4
:100650008093E80060910E0270910F0284E791E0B0
:10066000C7D18091E8008E778093E80080910A02DC
:1006700090910B02933049F599278F3E910569F0CF
:10068000853F910511F586E0E6E7F1E0ADEFB1E0D9
:1006900001900D928A95E1F718C080917A018093BC
:1006A000FC0113C080E092E002C080EC91E0009772
:1006B00009F4B4CF2091E800277F2093E8006091EF
:1006C0000E0270910F02D4D1B5CFCF91089581E081
:1006D0008093E9008091F701882391F08091E800F0
:1006E00080FFFCCF40E050E061E370E082E491E005
:1006F0008DD01092F7018091E8008E778093E8000A
:100700000895CF93DF9300D0CDB7DEB71A82198258
:1007100082E08093E9008091E80082FF24C080910C
:10072000E80085FF0EC0AE014F5F5F4F60E470E0F0
:1007300082E091E0B3D0811104C080E490E09A831C
:1007400089838091E8008B778093E80069817A81C2
:100750006115710541F06093010177276E5F7F4F4E
:1007600080E091E0F3D40F900F90DF91CF91089546
:1007700080910702843011F4AADFC3CF0895BCDE54
:10078000F7DFC8D4FDCF292F332723303105B9F047
:100790005CF42130310569F12230310579F589E2C7
:1007A00090E028E832E02EC021323105E9F0223213
:1007B000310521F584E990E023EC32E023C099274C
:1007C0008130910541F08230910541F0892BB1F4DF
:1007D000E4E8F2E005C0E8E7F2E002C0E0E4F2E0BD
:1007E000849190E09F010EC089E090E02AE932E018
:1007F00009C082E190E021EB32E004C080E090E0AB
:1008000020E030E0FA01318320830895CF92DF9217
:10081000EF92FF920F931F93CF93DF937C018B0195
:10082000EA01DFD1811131C0209731F088819981AF
:10083000081B190BE80EF91EC12CD12C011511054E
:1008400019F18091E80085FD14C08091E8008E7751
:100850008093E8005FD4209741F0888199818C0DC6
:100860009D1D9983888385E010C0BBD1882331F317
:100870000CC0F70181917F018093F10001501109B3
:10088000FFEFCF1ADF0ADACF80E0DF91CF911F911F
:100890000F91FF90EF90DF90CF900895CF92DF926D
:1008A000EF92FF920F931F93CF93DF937C018B0105
:1008B000EA0197D1811131C0209731F08881998167
:1008C000081B190BE80EF91EC12CD12C01151105BE
:1008D00019F18091E80085FD14C08091E8008B77C4
:1008E0008093E80017D4209741F0888199818C0D7E
:1008F0009D1D9983888385E010C073D1882331F3CF
:100900000CC08091F100F70181937F010150110922
:10091000FFEFCF1ADF0ADACF80E0DF91CF911F918E
:100920000F91FF90EF90DF90CF90089520910E02ED
:1009300030910F022617370748F06115710539F419
:100940002091E8002E772093E80001C0B901FC0156
:1009500020E061157105C1F180910702882309F437
:1009600041C0853009F440C08091E80083FD3EC05D
:100970008091E80082FF06C08091E80082FF27C0D6
:1009800080E008958091E80080FFE3CF2091F3009C
:100990008091F20090E0922B6115710551F0803446
:1009A000910538F421912093F1006150710901966D
:1009B000F3CF21E08034910509F020E08091E80038
:1009C0008E778093E800C5CF2111C6CFD5CF809117
:1009D0000702882339F0853039F08091E80083FFE1
:1009E000CBCF04C082E0089583E0089581E00895AC
:1009F0006115710529F42091E8002B772093E80018
:100A00006115710541F120910702222369F125301A
:100A100069F12091E80023FD23C02091E80022FF26
:100A2000F2CFFC01CF014091F3002091F20030E0C1
:100A3000342B232B01F38091F1008193CF0161507E
:100A400071096115710571F7D6CF8091070288236E
:100A500059F0853059F08091E80080FFF6CF02C050
:100A600081E0089580E0089582E0089583E008958C
:100A700020910E0230910F022617370748F06115BA
:100A8000710539F42091E8002E772093E80001C029
:100A9000B901FC0120E061157105C9F180910702DF
:100AA000882309F442C0853009F441C08091E800F0
:100AB00083FD3FC08091E80082FF06C08091E8007E
:100AC00082FF28C080E008958091E80080FFE3CF96
:100AD0002091F3008091F20090E0922B6115710556
:100AE00059F08034910540F424912093F10031961F
:100AF000615071090196F2CF21E08034910509F02F
:100B000020E08091E8008E778093E800C4CF211127
:100B1000C5CFD4CF80910702882339F0853039F0D2
:100B20008091E80083FFCACF04C082E0089583E08B
:100B3000089581E00895982F973058F59093E90033
:100B4000981739F07091EC002091ED005091F00071
:100B500003C0242F762F50E021FF19C03091EB0005
:100B60003E7F3093EB003091ED003D7F3093ED0000
:100B70003091EB0031603093EB007093EC002093E8
:100B8000ED005093F0002091EE0027FF07C09F5F1B
:100B9000D3CF8F708093E90081E0089580E00895BD
:100BA0008091080287FD05C08091E80080FF0EC09B
:100BB00012C08091E80082FD05C08091070281117A
:100BC000F8CF08958091E8008B7708C080910702E4
:100BD0008111EACF08958091E8008E778093E80034
:100BE00008958091E4009091E50045E62091EC00A5
:100BF00020FF21C02091E80020FD21C020910702A4
:100C0000222389F0253089F02091EB0025FD0FC0CB
:100C10002091E4003091E5002817390739F341505D
:100C200041F0C901E3CF82E0089583E0089581E0B7
:100C3000089584E008952091E80022FFDFCF80E04E
:100C400008950F931F93CF93DF934BD052D0C8EDED
:100C5000D0E088818F7788838881806888838881C5
:100C60008F7D888319BC10920702109203021092A4
:100C700005021092040200EE10E0F80180818B7FE3
:100C8000808388818160888342E360E080E053DF75
:100C9000E1EEF0E080818E7F8083E2EEF0E0808103
:100CA00081608083808188608083F80180818E7F6D
:100CB0008083888180618883DF91CF911F910F911C
:100CC0000895E8EDF0E080818F7E8083E7EDF0E02D
:100CD00080818160808384E082BF81E0809306020E
:100CE000B0CFE8EDF0E080818E7F80831092E2004B
:100CF00008951092DA001092E10008951F920F9269
:100D00000FB60F9211242F933F934F935F936F93DE
:100D10007F938F939F93AF93BF93EF93FF938091B4
:100D2000E10082FF0AC08091E20082FF06C080914C
:100D3000E1008B7F8093E100ECD18091DA0080FFAD
:100D40001DC08091D80080FF19C08091DA008E7F8D
:100D50008093DA008091D90080FF0CC080E189BDCA
:100D600082E189BD09B400FEFDCF81E080930702D6
:100D7000DEDB04C019BC10920702DADB8091E100CF
:100D800080FF18C08091E20080FF14C08091E200D3
:100D90008E7F8093E2008091E20080618093E20088
:100DA0008091D80080628093D80019BC85E0809340
:100DB0000702AFD18091E10084FF2FC08091E20053
:100DC00084FF2BC080E189BD82E189BD09B400FEAA
:100DD000FDCF8091D8008F7D8093D8008091E10075
:100DE0008F7E8093E1008091E2008F7E8093E2000D
:100DF0008091E20081608093E20080910302882369
:100E000011F084E007C08091E30087FF02C083E017
:100E100001C081E0809307027CD18091E10083FFD3
:100E200022C08091E20083FF1EC08091E100877F95
:100E30008093E10082E08093070210920302809188
:100E4000E1008E7F8093E1008091E2008E7F8093AD
:100E5000E2008091E20080618093E20042E360E082
:100E600080E069DE56D1FF91EF91BF91AF919F91E4
:100E70008F917F916F915F914F913F912F910F9043
:100E80000FBE0F901F9018951F93CF93DF93CDB790
:100E9000DEB7AA970FB6F894DEBF0FBECDBFE8E06D
:100EA000F2E08091F100819322E0E031F207C9F78E
:100EB00048DB8091E80083FF14C120910802309143
:100EC0000902832F90E08A30910508F00AC1FC01E5
:100ED000EA5AFF4F4BC1203881F0223809F001C196
:100EE00080910C028F708093E9008091EB0085FB6C
:100EF000882780F91092E90006C080910402909141
:100F00000502911182609091E800977F9093E8002C
:100F10008093F1001092F100C1C0822F8D7F09F003
:100F2000E0C0222319F0223061F0DBC080910A0278
:100F3000813009F0D6C0333009F080E0809305029B
:100F400028C080910A02811124C020910C022F70C8
:100F500009F4C7C02093E9008091EB0080FF19C01D
:100F60008091EB00333011F4806211C08061809376
:100F7000EB0081E090E0022E01C0880F0A94EAF7AE
:100F80008093EA001092EA008091EB0088608093E1
:100F9000EB001092E9008091E800877F82C0211168
:100FA000A0C010910A021F778091E3008078812B06
:100FB0008093E3008091E800877F8093E800F0DD74
:100FC0008091E80080FFFCCF8091E30080688093EF
:100FD000E300112311F083E001C082E08093070257
:100FE00080C02058223008F07CC080910A02909185
:100FF0000B028C3D23E0920771F583E08A838AE23D
:1010000089834FB7F894DE01139620E03EE051E269
:10101000E32FF0E050935700E49120FF03C0E295E6
:10102000EF703F5FEF708E2F90E0EA3010F0C796C0
:1010300001C0C0968D939D932F5F243149F74FBF18
:101040008091E800877F8093E8006AE270E0CE013B
:1010500001966CDC12C0AE014F5F5F4F60910C02D5
:1010600092DB009709F43DC02091E800277F209390
:10107000E800BC0189819A81FBDC8091E8008B77D4
:101080008093E8002EC0203861F58091E800877FCA
:101090008093E800809103028093F1008091E80042
:1010A0008E778093E8007CDD1CC021111AC09091DE
:1010B0000A029230B0F48091E800877F8093E800C4
:1010C000909303026DDD80910302811104C0809131
:1010D000E30087FF02C084E001C081E08093070243
:1010E00028DA8091E80083FF0AC08091E800877FBA
:1010F0008093E8008091EB0080628093EB00AA96D9
:101100000FB6F894DEBF0FBECDBFDF91CF911F9118
:1011100008950895CF93809107028823A9F08091C4
:10112000E9008F709091EC0090FF02C090E801C040
:1011300090E0C92FC82B1092E9008091E80083FD50
:10114000A3DECF70C093E900CF910895680F791F97
:101150008617970751F0FC012191CF013091C8000B
:1011600035FFFCCF2093CE00F3CF0895EE0FFF1F85
:101170000590F491E02D0994FB01DC0102C005907B
:0E1180000D9241505040D8F70895F894FFCFDB
:10118E00EE00000000000000000000000000000063
:10119E000000000000000000000000000000000041
:1011AE000000000000000000000000000000000031
:1011BE000000000000000000000000000000000021
:1011CE0000000100000000007A80827D0000000017
:1011DE0000000000000000000000000000000002FF
:1011EE00EE100000000002FF770180021F020201D4
:0411FE009C0005004C
:00000001FF
