:10000000ABC10000C5C10000C3C10000C1C10000F8
:10001000BFC10000BDC10000BBC10000B9C10000EC
:10002000B7C10000B5C1000066C70000B1C1000043
:10003000AFC10000ADC10000ABC10000A9C100000C
:10004000A7C10000A5C10000A3C10000A1C100001C
:100050009FC100009DC100009BC1000099C100002C
:1000600097C10000C3C1000093C1000091C100000E
:100070008FC100008DC100008BC1000089C100004C
:1000800087C1000085C1000083C1000081C100005C
:100090007FC100007DC100007BC1000079C100006C
:1000A00077C1000075C1000073C1000068088A08AC
:1000B00076098A087609CF08F108760943095509B7
:1000C0000104C402D601EEFF14130102C401D600DC
:1000D00000020202000300000200000262010201AD
:1000E0005E00320000000000000000000000000080
:1000F00005000000000000000000000000000000FB
:1001000000010000070301B0000000000000000033
:1001100000026B0268000000000000000000000008
:1001200000000000000000000000000000000000CF
:1001300005000000000000000000000000000000BA
:1001400000EF0400070301B0000000000000000001
:1001500000026B02680000000000000000000000C8
:10016000000000000000000000000000000000008F
:10017000050000000000000000000000000000007A
:100180000100AAAAAAAAAAAAFFF700035081D801CF
:100190008A130000000004000202020200000004B2
:1001A000040404000004000102070017000000001E
:1001B000000000000000000000000000000000003F
:1001C000F2FFFF0001020304050600035081D8017D
:1001D0008A13000000000400020202020000000472
:1001E00004040400000400010207001700000000DE
:1001F00000000000000000000000000000000000FF
:1002000000010400070C010218181818090A10113F
:1002100012130000000004000202020200000004A9
:10022000040404000004000102070017000000009D
:1002300000000000000000000000000000000000BE
:10024000360350004C004100590053005400410057
:10025000540049004F004E0028005200290033008E
:10026000200043006F006E00740072006F006C008D
:100270006C006500720000000C0353006F006E00FC
:10028000790000000403090409022900010100802B
:10029000FA09040000020300000009211101000115
:1002A0002294000705810340000107050203400076
:1002B0000112010002000000404C0568020001012B
:1002C00002000105010904A101A10285017508953B
:1002D00001150026FF008103750195131500250106
:1002E0003500450105091901291381027501950D94
:1002F0000600FF8103150026FF0005010901A1008A
:1003000075089504350046FF0009300931093209A6
:10031000358102C00501750895270901810275081C
:10032000953009019102750895300901B102C0A10B
:10033000028502750895300901B102C0A10285EE5F
:10034000750895300901B102C0A10285EF750895C5
:10035000300901B102C0C00011241FBECFEFDAE0A6
:10036000DEBFCDBF11E0A0E0B1E0EAE0F4E102C001
:1003700005900D92A434B107D9F722E0A4E4B1E0CE
:1003800001C01D92A832B207E1F70AD20C94030A09
:1003900037CE9B01AC01DC01CB01B695A7959795B3
:1003A0008795BC01CD0160587B47814E9F4FE1D7B7
:1003B000215031093093CD002093CC0086E080930A
:1003C000CA0082E08093C80088E18093C900539AF4
:1003D0005A9A0895F89498E088E10FB6F894A89591
:1003E000809360000FBE90936000FFCF1F920F922A
:1003F0000FB60F9211242F933F934F935F936F93F8
:100400007F938F939F93AF93BF93EF93FF938091CD
:10041000CE00809394011092850010928400809108
:10042000C80087FF0BC08091CE008093930180911C
:1004300094018F3F59F42BED31E00AC08091840084
:10044000909185008137924050F307C12BE931E04C
:1004500030939A0120939901809198019091930192
:100460008917B8F491E0980F909398019091C80083
:1004700097FF07C09091CE00F901E80FF11D90831E
:10048000EBCF40918400509185004137524070F38A
:10049000E4C01092980180919401853509F4DDC083
:1004A000A8F4823209F452C018F48131D9F1D6C0CF
:1004B000833309F460C0843409F0D0C081E08093B4
:1004C00092018091930180939101C8C0873709F40C
:1004D000A8C0D0F4863609F0C1C080919B019091EC
:1004E0009C0198278927982790934701809346017C
:1004F00080919D0190919E0198278927982790933C
:10050000450180934401AAC0883809F44EC08F3F4A
:1005100009F0A4C081E080939701809193018093BA
:1005200096019CC08091C80085FFFCCF81E180933B
:10053000CE008091C80085FFFCCF81E08093CE0083
:100540008091C80085FFFCCF82E068C08091C80020
:1005500085FFFCCF82E28093CE008091C80085FFAA
:10056000FCCF81E08093CE00809190019091C800F3
:1005700095FFFCCF53C08091C80085FFFCCF83E37B
:100580008093CE008091C80085FFFCCF81E08093EE
:10059000CE00809190019091C80095FFFCCF809390
:1005A000CE0081E08093950159C08091930188230A
:1005B00009F180919B01809342015B9A1092C900DE
:1005C0001092C8001092CA001092CD001092CC0078
:1005D00053985A98A0914201B0E020EA36E841E0F1
:1005E00050E0EFD6D6DE5B988091C900806880939A
:1005F000C90034C08091C80085FFFCCF88E8809393
:10060000CE008091C80085FFFCCF81E08093CE00B2
:10061000809142019091C80095FFFCCF8093CE005D
:100620001DC08091C80085FFFCCF87E78093CE0076
:100630008091C80085FFFCCF82E08093CE0080913E
:10064000C80085FFFCCF88E08093CE008091C80071
:1006500085FFFCCF1092CE0001C0BCDEFF91EF9170
:10066000BF91AF919F918F917F916F915F914F91CA
:100670003F912F910F900FBE0F901F90189514BEB1
:100680000FB6F894A895809160008861809360000F
:10069000109260000FBE90E080E80FB6F89480934F
:1006A0006100909361000FBE80918100846080930F
:1006B0008100A0914201B0E020EA36E841E050E03C
:1006C00080D667DE8091C90080688093C9007894E5
:1006D000809195018823E1F3F1C30895089542E3E1
:1006E00061EC81E024D342E360EC82E020C381E04E
:1006F0008093E90080919701882399F08091E80028
:1007000080FF0FC06091960170E040E050E08BEDFB
:1007100091E076D1109297018091E8008E778093D6
:10072000E8000895CF93DF9300D0CDB7DEB782E025
:100730008093E9008091E80082FF26C01A82198226
:10074000109201018091E80085FF0FC0AE014F5F5C
:100750005F4F60E470E082E091E09CD1882311F06B
:10076000898101C080E4809301018091E8008B774A
:100770008093E80060910101662331F070E06E5FC4
:100780007F4F80E091E0E5D50F900F90DF91CF9102
:10079000089580911F02843011F4A9DFC3CF08951A
:1007A0006EDFF7DFBCD5FDCFCF93C0912102C13002
:1007B00021F0C93009F466C0E0C080912002813A7E
:1007C00009F0DBC02091220230912302333009F07E
:1007D000D4C0C9019927823F9105C1F060F48130EE
:1007E000910509F4B6C08F3E9105B9F540E450E09B
:1007F00060E471E02AC0873F910509F4ADC0883FED
:100800009105F9F0853F910541F503C080EC91E039
:10081000A5C040E450E060E871E088E491E0EAD5EA
:1008200080918801811103C0C093880185C086E052
:10083000EAE8F1E0AAE4B1E001900D928A95E1F7CF
:100840007BC040E450E060E071E088E491E0D2D504
:100850008091890180934F016FC08091C80085FF0E
:10086000FCCF89E98093CE008091C80085FFFCCF42
:1008700081E08093CE008091C80085FFFCCF20935B
:10088000CE007BC080912002813209F076C0809139
:10089000E800877F8093E80060912602709127022C
:1008A00088E491E0A2D19091E8009E779093E800CF
:1008B000811163C080912202909123029330B9F498
:1008C00099278F3E910571F0853F910509F055C03C
:1008D00086E0EAE4F1E0AAE8B1E001900D928A95A1
:1008E000E1F74BC080914E018093890146C0923060
:1008F00009F043C0813009F040C08091C80085FFF5
:10090000FCCF8EEE8093CE00809126028F5F909177
:10091000C80095FFFCCF8093CE008091C80085FF72
:10092000FCCF81E08093CE00609126027091270277
:1009300088E491E0CF910DC58091E800877F809396
:10094000E800609126027091270288E491E0ECD0E3
:100950000FC080E092E002C080EC90E02091E800BF
:10096000277F2093E80060912602709127027DD1B5
:100970008091E8008B778093E800CF910895292F2C
:10098000332723303105E1F058F42130310599F057
:100990002230310569F589E290E028E832E02CC088
:1009A0002132310501F12232310511F584E990E05F
:1009B00023EC32E021C082E190E021EB32E01CC068
:1009C00099278130910549F028F0029789F4E0E4F5
:1009D000F2E005C0E4E8F2E002C0E8E7F2E084916A
:1009E00090E09F0109C089E090E02AE932E004C06C
:1009F00080E090E020E030E0FA0131832083089528
:100A0000CF92DF92EF92FF920F931F93CF93DF93DA
:100A1000EC018B017A01DFD1811133C0E114F104C3
:100A200039F0F70180819181081B190BC80FD91F7C
:100A3000C12CD12C0115110519F18091E80085FD1B
:100A400016C08091E8008E778093E80068D4E114A6
:100A5000F10449F0F70180819181C80ED91ED1823D
:100A6000C08285E00EC0B7D1882321F30AC08991E6
:100A70008093F10001501109FFEFCF1ADF0ADACF9E
:100A800080E0DF91CF911F910F91FF90EF90DF9069
:100A9000CF900895CF92DF92EF92FF920F931F9322
:100AA000CF93DF93EC018B017A0195D1811133C093
:100AB000E114F10439F0F70180819181081B190BD1
:100AC000C80FD91FC12CD12C0115110519F1809126
:100AD000E80085FD16C08091E8008B778093E800E0
:100AE0001ED4E114F10449F0F70180819181C80E10
:100AF000D91ED182C08285E00EC06DD1882321F33A
:100B00000AC08091F100899301501109FFEFCF1ABB
:100B1000DF0ADACF80E0DF91CF911F910F91FF9034
:100B2000EF90DF90CF900895209126023091270218
:100B30002617370748F06115710539F42091E80050
:100B40002E772093E80001C0B901FC0120E0611577
:100B5000710591F180911F02882309F440C085300E
:100B600009F43FC08091E80083FD3DC08091E8001A
:100B700082FD2FC08091E80080FFE9CF2091F30033
:100B80008091F20090E0922B6115710551F0803454
:100B9000910538F421912093F1006150710901967B
:100BA000F3CF21E08034910509F020E08091E80046
:100BB0008E778093E800CBCF2111CCCF0AC08091F3
:100BC0001F02882361F0853061F08091E80083FD89
:100BD0000AC08091E80082FFF2CF80E0089582E0B1
:100BE000089583E0089581E008956115710529F461
:100BF0002091E8002B772093E800FC016115710536
:100C000041F180911F02882361F1853061F180916B
:100C1000E80083FD24C08091E80082FFEFCF20919F
:100C2000F3008091F20090E0922B892B31F08091BB
:100C3000F10081936150710991F78091E8008B7701
:100C40008093E800DBCF80911F02882351F085302C
:100C500051F08091E80080FFF6CF80E0089581E0B8
:100C6000089582E0089583E008952091260230914E
:100C700027022617370748F06115710539F42091CE
:100C8000E8002E772093E80001C0B901FC0120E0C4
:100C90006115710599F180911F02882309F441C003
:100CA000853009F440C08091E80083FD3EC080910A
:100CB000E80082FD30C08091E80080FFE9CF2091FC
:100CC000F3008091F20090E0922B6115710559F0CC
:100CD0008034910540F424912093F10031966150C5
:100CE00071090196F2CF21E08034910509F020E0EE
:100CF0008091E8008E778093E800CACF2111CBCF96
:100D00000AC080911F02882361F0853061F08091D4
:100D1000E80083FD0AC08091E80082FFF2CF80E006
:100D2000089582E0089583E0089581E00895982F62
:100D3000973068F59093E900981739F07091EC00BE
:100D40002091ED005091F00003C0242F762F50E049
:100D500021FD02C09F5FECCF3091EB003E7F3093CE
:100D6000EB003091ED003D7F3093ED003091EB00D2
:100D700031603093EB007093EC002093ED005093C2
:100D8000F0002091EE0027FDE5CF80E008958F7000
:100D90008093E90081E008958091200287FF11C0CF
:100DA0008091E80082FD05C080911F028111F8CF7B
:100DB00011C08091E8008B770BC080911F028823BF
:100DC00049F08091E80080FFF8CF8091E8008E77AD
:100DD0008093E80008952091E4003091E50095E6C5
:100DE0004091EC00842F817040FF23C08091E80087
:100DF00080FD1DC080911F02882399F0853099F0F5
:100E00008091EB0085FD11C04091E4005091E50018
:100E10002417350729F3915011F09A01E1CF84E0AE
:100E2000089582E0089583E0089581E0089580E0C8
:100E300008954091E80042FFDDCF08950F931F937E
:100E4000CF93DF934BD052D0C8EDD0E088818F771D
:100E5000888388818068888388818F7D888319BC96
:100E600010921F0210921B0210921D0210921C027F
:100E700000EE10E0F80180818B7F808388818160A3
:100E8000888342E360E080E052DFE1EEF0E08081C1
:100E90008E7F8083E2EEF0E08081816080838081BC
:100EA00088608083F80180818E7F80838881806163
:100EB0008883DF91CF911F910F910895E8EDF0E0C5
:100EC00080818F7E8083E7EDF0E080818160808388
:100ED00084E082BF81E080931E02B0CFE8EDF0E0B5
:100EE00080818E7F80831092E20008951092DA0054
:100EF0001092E10008951F920F920FB60F921124E5
:100F00002F933F934F935F936F937F938F939F9311
:100F1000AF93BF93EF93FF938091E10082FF0AC0EC
:100F20008091E20082FF06C08091E1008B7F809378
:100F3000E100F4D18091DA0080FF1DC08091D800DB
:100F400080FF19C08091DA008E7F8093DA00809153
:100F5000D90080FF0CC080E189BD82E189BD09B460
:100F600000FEFDCF81E080931F02B7DB04C019BCF7
:100F700010921F02B3DB8091E10080FF18C08091C6
:100F8000E20080FF14C08091E2008E7F8093E20037
:100F90008091E20080618093E2008091D8008062BD
:100FA0008093D80019BC85E080931F02B7D180914F
:100FB000E10084FF2FC08091E20084FF2BC080E11C
:100FC00089BD82E189BD09B400FEFDCF8091D800C2
:100FD0008F7D8093D8008091E1008F7E8093E10027
:100FE0008091E2008F7E8093E2008091E200816038
:100FF0008093E20080911B02882311F084E007C0F7
:101000008091E30087FD02C081E001C083E080930E
:101010001F0284D18091E10083FF22C08091E20011
:1010200083FF1EC08091E100877F8093E10082E012
:1010300080931F0210921B028091E1008E7F8093AB
:10104000E1008091E2008E7F8093E2008091E200D7
:1010500080618093E20042E360E080E068DE5ED180
:10106000FF91EF91BF91AF919F918F917F916F9180
:101070005F914F913F912F910F900FBE0F901F9056
:1010800018951F93CF93DF93CDB7DEB7AA970FB60E
:10109000F894DEBF0FBECDBFE0E2F2E08091F10038
:1010A000819322E0E832F207C9F77EDB8091E80005
:1010B00083FF1CC18091200290912102492F50E0B2
:1010C0004A30510508F012C1FA01EA5AFF4F73C1C4
:1010D000803881F0823809F009C1809124028F7034
:1010E0008093E9008091EB0085FB882780F91092BE
:1010F000E90006C080911C0290911D02911182604E
:101100009091E800977F9093E8008093F10010920F
:10111000F100C4C0282F2D7F09F0E8C0882319F002
:10112000823061F0E3C080912202813009F0DEC09C
:10113000933009F080E080931D022BC08091220241
:10114000811127C0809124028F7009F4CFC0809351
:10115000E9002091EB0020FF1CC0933021F4809126
:10116000EB00806214C09091EB0090619093EB00D3
:1011700021E030E0A90102C0440F551F8A95E2F733
:101180004093EA001092EA008091EB00886080931F
:10119000EB001092E9008091E800877F82C0811106
:1011A000A5C0109122021F778091E3008078812BE7
:1011B0008093E3008091E800877F8093E800ECDD76
:1011C0008091E80080FFFCCF8091E30080688093ED
:1011D000E300111102C082E001C083E080931F028E
:1011E00085C08058823008F081C0809122029091A1
:1011F00023028C3D53E0950771F583E08A838AE2F0
:1012000089834FB7F894DE01139620E03EE051E267
:10121000E32FF0E050935700E49120FF03C0E295E4
:10122000EF703F5FEF708E2F90E0EA3010F0C796BE
:1012300001C0C0968D939D932F5F243149F74FBF16
:101240008091E800877F8093E8006AE270E0CE0139
:1012500001966ADC12C0AE014F5F5F4F60912402BD
:101260008EDBBC01892B09F441C09091E800977F87
:101270009093E80089819A81F8DC8091E8008B776F
:101280008093E80033C0803889F58091E800877F3B
:101290008093E80080911B028093F1008091E80028
:1012A0008E778093E80078DD21C081111FC0809186
:1012B00022029091230299270297C4F48091E800BA
:1012C000877F8093E8008091220280931B0264DD77
:1012D00080911B02811106C08091E30087FD02C04E
:1012E00081E001C084E080931F02F9D98091E80079
:1012F00083FF0AC08091E800877F8093E800809197
:10130000EB0080628093EB00AA960FB6F894DEBFE4
:101310000FBECDBFDF91CF911F9108950895CF9358
:1013200080911F02882399F0C091E900CF709091BD
:10133000EC00892F817090FD80E8C82B1092E900A5
:101340008091E80083FD9DDECF70C093E900CF91CE
:101350000895680F791F8617970751F0FC012191B6
:10136000CF013091C80035FFFCCF2093CE00F3CFE2
:101370000895A1E21A2EAA1BBB1BFD010DC0AA1FD6
:10138000BB1FEE1FFF1FA217B307E407F50720F0EE
:10139000A21BB30BE40BF50B661F771F881F991F69
:1013A0001A9469F760957095809590959B01AC01B2
:1013B000BD01CF010895EE0FFF1F0590F491E02DC0
:1013C000099409D0A59F900DB49F900DA49F800D06
:1013D000911D11240895A29FB001B39FC001A39F46
:1013E000700D811D1124911DB29F700D811D11245E
:1013F000911D0895FB01DC0102C005900D92415042
:0A1400005040D8F70895F894FFCF8C
:10140A00EE000000000000000000000000000000E4
:10141A0000000000000000000000000000000000C2
:10142A0000000000000000000000000000000000B2
:10143A0000000000000000000000000000000000A2
:04144A000000050099
:00000001FF
