:1000000021C100003AC1000038C1000036C1000023
:1000100034C1000032C1000030C100002EC1000018
:100020002CC100002AC100008BC6000026C10000C0
:1000300024C1000022C1000020C100001EC1000038
:100040001CC100001AC1000018C1000016C1000048
:1000500014C1000012C1000010C100000EC1000058
:100060000CC1000038C1000008C1000006C100003A
:1000700004C1000002C1000000C10000FEC0000079
:10008000FCC00000FAC00000F8C00000F6C000008C
:10009000F4C00000F2C00000F0C00000EEC000009C
:1000A000ECC00000EAC00000E8C000008D07AF0708
:1000B0009308AF079308F1071308930865087708BA
:1000C0004C000200000002004DE8034E144FC9A886
:1000D000B6150321270311060000000000000000F0
:1000E000000000000D0D000000000D840300000062
:1000F0000000000000000000000000000000000000
:100100000000F3003838000000003C035400680091
:1001100072007500730074006D006100730074005C
:1001200065007200200052006100630069006E00EB
:100130006700200057006800650065006C00200023
:1001400046004600420000001A0354006800720096
:100150007500730074006D00610073007400650029
:10016000720000000403090409022900010100C013
:1001700032090400000203000000092110010001FF
:1001800022A0000705840340000507050303400083
:100190000512011001000000404F046DB60001017E
:1001A00002000105010905A1018501093009310994
:1001B000320935150026FF007508950481020939BA
:1001C000150025073500463B01651475049501812E
:1001D00042650005091901290E15002501750195D3
:1001E0000E81020600FF09207506950181020501B6
:1001F00009330934150026FF0075089502810206AF
:1002000000FF09219536810285050922951F91027B
:1002100085030A2127952FB102C006F0FF0940A1EE
:100220000185F00947953FB10285F10948953FB135
:100230000285F20949950FB10285F30A0147950736
:10024000B102C00011241FBECFEFDAE0DEBFCDBF88
:1002500011E0A0E0B1E0E0ECF1E102C005900D9208
:10026000AA38B107D9F712E0AAE8B1E001C01D929F
:10027000A132B107E1F7A5D2A1C7C2CE8091C800D3
:1002800085FFFCCF84E48093CE008091190287FF24
:1002900006C08091C80085FFFCCF88E007C0809130
:1002A0001F02885F9091C80095FFFCCF8093CE001D
:1002B00068E070E089E192E06BC75E9AF89428E00C
:1002C00088E190E00FB6F894A895809360000FBE87
:1002D00020936000FFCF1F920F920FB60F92112450
:1002E0002F933F934F935F936F937F938F939F933E
:1002F000AF93BF93EF93FF938091CE0080930D0255
:100300008091C80087FFFCCF8091CE0080930C02C3
:1003100080910D028F3F19F48AE491E002C08AECCB
:1003200091E09093120280931102809111029091BA
:1003300012022091100230910C02231778F431E060
:10034000320F30931002FC01E20FF11D2091C80022
:1003500027FFFCCF2091CE002083EBCF109210021C
:1003600080910D02833309F442C028F48131A1F059
:10037000823231F15AC0853509F453C08F3F09F4F8
:1003800051C0843409F051C081E080930B02809108
:100390000C0280930A0249C08091C80085FFFCCFFF
:1003A00081E18093CE008091C80085FFFCCF81E081
:1003B0008093CE008091C80085FFFCCF87E014C0F9
:1003C0008091C80085FFFCCF82E28093CE008091AF
:1003D000C80085FFFCCF81E08093CE0080910E02A3
:1003E0009091C80095FFFCCF8093CE001EC08091F5
:1003F000C80085FFFCCF83E38093CE008091C800C6
:1004000085FFFCCF81E08093CE0080910E02909119
:10041000C80095FFFCCF8093CE0081E080930E0250
:1004200004C04BDF81E080930F02FF91EF91BF91F9
:10043000AF919F918F917F916F915F914F913F917C
:100440002F910F900FBE0F901F90189581E090E0B4
:100450009093CD008093CC0086E08093CA001092E8
:10046000C800E9ECF0E088E18083539A5A9A8081D1
:1004700080688083089514BE88E10FB6F894809355
:100480006000109260000FBE90E080E80FB6F89414
:1004900080936100909361000FBED8DF7894569AE4
:1004A00080910E028823E1F32EC40895089542E35B
:1004B00061EC84E062D342E360EC83E05EC31F93AF
:1004C000CF93DF9320911A02213021F0293009F4D3
:1004D000CEC00BC180911902813A09F006C1C091CA
:1004E0001B02D0911C02D33009F0FFC0CE01992726
:1004F0008E34910509F46FC0D4F48B34910509F45E
:1005000041C04CF4039709F06AC02093130210E332
:1005100082ED90E081C08C34910509F47AC08D346D
:10052000910509F05CC013E088EC90E075C0833F52
:1005300091055CF4813F91056CF48F34910509F0CD
:100540004EC015E08DEC90E067C0833F910509F443
:100550005CC045C010920B0291DE80910B02882393
:10056000E1F38091E800877F8093E80060910A02C0
:1005700070E08AEC91E0FCD18091E8008B77809369
:10058000E800B3C08091E800877F8093E80068E0CE
:1005900070E082E491E0ECD18091E8008B77809369
:1005A000E8008091C80085FFFCCF89E98093CE00E8
:1005B0008091C80085FFFCCF82E08093CE008091BF
:1005C000C80085FFFCCFC093CE008091C80085FF96
:1005D000FCCF88E017C012E08BEC90E01DC080914A
:1005E000C80085FFFCCF89E98093CE008091C800C8
:1005F00085FFFCCF81E08093CE008091C80085FF0D
:10060000FCCF8C2F8093CE0070C018E082E091E088
:1006100003C018E080EC90E0009709F466C02091D8
:10062000E800277F2093E800612F70E043D280919B
:10063000E8008B778093E8008091C80085FFFCCFAD
:1006400089E98093CE008091C80085FFFCCF82E0CD
:100650008093CE008091C80085FFFCCFC093CE0070
:100660008091C80085FFFCCF1093CE003EC08091E2
:1006700019028132D1F58091E800877F8093E800EC
:1006800060911F02709120028AE891E0D3D180919D
:10069000E8008E778093E80080911B0290911C0205
:1006A000933019F5803F11F4E9DD15C08091C80041
:1006B00085FFFCCF89E98093CE0080911F02885F7F
:1006C0009091C80095FFFCCF8093CE0068E070E069
:1006D00089E192E05DD560911F02709120028AE865
:1006E00091E0DF91CF911F9153C5DF91CF911F9181
:1006F000089584E08093E900809113028823B1F08B
:1007000080910F02882391F08091E80080FFFCCF58
:1007100040E050E060E470E08AE491E099D010920B
:100720000F028091E8008E778093E8000895CF93C0
:10073000DF9300D0CDB7DEB71A82198283E08093B1
:10074000E9008091E80082FF30C08091E80085FFD9
:100750000EC0AE014F5F5F4F60E470E082E091E059
:10076000BFD0811104C080E490E09A838983809196
:10077000E8008B778093E80069817A8161157105C3
:10078000A1F06093010177276E5F7F4F80E091E0D9
:10079000FFD480910201883341F480910401809359
:1007A000430180910501809344010F900F90DF91E8
:1007B000CF91089580911802843011F49ADFB7CF59
:1007C000089559DEF7DFC8D4FDCF292F3327233012
:1007D0003105B9F05CF42130310569F12230310581
:1007E00079F589E290E028E631E02EC0213231052A
:1007F000E9F02232310521F580EA90E023EA31E088
:1008000023C099278130910541F08230910541F054
:10081000892BB1F4E4E6F1E005C0E8E4F1E002C0C0
:10082000EAE0F1E0849190E09F010EC089E090E061
:100830002AE731E009C082E190E021E931E004C01B
:1008400080E090E020E030E0FA01318320830895D9
:10085000CF92DF92EF92FF920F931F93CF93DF938C
:100860007C018B01EA01DFD1811131C0209731F089
:1008700088819981081B190BE80EF91EC12CD12C17
:100880000115110519F18091E80085FD14C08091D2
:10089000E8008E778093E8005FD4209741F088814C
:1008A00099818C0D9D1D9983888385E010C0BBD1F3
:1008B000882331F30CC0F70181917F018093F1000F
:1008C00001501109FFEFCF1ADF0ADACF80E0DF9184
:1008D000CF911F910F91FF90EF90DF90CF900895EF
:1008E000CF92DF92EF92FF920F931F93CF93DF93FC
:1008F0007C018B01EA0197D1811131C0209731F041
:1009000088819981081B190BE80EF91EC12CD12C86
:100910000115110519F18091E80085FD14C0809141
:10092000E8008B778093E80017D4209741F0888106
:1009300099818C0D9D1D9983888385E010C073D1AA
:10094000882331F30CC08091F100F70181937F017E
:1009500001501109FFEFCF1ADF0ADACF80E0DF91F3
:10096000CF911F910F91FF90EF90DF90CF9008955E
:1009700020911F02309120022617370748F0611599
:10098000710539F42091E8002E772093E80001C02A
:10099000B901FC0120E061157105C1F180911802D7
:1009A000882309F441C0853009F440C08091E800F3
:1009B00083FD3EC08091E80082FF06C08091E80080
:1009C00082FF27C080E008958091E80080FFE3CF98
:1009D0002091F3008091F20090E0922B6115710557
:1009E00051F08034910538F421912093F100615049
:1009F00071090196F3CF21E08034910509F020E0E0
:100A00008091E8008E778093E800C5CF2111C6CF92
:100A1000D5CF80911802882339F0853039F0809144
:100A2000E80083FFCBCF04C082E0089583E00895FF
:100A300081E008956115710529F42091E8002B7774
:100A40002093E8006115710541F1209118022223DD
:100A500069F1253069F12091E80023FD23C0209140
:100A6000E80022FFF2CFFC01CF014091F30020917A
:100A7000F20030E0342B232B01F38091F1008193BD
:100A8000CF01615071096115710571F7D6CF809161
:100A90001802882359F0853059F08091E80080FFD2
:100AA000F6CF02C081E0089580E0089582E00895C5
:100AB00083E0089520911F02309120022617370706
:100AC00048F06115710539F42091E8002E772093E4
:100AD000E80001C0B901FC0120E061157105C9F110
:100AE00080911802882309F442C0853009F441C07E
:100AF0008091E80083FD3FC08091E80082FF06C03E
:100B00008091E80082FF28C080E008958091E8008D
:100B100080FFE3CF2091F3008091F20090E0922BD0
:100B20006115710559F08034910540F424912093AA
:100B3000F1003196615071090196F2CF21E08034C5
:100B4000910509F020E08091E8008E778093E8001D
:100B5000C4CF2111C5CFD4CF80911802882339F09A
:100B6000853039F08091E80083FFCACF04C082E06D
:100B7000089583E0089581E00895982F973058F5FF
:100B80009093E900981739F07091EC002091ED00F6
:100B90005091F00003C0242F762F50E021FF19C0A0
:100BA0003091EB003E7F3093EB003091ED003D7FC4
:100BB0003093ED003091EB0031603093EB00709397
:100BC000EC002093ED005093F0002091EE0027FF01
:100BD00007C09F5FD3CF8F708093E90081E00895B5
:100BE00080E008958091190287FD05C08091E8009A
:100BF00080FF0EC012C08091E80082FD05C0809188
:100C000018028111F8CF08958091E8008B7708C011
:100C1000809118028111EACF08958091E8008E77C3
:100C20008093E80008958091E4009091E50045E606
:100C30002091EC0020FF21C02091E80020FD21C080
:100C400020911802222389F0253089F02091EB00B1
:100C500025FD0FC02091E4003091E50028173907E9
:100C600039F3415041F0C901E3CF82E0089583E0B8
:100C7000089581E0089584E008952091E80022FF1E
:100C8000DFCF80E008950F931F93CF93DF934BD076
:100C900052D0C8EDD0E088818F77888388818068C2
:100CA000888388818F7D888319BC109218021092E6
:100CB0001402109216021092150200EE10E0F801D4
:100CC00080818B7F808388818160888342E360E0BC
:100CD00080E053DFE1EEF0E080818E7F8083E2EE02
:100CE000F0E0808181608083808188608083F8016A
:100CF00080818E7F8083888180618883DF91CF911E
:100D00001F910F910895E8EDF0E080818F7E808340
:100D1000E7EDF0E080818160808384E082BF81E044
:100D200080931702B0CFE8EDF0E080818E7F808362
:100D30001092E20008951092DA001092E1000895F6
:100D40001F920F920FB60F9211242F933F934F9340
:100D50005F936F937F938F939F93AF93BF93EF9323
:100D6000FF938091E10082FF0AC08091E20082FF40
:100D700006C08091E1008B7F8093E100ECD18091EF
:100D8000DA0080FF1DC08091D80080FF19C08091DB
:100D9000DA008E7F8093DA008091D90080FF0CC04A
:100DA00080E189BD82E189BD09B400FEFDCF81E00B
:100DB000809318027ADB04C019BC1092180276DB0B
:100DC0008091E10080FF18C08091E20080FF14C094
:100DD0008091E2008E7F8093E2008091E20080614A
:100DE0008093E2008091D80080628093D80019BC83
:100DF00085E080931802AFD18091E10084FF2FC07D
:100E00008091E20084FF2BC080E189BD82E189BD31
:100E100009B400FEFDCF8091D8008F7D8093D8006B
:100E20008091E1008F7E8093E1008091E2008F7ECF
:100E30008093E2008091E20081608093E2008091E3
:100E40001402882311F084E007C08091E30087FF3B
:100E500002C083E001C081E0809318027CD18091C0
:100E6000E10083FF22C08091E20083FF1EC08091D9
:100E7000E100877F8093E10082E080931802109266
:100E800014028091E1008E7F8093E1008091E20066
:100E90008E7F8093E2008091E20080618093E20087
:100EA00042E360E080E069DE56D1FF91EF91BF91AF
:100EB000AF919F918F917F916F915F914F913F91F2
:100EC0002F910F900FBE0F901F9018951F93CF93E7
:100ED000DF93CDB7DEB7AA970FB6F894DEBF0FBE8B
:100EE000CDBFE9E1F2E08091F100819322E0E132AF
:100EF000F207C9F7E4DA8091E80083FF14C120917A
:100F0000190230911A02832F90E08A30910508F07F
:100F10000AC1FC01EA5AFF4F4BC1203881F0223848
:100F200009F001C180911D028F708093E9008091CA
:100F3000EB0085FB882780F91092E90006C08091BC
:100F4000150290911602911182609091E800977FAE
:100F50009093E8008093F1001092F100C1C0822FBD
:100F60008D7F09F0E0C0222319F0223061F0DBC050
:100F700080911B02813009F0D6C0333009F080E047
:100F80008093160228C080911B02811124C02091F9
:100F90001D022F7009F4C7C02093E9008091EB0077
:100FA00080FF19C08091EB00333011F4806211C0D2
:100FB00080618093EB0081E090E0022E01C0880FF9
:100FC0000A94EAF78093EA001092EA008091EB001D
:100FD00088608093EB001092E9008091E800877FA1
:100FE00082C02111A0C010911B021F778091E300E5
:100FF0008078812B8093E3008091E800877F809345
:10100000E800F0DD8091E80080FFFCCF8091E300F4
:1010100080688093E300112311F083E001C082E037
:101020008093180280C02058223008F07CC0809144
:101030001B0290911C028C3D23E0920771F583E026
:101040008A838AE289834FB7F894DE01139620E001
:101050003EE051E2E32FF0E050935700E49120FF8F
:1010600003C0E295EF703F5FEF708E2F90E0EA30A3
:1010700010F0C79601C0C0968D939D932F5F2431C9
:1010800049F74FBF8091E800877F8093E8006AE2CC
:1010900070E0CE0101966CDC12C0AE014F5F5F4F75
:1010A00060911D0292DB009709F43DC02091E80099
:1010B000277F2093E800BC0189819A81FBDC809125
:1010C000E8008B778093E8002EC0203861F580918E
:1010D000E800877F8093E800809114028093F100FC
:1010E0008091E8008E778093E8007CDD1CC02111A0
:1010F0001AC090911B029230B0F48091E800877F73
:101100008093E800909314026DDD809114028111A8
:1011100004C08091E30087FF02C084E001C081E049
:1011200080931802C4D98091E80083FF0AC080919F
:10113000E800877F8093E8008091EB0080628093D5
:10114000EB00AA960FB6F894DEBF0FBECDBFDF91BD
:10115000CF911F9108950895CF938091180288230D
:10116000A9F08091E9008F709091EC0090FF02C08F
:1011700090E801C090E0C92FC82B1092E90080913F
:10118000E80083FDA3DECF70C093E900CF910895FE
:10119000680F791F8617970751F0FC012191CF0145
:1011A0003091C80035FFFCCF2093CE00F3CF0895D7
:1011B000EE0FFF1F0590F491E02D0994F894FFCFF6
:1011C0009900000000000000000000000000000086
:1011D000000000000000000000000000000000000F
:1011E00000000000000000000000000000000000FF
:1011F00000000000000000000000000000000000EF
:1012000000004B54D58000000000018080808008E1
:1012100000000000000000000000000000000000CE
:1012200000000000000000000000000000000000BE
:1012300000000000000080FFFFFFFFFFFF00FFFF36
:0A12400000000000000000000000A4
:00000001FF
