:1000000078C0000091C000008FC000008DC00000CB
:100010008BC0000089C0000087C0000085C00000C0
:1000200083C0000081C000009CC300007DC00000B0
:100030007BC0000079C0000077C0000075C00000E0
:1000400073C0000071C000006FC000006DC00000F0
:100050006BC0000069C0000067C0000065C0000000
:1000600063C0000062C000005FC000005DC000000F
:100070005BC0000059C0000057C0000055C0000020
:1000800053C0000051C000004FC000004DC0000030
:100090004BC0000049C0000047C0000045C0000040
:1000A00043C0000041C000003FC000009E04C004E7
:1000B000A405C004A40502052405A4057605880549
:1000C00009022000010100803209040000025842A8
:1000D0000000070582032000040705020320000436
:1000E00012011001000000405E0402020001000045
:1000F000000111241FBECFEFDAE0DEBFCDBF11E05B
:10010000A0E0B1E0E2ECFBE002C005900D92A4316A
:10011000B107D9F711E0A4E1B1E001C01D92A73603
:10012000B107E1F7D3D04BC56BCF1F920F920FB63B
:100130000F9211242F933F938F939F93EF93FF93ED
:100140008091CE00809355018091C80087FFFCCF3D
:100150008091CE0080935401809155018F3F19F416
:1001600080E091E002C084E191E090935901809396
:100170005801809158019091590120915701309177
:100180005401231778F431E0320F30935701FC010A
:10019000E20FF11D2091C80027FFFCCF2091CE0077
:1001A0002083EBCF1092570180915501813131F0BE
:1001B0008F3FC9F481E08093560115C08091C8003B
:1001C00085FFFCCF81E18093CE008091C80085FF40
:1001D000FCCF81E08093CE008091C80085FFFCCFEA
:1001E00084E08093CE00FF91EF919F918F913F919A
:1001F0002F910F900FBE0F901F90189581E090E007
:100200009093CD008093CC0086E08093CA0010923A
:10021000C800E9ECF0E088E18083539A5A9A808123
:1002200080688083089514BE88E10FB6F8948093A7
:100230006000109260000FBE90E080E80FB6F89466
:1002400080936100909361000FBED8DF78946CC2F8
:100250000895089542E261EC82E0A0C1089582E031
:100260008093E90080915601882391F08091E80005
:1002700080FFFCCF40E050E064E170E080E091E07E
:1002800080D0109256018091E8008E778093E8002C
:10029000089582E08093E9008091E80082FF0EC01B
:1002A0008091E80085FF05C060E070E086E090E0A6
:1002B0002BD08091E8008B778093E800089580919F
:1002C0005E01843011F4CBDFE4CF0895ACDFF7DFBB
:1002D00054D4FDCF292F30E02130310569F0223090
:1002E000310529F080E090E020E030E009C080E2B4
:1002F00090E020EC30E004C082E190E020EE30E0BD
:10030000FA01318320830895EF92FF920F931F9398
:10031000CF93DF938C01EB0197D181112BC02097F4
:1003200021F088819981081B190BE12CF12C011512
:100330001105F9F08091E80085FD13C08091E80077
:100340008B778093E800209741F0888199818E0D0A
:100350009F1D9983888385E00DC076D1882339F36A
:1003600009C08091F100015011098FEFE81AF80AD5
:10037000DECF80E0DF91CF911F910F91FF90EF9042
:100380000895CF92DF92EF92FF920F931F93CF9336
:10039000DF937C018B01EA0157D1811131C0209795
:1003A00031F088819981081B190BE80EF91EC12CC8
:1003B000D12C0115110519F18091E80085FD14C0BB
:1003C0008091E8008E778093E800D7D3209741F0A2
:1003D000888199818C0D9D1D9983888385E010C04B
:1003E00033D1882331F30CC0F70181917F018093D1
:1003F000F10001501109FFEFCF1ADF0ADACF80E0D8
:10040000DF91CF911F910F91FF90EF90DF90CF90F0
:10041000089520916501309166012617370748F04D
:100420006115710539F42091E8002E772093E800DA
:1004300001C0B901FC0120E061157105C1F1809195
:100440005E01882309F441C0853009F440C08091E1
:10045000E80083FD3EC08091E80082FF06C08091E5
:10046000E80082FF27C080E008958091E80080FFC7
:10047000E3CF2091F3008091F20090E0922B611580
:10048000710551F08034910538F421912093F100E9
:10049000615071090196F3CF21E08034910509F094
:1004A00020E08091E8008E778093E800C5CF21118D
:1004B000C6CFD5CF80915E01882339F0853039F0E1
:1004C0008091E80083FFCBCF04C082E0089583E0F1
:1004D000089581E008952091650130916601261705
:1004E000370748F06115710539F42091E8002E773F
:1004F0002093E80001C0B901FC0120E061157105FD
:10050000C9F180915E01882309F442C0853009F465
:1005100041C08091E80083FD3FC08091E80082FFE8
:1005200006C08091E80082FF28C080E00895809195
:10053000E80080FFE3CF2091F3008091F20090E08B
:10054000922B6115710559F08034910540F4249186
:100550002093F1003196615071090196F2CF21E0AC
:100560008034910509F020E08091E8008E77809337
:10057000E800C4CF2111C5CFD4CF80915E0188237C
:1005800039F0853039F08091E80083FFCACF04C08C
:1005900082E0089583E0089581E00895982F9730D0
:1005A00058F59093E900981739F07091EC0020917C
:1005B000ED005091F00003C0242F762F50E021FF72
:1005C00019C03091EB003E7F3093EB003091ED008D
:1005D0003D7F3093ED003091EB0031603093EB00C4
:1005E0007093EC002093ED005093F0002091EE000A
:1005F00027FF07C09F5FD3CF8F708093E90081E012
:10060000089580E0089580915F0187FD05C0809185
:10061000E80080FF0EC012C08091E80082FD05C096
:1006200080915E018111F8CF08958091E8008B7769
:1006300008C080915E018111EACF08958091E800A1
:100640008E778093E80008958091E4009091E50012
:1006500045E62091EC0020FF21C02091E80020FD1C
:1006600021C020915E01222389F0253089F020915C
:10067000EB0025FD0FC02091E4003091E500281724
:10068000390739F3415041F0C901E3CF82E00895C1
:1006900083E0089581E0089584E008952091E800C2
:1006A00022FFDFCF80E008950F931F93CF93DF9356
:1006B0004BD052D0C8EDD0E088818F778883888175
:1006C0008068888388818F7D888319BC10925E0141
:1006D00010925A0110925C0110925B0100EE10E042
:1006E000F80180818B7F808388818160888342E3E9
:1006F00060E080E053DFE1EEF0E080818E7F808378
:10070000E2EEF0E080818160808380818860808378
:10071000F80180818E7F8083888180618883DF916A
:10072000CF911F910F910895E8EDF0E080818F7EC9
:100730008083E7EDF0E080818160808384E082BF88
:1007400081E080935D01B0CFE8EDF0E080818E7FA5
:1007500080831092E20008951092DA001092E10076
:1007600008951F920F920FB60F9211242F933F936B
:100770004F935F936F937F938F939F93AF93BF93A9
:10078000EF93FF938091E10082FF0AC08091E20025
:1007900082FF06C08091E1008B7F8093E100ECD165
:1007A0008091DA0080FF1DC08091D80080FF19C0C1
:1007B0008091DA008E7F8093DA008091D90080FFEB
:1007C0000CC080E189BD82E189BD09B400FEFDCF86
:1007D00081E080935E013CDD04C019BC10925E0193
:1007E00038DD8091E10080FF18C08091E20080FF39
:1007F00014C08091E2008E7F8093E2008091E2003D
:1008000080618093E2008091D80080628093D8005C
:1008100019BC85E080935E01AFD18091E10084FF37
:100820002FC08091E20084FF2BC080E189BD82E16E
:1008300089BD09B400FEFDCF8091D8008F7D8093E3
:10084000D8008091E1008F7E8093E1008091E200EA
:100850008F7E8093E2008091E20081608093E200CD
:1008600080915A01882311F084E007C08091E30051
:1008700087FF02C083E001C081E080935E017CD1EC
:100880008091E10083FF22C08091E20083FF1EC0BF
:100890008091E100877F8093E10082E080935E0198
:1008A00010925A018091E1008E7F8093E100809147
:1008B000E2008E7F8093E2008091E200806180936D
:1008C000E20042E360E080E069DE56D1FF91EF9103
:1008D000BF91AF919F918F917F916F915F914F9158
:1008E0003F912F910F900FBE0F901F9018951F935F
:1008F000CF93DF93CDB7DEB7AA970FB6F894DEBFDC
:100900000FBECDBFEFE5F1E08091F100819321E0D2
:10091000E736F207C9F7A2DC8091E80083FF14C133
:1009200020915F0130916001832F90E08A30910522
:1009300008F00AC1FC01EA5AFF4F3BC1203881F0A0
:10094000223809F001C1809163018F708093E90022
:100950008091EB0085FB882780F91092E90006C0A2
:1009600080915B0190915C01911182609091E8000F
:10097000977F9093E8008093F1001092F100C1C03E
:10098000822F8D7F09F0E0C0222319F0223061F020
:10099000DBC080916101813009F0D6C0333009F0AD
:1009A00080E080935C0128C080916101811124C0A6
:1009B000209163012F7009F4C7C02093E900809152
:1009C000EB0080FF19C08091EB00333011F480629E
:1009D00011C080618093EB0081E090E0022E01C0A5
:1009E000880F0A94EAF78093EA001092EA00809157
:1009F000EB0088608093EB001092E9008091E800A2
:100A0000877F82C02111A0C0109161011F77809162
:100A1000E3008078812B8093E3008091E800877F5A
:100A20008093E800F0DD8091E80080FFFCCF8091AA
:100A3000E30080688093E300112311F083E001C09C
:100A400082E080935E0180C02058223008F07CC094
:100A500080916101909162018C3D23E0920771F5D4
:100A600083E08A838AE289834FB7F894DE01139684
:100A700020E03EE051E2E32FF0E050935700E49194
:100A800020FF03C0E295EF703F5FEF708E2F90E084
:100A9000EA3010F0C79601C0C0968D939D932F5FEA
:100AA000243149F74FBF8091E800877F8093E800A9
:100AB0006AE270E0CE010196ACDC12C0AE014F5F7D
:100AC0005F4F6091630106DC009709F43DC02091FF
:100AD000E800277F2093E800BC0189819A81FBDC34
:100AE0008091E8008B778093E8002EC0203861F574
:100AF0008091E800877F8093E80080915A0180937D
:100B0000F1008091E8008E778093E8007CDD1CC0C6
:100B100021111AC0909161019230B0F48091E800E7
:100B2000877F8093E80090935A016DDD80915A0190
:100B3000811104C08091E30087FF02C084E001C0FE
:100B400081E080935E0186DB8091E80083FF0AC02C
:100B50008091E800877F8093E8008091EB008062BD
:100B60008093EB00AA960FB6F894DEBF0FBECDBF00
:100B7000DF91CF911F9108950895CF9380915E01E9
:100B80008823A9F08091E9008F709091EC0090FF8C
:100B900002C090E801C090E0C92FC82B1092E90074
:100BA0008091E80083FDA3DECF70C093E900CF9170
:100BB0000895EE0FFF1F0590F491E02D0994F8942D
:020BC000FFCF65
:100BC200001400000000000000000000000000000F
:040BD200000000001F
:00000001FF
