:1000000032C100004BC1000049C1000047C10000DF
:1000100045C1000043C1000041C100003FC10000D4
:100020003DC100003BC100003AC6000037C10000DE
:1000300035C1000033C1000031C100002FC10000F4
:100040002DC100002BC1000029C1000027C1000004
:1000500025C1000023C1000021C100001FC1000014
:100060001DC1000049C1000019C1000017C10000F6
:1000700015C1000013C1000011C100000FC1000034
:100080000DC100000BC1000009C1000007C1000044
:1000900005C1000003C1000001C10000FFC0000055
:1000A000FDC00000FBC00000F9C000003C075E0777
:1000B0004A085E074A08A307C5074A08170829081F
:1000C0002800000000010400010000000000000002
:1000D0000001584749503130000000000000000086
:1000E000000000000000000010033000300030006D
:1000F00030003000300031000000160343006F0074
:100100006E00740072006F006C006C00650072007D
:10011000000014034D006900630072006F0073005B
:100120006F006600740000000403090412034D0010
:1001300053004600540031003000300090000000B1
:10014000B203580062006F00780020005300650081
:1001500063007500720069007400790020004D0092
:100160006500740068006F006400200033002C00FC
:100170002000560065007200730069006F006E0079
:10018000200031002E00300030002C002000A9009B
:100190002000320030003000350020004D006900A2
:1001A000630072006F0073006F006600740020002F
:1001B00043006F00720070006F00720061007400F5
:1001C00069006F006E002E00200041006C006C0082
:1001D000200072006900670068007400730020004E
:1001E00072006500730065007200760065006400AF
:1001F0002E00000009026000030100A0FA090400BB
:100200000002FF47D00007050203400004070581F4
:10021000034000040904010000FF47D00009040165
:100220000102FF47D00007050401E4000107058330
:1002300001E400010904020000FF47D000090402A4
:100240000102FF47D00007050602400000070585B0
:100250000240000012010002FF47D0405E04D102BC
:1002600003020102030111241FBECFEFDAE0DEBF5B
:10027000CDBF11E0A0E0B1E0E0EAF1E102C00590FD
:100280000D92A434B107D9F721E0A4E4B1E001C094
:100290001D92A03EB207E1F709D280C7B1CE9B0103
:1002A000AC01DC01CB01B695A79597958795BC016C
:1002B000CD0160587B47814E9F4F2FD72150310988
:1002C0003093CD002093CC0086E08093CA0082E07A
:1002D0008093C80088E18093C900539A5A9A089580
:1002E000F89498E088E10FB6F894A89580936000A0
:1002F0000FBE90936000FFCF1F920F920FB60F9228
:1003000011242F933F934F935F936F937F938F931A
:100310009F93AF93BF93EF93FF938091CE00809311
:100320004C0110928500109284008091C80087FFD4
:100330000BC08091CE0080934B0180914C018F3F88
:1003400059F423E931E00AC080918400909185003E
:100350008137924050F307C123E531E030935201D9
:10036000209351018091500190914B018917B8F46D
:1003700091E0980F909350019091C80097FF07C0AB
:100380009091CE00F901E80FF11D9083EBCF4091E1
:100390008400509185004137524070F3E4C01092C0
:1003A000500180914C01853509F4DDC0A8F48232FA
:1003B00009F452C018F48131D9F1D6C0833309F45D
:1003C00060C0843409F0D0C081E080934A018091FC
:1003D0004B0180934901C8C0873709F4A8C0D0F405
:1003E000863609F0C1C0809153019091540198273D
:1003F0008927982790934701809346018091550162
:1004000090915601982789279827909345018093CA
:100410004401AAC0883809F44EC08F3F09F0A4C037
:1004200081E080934F0180914B0180934E019CC0ED
:100430008091C80085FFFCCF81E18093CE00809140
:10044000C80085FFFCCF81E08093CE008091C8007A
:1004500085FFFCCF86E068C08091C80085FFFCCF97
:1004600082E28093CE008091C80085FFFCCF81E0BE
:100470008093CE00809148019091C80095FFFCCFF9
:1004800053C08091C80085FFFCCF83E38093CE00EA
:100490008091C80085FFFCCF81E08093CE008091E1
:1004A00048019091C80095FFFCCF8093CE0081E079
:1004B00080934D0159C080914B01882309F18091AF
:1004C0005301809342015B9A1092C9001092C800B8
:1004D0001092CA001092CD001092CC0053985A98F6
:1004E000A0914201B0E020EA36E841E050E03DD67C
:1004F000D6DE5B988091C90080688093C90034C0C3
:100500008091C80085FFFCCF88E88093CE00809161
:10051000C80085FFFCCF81E08093CE00809142012E
:100520009091C80095FFFCCF8093CE001DC08091B4
:10053000C80085FFFCCF87E78093CE008091C8007C
:1005400085FFFCCF82E08093CE008091C80085FFBC
:10055000FCCF88E08093CE008091C80085FFFCCF5F
:100560001092CE0001C0BCDEFF91EF91BF91AF9120
:100570009F918F917F916F915F914F913F912F91BB
:100580000F900FBE0F901F90189514BE0FB6F894E1
:10059000A89580916000886180936000109260004F
:1005A0000FBE90E080E80FB6F894809361009093BE
:1005B00061000FBE80918100846080938100A091D2
:1005C0004201B0E020EA36E841E050E0CED567DEF7
:1005D0008091C90080688093C900789480914D0112
:1005E0008823E1F33FC30895089542E361EC81E07D
:1005F00072D242E360EC82E06EC281E08093E90057
:1006000080914F01882399F08091E80080FF0FC00E
:1006100060914E0170E040E050E083E991E004D148
:1006200010924F018091E8008E778093E800089542
:10063000CF93DF9300D0CDB7DEB782E08093E9009F
:100640008091E80082FF26C01A821982109201016F
:100650008091E80085FF0FC0AE014F5F5F4F60E4FF
:1006600070E082E091E02AD1882311F0898101C0F5
:1006700080E4809301018091E8008B778093E8000B
:1006800060910101662331F070E06E5F7F4F80E082
:1006900091E033D50F900F90DF91CF910895809125
:1006A000D701843011F4A9DFC3CF08956EDFF7DFDF
:1006B0000AD5FDCFCF93DF931F92CDB7DEB78091E0
:1006C000D80186FF2BC087FF4CC09091D90190398B
:1006D00009F047C08F71A1F48091DC019091DD0198
:1006E000049709F03EC08091E800877F8093E8007E
:1006F0006091DE017091DF0180EC90E08AD121C031
:10070000813079F58091DC019091DD01059749F503
:100710008091E800877F8093E80013C080FF21C0AC
:100720009091D90187FF11C09A30D9F41982809134
:10073000E800877F8093E80061E070E0CE010196D9
:1007400007D18091E8008B770AC09B3051F48091EB
:10075000E800877F8093E8008091E8008E7780939F
:10076000E8000F90DF91CF910895292F3327223091
:10077000310561F02330310571F02130310509F088
:100780004BC082E190E024E532E04AC080E690E090
:1007900024EF31E045C099278230910529F168F4B2
:1007A0000097D1F0019709F037C0E2E1F1E0E49160
:1007B0008E2F90E022E131E033C08430910521F1A9
:1007C000D8F08E3E910541F5ECE2F1E0E4918E2FF8
:1007D00090E02CE231E024C0E8E2F1E0E4918E2FD9
:1007E00090E028E231E01CC0EAEFF0E0E4918E2FC7
:1007F00090E02AEF30E014C0E8EEF0E0E4918E2FB4
:1008000090E028EE30E00CC0E0E4F1E0E4918E2FBF
:1008100090E020E431E004C080E090E020E030E0AF
:10082000FA01318320830895CF92DF92EF92FF92F5
:100830000F931F93CF93DF93EC018B017A019FD12C
:10084000811133C0E114F10439F0F7018081918105
:10085000081B190BC80FD91FC12CD12C011511056C
:1008600019F18091E80085FD16C08091E8008E772F
:100870008093E80028D4E114F10449F0F701808165
:100880009181C80ED91ED182C08285E00EC077D179
:10089000882321F30AC089918093F1000150110946
:1008A000FFEFCF1ADF0ADACF80E0DF91CF911F91FF
:1008B0000F91FF90EF90DF90CF900895CF92DF924D
:1008C000EF92FF920F931F93CF93DF93EC018B0175
:1008D0007A0155D1811133C0E114F10439F0F701E7
:1008E00080819181081B190BC80FD91FC12CD12CF5
:1008F0000115110519F18091E80085FD16C0809160
:10090000E8008B778093E800DED3E114F10449F02E
:10091000F70180819181C80ED91ED182C08285E005
:100920000EC02DD1882321F30AC08091F100899354
:1009300001501109FFEFCF1ADF0ADACF80E0DF9113
:10094000CF911F910F91FF90EF90DF90CF9008957E
:100950002091DE013091DF012617370748F061153D
:10096000710539F42091E8002E772093E80001C04A
:10097000B901FC0120E06115710591F18091D70169
:10098000882309F440C0853009F43FC08091E80015
:1009900083FD3DC08091E80082FD2FC08091E8007A
:1009A00080FFE9CF2091F3008091F20090E0922B3C
:1009B0006115710551F08034910538F4219120932F
:1009C000F100615071090196F3CF21E08034910567
:1009D00009F020E08091E8008E778093E800CBCF8B
:1009E0002111CCCF0AC08091D701882361F08530D6
:1009F00061F08091E80083FD0AC08091E80082FFE9
:100A0000F2CF80E0089582E0089583E0089581E0C8
:100A100008952091DE013091DF012617370748F055
:100A20006115710539F42091E8002E772093E800D4
:100A300001C0B901FC0120E06115710599F18091B7
:100A4000D701882309F441C0853009F440C0809162
:100A5000E80083FD3EC08091E80082FD30C08091B7
:100A6000E80080FFE9CF2091F3008091F20090E050
:100A7000922B6115710559F08034910540F4249151
:100A80002093F1003196615071090196F2CF21E077
:100A90008034910509F020E08091E8008E77809302
:100AA000E800CACF2111CBCF0AC08091D70188239B
:100AB00061F0853061F08091E80083FD0AC080918B
:100AC000E80082FFF2CF80E0089582E0089583E09D
:100AD000089581E00895982F973068F59093E90084
:100AE000981739F07091EC002091ED005091F000D2
:100AF00003C0242F762F50E021FD02C09F5FECCF72
:100B00003091EB003E7F3093EB003091ED003D7F64
:100B10003093ED003091EB0031603093EB00709337
:100B2000EC002093ED005093F0002091EE0027FDA3
:100B3000E5CF80E008958F708093E90081E008950B
:100B40008091D80187FF11C08091E80082FD05C027
:100B50008091D7018111F8CF11C08091E8008B7787
:100B60000BC08091D701882349F08091E80080FF75
:100B7000F8CF8091E8008E778093E8000895209167
:100B8000E4003091E50095E64091EC00842F8170FF
:100B900040FF23C08091E80080FD1DC08091D701F7
:100BA000882399F0853099F08091EB0085FD11C084
:100BB0004091E4005091E5002417350729F3915046
:100BC00011F09A01E1CF84E0089582E0089583E076
:100BD000089581E0089580E008954091E80042FF83
:100BE000DDCF08950F931F93CF93DF934BD052D057
:100BF000C8EDD0E088818F7788838881806888837A
:100C000088818F7D888319BC1092D7011092D301FF
:100C10001092D5011092D40100EE10E0F80180810D
:100C20008B7F808388818160888342E360E080E0FD
:100C300052DFE1EEF0E080818E7F8083E2EEF0E033
:100C4000808181608083808188608083F8018081D9
:100C50008E7F8083888180618883DF91CF911F910F
:100C60000F910895E8EDF0E080818F7E8083E7EDBD
:100C7000F0E080818160808384E082BF81E08093A6
:100C8000D601B0CFE8EDF0E080818E7F80831092B6
:100C9000E20008951092DA001092E10008951F9288
:100CA0000F920FB60F9211242F933F934F935F93A0
:100CB0006F937F938F939F93AF93BF93EF93FF9324
:100CC0008091E10082FF0AC08091E20082FF06C0AD
:100CD0008091E1008B7F8093E100F4D18091DA0074
:100CE00080FF1DC08091D80080FF19C08091DA007C
:100CF0008E7F8093DA008091D90080FF0CC080E164
:100D000089BD82E189BD09B400FEFDCF81E08093F9
:100D1000D70169DC04C019BC1092D70165DC809151
:100D2000E10080FF18C08091E20080FF14C0809134
:100D3000E2008E7F8093E2008091E20080618093E8
:100D4000E2008091D80080628093D80019BC85E0D1
:100D50008093D701B7D18091E10084FF2FC08091AB
:100D6000E20084FF2BC080E189BD82E189BD09B426
:100D700000FEFDCF8091D8008F7D8093D8008091B8
:100D8000E1008F7E8093E1008091E2008F7E80936E
:100D9000E2008091E20081608093E2008091D301C3
:100DA000882311F084E007C08091E30087FD02C032
:100DB00081E001C083E08093D70184D18091E1007C
:100DC00083FF22C08091E20083FF1EC08091E1007A
:100DD000877F8093E10082E08093D7011092D30156
:100DE0008091E1008E7F8093E1008091E2008E7F10
:100DF0008093E2008091E20080618093E20042E310
:100E000060E080E068DE5ED1FF91EF91BF91AF912D
:100E10009F918F917F916F915F914F913F912F9112
:100E20000F900FBE0F901F9018951F93CF93DF93D5
:100E3000CDB7DEB7AA970FB6F894DEBF0FBECDBF11
:100E4000E8EDF1E08091F100819321E0E03EF207CE
:100E5000C9F730DC8091E80083FF1CC18091D80184
:100E60009091D901492F50E04A30510508F012C144
:100E7000FA01EA5AFF4F73C1803881F0823809F0D5
:100E800009C18091DC018F708093E9008091EB00B3
:100E900085FB882780F91092E90006C08091D40173
:100EA0009091D501911182609091E800977F909385
:100EB000E8008093F1001092F100C4C0282F2D7F2C
:100EC00009F0E8C0882319F0823061F0E3C0809116
:100ED000DA01813009F0DEC0933009F080E08093C0
:100EE000D5012BC08091DA01811127C08091DC01EE
:100EF0008F7009F4CFC08093E9002091EB0020FFB0
:100F00001CC0933021F48091EB00806214C090915A
:100F1000EB0090619093EB0021E030E0A90102C06A
:100F2000440F551F8A95E2F74093EA001092EA00B9
:100F30008091EB0088608093EB001092E900809133
:100F4000E800877F82C08111A5C01091DA011F7768
:100F50008091E3008078812B8093E3008091E8000A
:100F6000877F8093E800ECDD8091E80080FFFCCF74
:100F70008091E30080688093E300111102C082E059
:100F800001C083E08093D70185C08058823008F08B
:100F900081C08091DA019091DB018C3D53E095078F
:100FA00071F583E08A838AE289834FB7F894DE0182
:100FB000139620E03EE051E2E32FF0E0509357001B
:100FC000E49120FF03C0E295EF703F5FEF708E2F3A
:100FD00090E0EA3010F0C79601C0C0968D939D93C3
:100FE0002F5F243149F74FBF8091E800877F8093BE
:100FF000E8006AE270E0CE010196AADC12C0AE0100
:101000004F5F5F4F6091DC01B0DBBC01892B09F4BD
:1010100041C09091E800977F9093E80089819A8180
:10102000F8DC8091E8008B778093E80033C080384B
:1010300089F58091E800877F8093E8008091D30153
:101040008093F1008091E8008E778093E80078DD4E
:1010500021C081111FC08091DA019091DB01992795
:101060000297C4F48091E800877F8093E800809124
:10107000DA018093D30164DD8091D301811106C030
:101080008091E30087FD02C081E001C084E080938D
:10109000D701ABDA8091E80083FF0AC08091E800B5
:1010A000877F8093E8008091EB0080628093EB0063
:1010B000AA960FB6F894DEBF0FBECDBFDF91CF91D9
:1010C0001F9108950895CF938091D701882399F0B7
:1010D000C091E900CF709091EC00892F817090FD54
:1010E00080E8C82B1092E9008091E80083FD9DDE26
:1010F000CF70C093E900CF910895680F791F8617CC
:10110000970751F0FC012191CF013091C80035FFC4
:10111000FCCF2093CE00F3CF0895A1E21A2EAA1B94
:10112000BB1BFD010DC0AA1FBB1FEE1FFF1FA21797
:10113000B307E407F50720F0A21BB30BE40BF50B94
:10114000661F771F881F991F1A9469F7609570951D
:10115000809590959B01AC01BD01CF010895EE0FE4
:10116000FF1F0590F491E02D099409D0A59F900DE3
:10117000B49F900DA49F800D911D11240895A29FEE
:10118000B001B39FC001A39F700D811D1124911D5B
:10119000B29F700D811D1124911D0895F894FFCF09
:1011A000EE00000000000000000000000000000051
:1011B000000000000000000000000000000000002F
:1011C000000000000000000000000000000000001F
:1011D000000000000000000000000000000000000F
:0411E0000000050006
:00000001FF
