:1000000037C1000050C100004EC100004CC10000CB
:100010004AC1000048C1000046C1000044C10000C0
:1000200042C1000040C1000089C500003CC1000081
:100030003AC1000038C1000036C1000034C10000E0
:1000400032C1000030C100002EC100002CC10000F0
:100050002AC1000028C1000026C1000024C1000000
:1000600022C100002FC100001EC100001CC1000001
:100070001AC1000018C1000016C1000014C1000020
:1000800012C1000010C100000EC100000CC1000030
:100090000AC1000008C1000006C1000004C1000040
:1000A00002C1000000C10000FEC000008B06AD06CA
:1000B0009107AD069107EF061107910763077507D2
:1000C0002800000000010400010000000000000002
:1000D0000001584749503130000000000000000086
:1000E00000000000000000001A0337004500450032
:1000F0004400380031003400300031003500350054
:1001000035000000160343006F006E00740072009B
:100110006F006C006C0065007200000014034D005D
:100120006900630072006F0073006F006600740066
:1001300000000403090412034D005300460054005C
:1001400031003000300090000000B203580062001F
:100150006F00780020005300650063007500720096
:1001600069007400790020004D006500740068008B
:100170006F006400200033002C0020005600650052
:100180007200730069006F006E00200031002E00C5
:10019000300030002C002000A90020003200300088
:1001A0003000350020004D006900630072006F00D0
:1001B00073006F0066007400200043006F0072003F
:1001C00070006F0072006100740069006F006E00C3
:1001D0002E00200041006C006C00200072006900BD
:1001E00067006800740073002000720065007300EF
:1001F000650072007600650064002E0000000902B0
:100200006000030100A0FA0904000002FF47D000CB
:1002100007050203400004070581034000040904A8
:10022000010000FF47D0000904010102FF47D00090
:1002300007050401E4000107058301E40001090446
:10024000020000FF47D0000904020102FF47D0006E
:100250000705060240000007058502400000120164
:100260000002FF47D0405E04D102010101020301F8
:1002700011241FBECFEFDAE0DEBFCDBF11E0A0E05A
:10028000B1E0ECEBFFE002C005900D92A234B107A3
:10029000D9F711E0A2E4B1E001C01D92AA3DB10777
:1002A000E1F7CED189C6ACCE5E9AF89428E088E119
:1002B00090E00FB6F894A895809360000FBE20934D
:1002C0006000FFCF1F920F920FB60F9211242F9351
:1002D0003F934F935F936F937F938F939F93AF93CE
:1002E000BF93EF93FF938091CE008093860180911E
:1002F000C80087FFFCCF8091CE008093850180915C
:1003000086018F3F19F48DE891E002C082E491E00C
:1003100090938C0180938B0180918B0190918C0143
:1003200020918A0130918501231778F431E0320F52
:1003300030938A01FC01E20FF11D2091C80027FFD4
:10034000FCCF2091CE002083EBCF10928A018091C8
:100350008601833309F442C028F48131A1F082324E
:1003600031F15EC0853509F453C08F3F09F451C0A7
:10037000843409F055C081E0809384018091850127
:10038000809383014DC08091C80085FFFCCF81E13F
:100390008093CE008091C80085FFFCCF81E08093E0
:1003A000CE008091C80085FFFCCF86E014C080910C
:1003B000C80085FFFCCF82E28093CE008091C80008
:1003C00085FFFCCF81E08093CE00809182019091E7
:1003D000C80095FFFCCF8093CE0022C08091C8005A
:1003E00085FFFCCF83E38093CE008091C80085FF1A
:1003F000FCCF81E08093CE00809182019091C80073
:1004000095FFFCCF8093CE0081E08093870108C0E8
:100410004BDF81E080938901809185018093880181
:10042000FF91EF91BF91AF919F918F917F916F91CC
:100430005F914F913F912F910F900FBE0F901F90A2
:10044000189581E090E09093CD008093CC0086E0F9
:100450008093CA001092C800E9ECF0E088E1808344
:10046000539A5A9A808180688083089514BE88E1E7
:100470000FB6F89480936000109260000FBE90E079
:1004800080E80FB6F89480936100909361000FBEEE
:10049000D8DF7894569A5E98809187018823E1F39B
:1004A00030C30895089542E361EC81E064D242E3F1
:1004B00060EC82E060C2CF93DF931F92CDB7DEB7CE
:1004C0008091D20186FF2BC087FF4DC09091D30150
:1004D000903909F048C08F71A1F48091D6019091B4
:1004E000D701049709F03FC08091E800877F80938F
:1004F000E8006091D8017091D90180EC90E0D8D1EA
:1005000021C0813081F58091D6019091D701059766
:1005100051F58091E800877F8093E80013C080FF49
:1005200023C09091D30187FF11C09A30E1F4198262
:100530008091E800877F8093E80061E070E0CE0161
:10054000019654D18091E8008B770AC09B3059F412
:100550008091E800877F8093E8008091E8008E77A3
:100560008093E80001C05E9A0F90DF91CF910895CB
:1005700081E08093E90080918901882399F080913E
:10058000E80080FFFCCF6091880170E040E050E01F
:100590008DE891E09BD0109289018091E8008E77E0
:1005A0008093E8000895CF93DF9300D0CDB7DEB7F6
:1005B0001A82198282E08093E9008091E80082FF2C
:1005C00033C08091E80085FF0EC0AE014F5F5F4FE2
:1005D00060E470E082E091E0C1D0811104C080E469
:1005E00090E09A8389838091E8008B778093E8007C
:1005F00069817A8161157105B9F0609301017727EE
:100600006E5F7F4F80E091E0C1D4809182018111C3
:100610000BC080910201863039F480910301803251
:1006200019F481E0809382010F900F90DF91CF91B8
:1006300008958091D101843011F49ADFB4CF0895E8
:1006400015DFF7DF87D4FDCF292F3327223031057F
:1006500059F02330310569F02130310579F582E117
:1006600090E02EE532E02EC080E690E02EEF31E003
:1006700029C0992782309105A9F03CF4009779F0C0
:100680000197E1F4ECE1F1E015C08430910581F0CF
:1006900064F08E3E910591F4E6E3F1E00BC0E2E3F5
:1006A000F1E008C0E4E0F1E005C0E8EEF0E002C0EF
:1006B000EAE4F1E0849190E09F0104C080E090E0E2
:1006C00020E030E0FA01318320830895CF92DF9259
:1006D000EF92FF920F931F93CF93DF937C018B01D7
:1006E000EA019FD1811131C0209731F08881998131
:1006F000081B190BE80EF91EC12CD12C0115110590
:1007000019F18091E80085FD14C08091E8008E7792
:100710008093E8001FD4209741F0888199818C0D47
:100720009D1D9983888385E010C07BD1882331F398
:100730000CC0F70181917F018093F10001501109F4
:10074000FFEFCF1ADF0ADACF80E0DF91CF911F9160
:100750000F91FF90EF90DF90CF900895CF92DF92AE
:10076000EF92FF920F931F93CF93DF937C018B0146
:10077000EA0157D1811131C0209731F088819981E8
:10078000081B190BE80EF91EC12CD12C01151105FF
:1007900019F18091E80085FD14C08091E8008B7705
:1007A0008093E800D7D3209741F0888199818C0D00
:1007B0009D1D9983888385E010C033D1882331F350
:1007C0000CC08091F100F70181937F010150110964
:1007D000FFEFCF1ADF0ADACF80E0DF91CF911F91D0
:1007E0000F91FF90EF90DF90CF9008952091D80166
:1007F0003091D9012617370748F06115710539F492
:100800002091E8002E772093E80001C0B901FC0197
:1008100020E061157105C1F18091D101882309F4AF
:1008200041C0853009F440C08091E80083FD3EC09E
:100830008091E80082FF06C08091E80082FF27C017
:1008400080E008958091E80080FFE3CF2091F300DD
:100850008091F20090E0922B6115710551F0803487
:10086000910538F421912093F100615071090196AE
:10087000F3CF21E08034910509F020E08091E80079
:100880008E778093E800C5CF2111C6CFD5CF809158
:10089000D101882339F0853039F08091E80083FF59
:1008A000CBCF04C082E0089583E0089581E00895ED
:1008B0002091D8013091D9012617370748F06115EA
:1008C000710539F42091E8002E772093E80001C0EB
:1008D000B901FC0120E061157105C9F18091D101D8
:1008E000882309F442C0853009F441C08091E800B2
:1008F00083FD3FC08091E80082FF06C08091E80040
:1009000082FF28C080E008958091E80080FFE3CF57
:100910002091F3008091F20090E0922B6115710517
:1009200059F08034910540F424912093F1003196E0
:10093000615071090196F2CF21E08034910509F0F0
:1009400020E08091E8008E778093E800C4CF2111E9
:10095000C5CFD4CF8091D101882339F0853039F0CB
:100960008091E80083FFCACF04C082E0089583E04D
:10097000089581E00895982F973058F59093E900F5
:10098000981739F07091EC002091ED005091F00033
:1009900003C0242F762F50E021FF19C03091EB00C7
:1009A0003E7F3093EB003091ED003D7F3093ED00C2
:1009B0003091EB0031603093EB007093EC002093AA
:1009C000ED005093F0002091EE0027FF07C09F5FDD
:1009D000D3CF8F708093E90081E0089580E008957F
:1009E0008091D20187FD05C08091E80080FF0EC094
:1009F00012C08091E80082FD05C08091D101811173
:100A0000F8CF08958091E8008B7708C08091D101DC
:100A10008111EACF08958091E8008E778093E800F5
:100A200008958091E4009091E50045E62091EC0066
:100A300020FF21C02091E80020FD21C02091D1019C
:100A4000222389F0253089F02091EB0025FD0FC08D
:100A50002091E4003091E5002817390739F341501F
:100A600041F0C901E3CF82E0089583E0089581E079
:100A7000089584E008952091E80022FFDFCF80E010
:100A800008950F931F93CF93DF934BD052D0C8EDAF
:100A9000D0E088818F778883888180688883888187
:100AA0008F7D888319BC1092D1011092CD011092D4
:100AB000CF011092CE0100EE10E0F80180818B7F13
:100AC000808388818160888342E360E080E053DF37
:100AD000E1EEF0E080818E7F8083E2EEF0E08081C5
:100AE00081608083808188608083F80180818E7F2F
:100AF0008083888180618883DF91CF911F910F91DE
:100B00000895E8EDF0E080818F7E8083E7EDF0E0EE
:100B100080818160808384E082BF81E08093D00106
:100B2000B0CFE8EDF0E080818E7F80831092E2000C
:100B300008951092DA001092E10008951F920F922A
:100B40000FB60F9211242F933F934F935F936F93A0
:100B50007F938F939F93AF93BF93EF93FF93809176
:100B6000E10082FF0AC08091E20082FF06C080910E
:100B7000E1008B7F8093E100ECD18091DA0080FF6F
:100B80001DC08091D80080FF19C08091DA008E7F4F
:100B90008093DA008091D90080FF0CC080E189BD8C
:100BA00082E189BD09B400FEFDCF81E08093D101CF
:100BB00078DC04C019BC1092D10174DC8091E10092
:100BC00080FF18C08091E20080FF14C08091E20095
:100BD0008E7F8093E2008091E20080618093E2004A
:100BE0008091D80080628093D80019BC85E0809302
:100BF000D101AFD18091E10084FF2FC08091E2004C
:100C000084FF2BC080E189BD82E189BD09B400FE6B
:100C1000FDCF8091D8008F7D8093D8008091E10036
:100C20008F7E8093E1008091E2008F7E8093E200CE
:100C30008091E20081608093E2008091CD01882361
:100C400011F084E007C08091E30087FF02C083E0D9
:100C500001C081E08093D1017CD18091E10083FFCC
:100C600022C08091E20083FF1EC08091E100877F57
:100C70008093E10082E08093D1011092CD018091B8
:100C8000E1008E7F8093E1008091E2008E7F80936F
:100C9000E2008091E20080618093E20042E360E044
:100CA00080E069DE56D1FF91EF91BF91AF919F91A6
:100CB0008F917F916F915F914F913F912F910F9005
:100CC0000FBE0F901F9018951F93CF93DF93CDB752
:100CD000DEB7AA970FB6F894DEBF0FBECDBFE2ED28
:100CE000F1E08091F100819321E0EA3DF207C9F73C
:100CF000E2DB8091E80083FF14C12091D2013091A2
:100D0000D301832F90E08A30910508F00AC1FC01DD
:100D1000EA5AFF4F4BC1203881F0223809F001C157
:100D20008091D6018F708093E9008091EB0085FB64
:100D3000882780F91092E90006C08091CE01909139
:100D4000CF01911182609091E800977F9093E80025
:100D50008093F1001092F100C1C0822F8D7F09F0C5
:100D6000E0C0222319F0223061F0DBC08091D40171
:100D7000813009F0D6C0333009F080E08093CF0194
:100D800028C08091D401811124C02091D6012F70F8
:100D900009F4C7C02093E9008091EB0080FF19C0DF
:100DA0008091EB00333011F4806211C08061809338
:100DB000EB0081E090E0022E01C0880F0A94EAF770
:100DC0008093EA001092EA008091EB0088608093A3
:100DD000EB001092E9008091E800877F82C021112A
:100DE000A0C01091D4011F778091E3008078812BFF
:100DF0008093E3008091E800877F8093E800F0DD36
:100E00008091E80080FFFCCF8091E30080688093B0
:100E1000E300112311F083E001C082E08093D1014F
:100E200080C02058223008F07CC08091D40190917D
:100E3000D5018C3D23E0920771F583E08A838AE235
:100E400089834FB7F894DE01139620E03EE051E22B
:100E5000E32FF0E050935700E49120FF03C0E295A8
:100E6000EF703F5FEF708E2F90E0EA3010F0C79682
:100E700001C0C0968D939D932F5F243149F74FBFDA
:100E80008091E800877F8093E8006AE270E0CE01FD
:100E90000196ACDC12C0AE014F5F5F4F6091D6018E
:100EA000D3DB009709F43DC02091E800277F209311
:100EB000E800BC0189819A81FBDC8091E8008B7796
:100EC0008093E8002EC0203861F58091E800877F8C
:100ED0008093E8008091CD018093F1008091E8003B
:100EE0008E778093E8007CDD1CC021111AC09091A0
:100EF000D4019230B0F48091E800877F8093E800BD
:100F00009093CD016DDD8091CD01811104C0809160
:100F1000E30087FF02C084E001C081E08093D1013B
:100F2000C2DA8091E80083FF0AC08091E800877FE1
:100F30008093E8008091EB0080628093EB00AA969A
:100F40000FB6F894DEBF0FBECDBFDF91CF911F91DA
:100F500008950895CF938091D1018823A9F08091BD
:100F6000E9008F709091EC0090FF02C090E801C002
:100F700090E0C92FC82B1092E9008091E80083FD12
:100F8000A3DECF70C093E900CF910895680F791F59
:100F90008617970751F0FC012191CF013091C800CD
:100FA00035FFFCCF2093CE00F3CF0895EE0FFF1F47
:0C0FB0000590F491E02D0994F894FFCF17
:100FBC00EE00000000000000000000000000000037
:100FCC000000000000000000000000000000000015
:100FDC000000000000000000000000000000000005
:100FEC0000000000000000000000000000000000F5
:020FFC000000F3
:00000001FF
