:100000008DC00000A6C00000A4C00000A2C0000077
:10001000A0C000009EC000009CC000009AC000006C
:1000200098C0000096C00000D4C5000092C0000037
:1000300090C000008EC000008CC000008AC000008C
:1000400088C0000086C0000084C0000082C000009C
:1000500080C000007EC000007CC000007AC00000AC
:1000600078C00000A4C0000074C0000072C000008E
:1000700070C000006EC000006CC000006AC00000CC
:1000800068C0000066C0000064C0000062C00000DC
:1000900060C000005EC000005CC000005AC00000EC
:1000A00058C0000056C0000054C00000D606F80634
:1000B000E407F806E4073D075F07E407B107C30755
:1000C0000014FF00FFFFFFFFFFFFFFFFFFFFFFFF29
:1000D000FFFFFFFF0006FFFFFFFF104200010102CC
:1000E0001406FFFFFFFFFFFFFFFF090220000101D1
:1000F0000080320904000002584200000705810315
:100100002000040705020320000412011001000072
:1001100000085E04890220010000000111241FBEB6
:10012000CFEFDAE0DEBFCDBF11E0A0E0B1E0E4ED5B
:10013000F0E102C005900D92A432B107D9F721E099
:10014000A4E2B1E001C01D92A03EB207E1F709D2DE
:10015000BFC756CF9B01AC01DC01CB01B695A7957B
:1001600097958795BC01CD0160587B47814E9F4F85
:100170006ED7215031093093CD002093CC0086E01A
:100180008093CA0082E08093C80088E18093C90010
:10019000539A5A9A0895F89498E088E10FB6F89423
:1001A000A895809360000FBE90936000FFCF1F92D0
:1001B0000F920FB60F9211242F933F934F935F939B
:1001C0006F937F938F939F93AF93BF93EF93FF931F
:1001D0008091CE0080936C01109285001092840073
:1001E0008091C80087FF0BC08091CE0080936B0187
:1001F00080916C018F3F59F423EB31E00AC080916C
:100200008400909185008137924050F307C123E725
:1002100031E03093720120937101809170019091CF
:100220006B018917B8F491E0980F90937001909149
:10023000C80097FF07C09091CE00F901E80FF11DAB
:100240009083EBCF4091840050918500413752401C
:1002500070F3E4C01092700180916C01853509F44F
:10026000DDC0A8F4823209F452C018F48131D9F10A
:10027000D6C0833309F460C0843409F0D0C081E073
:1002800080936A0180916B0180936901C8C08737B0
:1002900009F4A8C0D0F4863609F0C1C0809173017A
:1002A000909174019827892798279093270180932C
:1002B00026018091750190917601982789279827CA
:1002C0009093250180932401AAC0883809F44EC078
:1002D0008F3F09F0A4C081E080936F0180916B0192
:1002E00080936E019CC08091C80085FFFCCF81E1A6
:1002F0008093CE008091C80085FFFCCF81E0809381
:10030000CE008091C80085FFFCCF84E068C080915A
:10031000C80085FFFCCF82E28093CE008091C800A8
:1003200085FFFCCF81E08093CE00809168019091A1
:10033000C80095FFFCCF53C08091C80085FFFCCF5B
:1003400083E38093CE008091C80085FFFCCF81E0DD
:100350008093CE00809168019091C80095FFFCCFFA
:100360008093CE0081E080936D0159C080916B0134
:10037000882309F180917301809322015B9A109286
:10038000C9001092C8001092CA001092CD001092BD
:10039000CC0053985A98A0912201B0E020EA36E8A8
:1003A00041E050E07CD6D6DE5B988091C900806841
:1003B0008093C90034C08091C80085FFFCCF88E8D5
:1003C0008093CE008091C80085FFFCCF81E08093B0
:1003D000CE00809122019091C80095FFFCCF8093C0
:1003E000CE001DC08091C80085FFFCCF87E78093B9
:1003F000CE008091C80085FFFCCF82E08093CE00C4
:100400008091C80085FFFCCF88E08093CE0080916A
:10041000C80085FFFCCF1092CE0001C0BCDEFF916A
:10042000EF91BF91AF919F918F917F916F915F916C
:100430004F913F912F910F900FBE0F901F901895E5
:1004400014BE0FB6F894A8958091600088618093DF
:100450006000109260000FBE90E080E80FB6F89444
:1004600080936100909361000FBE80918100846051
:1004700080938100A0912201B0E020EA36E841E0BB
:1004800050E00DD667DE8091C90080688093C90076
:10049000789480916D018823E1F37EC308950895D7
:1004A00042E261EC81E0B1D242E260EC82E0ADC2B6
:1004B00081E08093E90080916F01882399F0809119
:1004C000E80080FF0FC060916E0170E040E050E0F6
:1004D00083EB91E007D110926F018091E8008E7755
:1004E0008093E8000895CF93DF9300D0CDB7DEB7B7
:1004F00082E08093E9008091E80082FF26C01A82A2
:100500001982109201018091E80085FF0FC0AE01B1
:100510004F5F5F4F60E270E082E091E02DD1882371
:1005200011F0898101C080E2809301018091E8008F
:100530008B778093E80060910101662331F070E0D1
:100540006E5F7F4F80E091E072D50F900F90DF914A
:10055000CF9108958091D701843011F4A9DFC3CFE2
:1005600008956EDFF7DF49D5FDCF8091D801813C3A
:1005700009F045C08091D9018630A1F48091DA015B
:100580009091DB018115924409F091C08091E800BF
:10059000877F8093E8006091DE017091DF018AED32
:1005A00090E016C0813009F082C08091DA0190910C
:1005B000DB01811522E0920791F48091E800877FAA
:1005C0008093E8006091DE017091DF0184ED90E09E
:1005D000BBD18091E8008B778093E8000895811566
:1005E000914009F064C08091E800877F8093E80023
:1005F0006091DE017091DF0180EC90E0E9CF813AFB
:1006000019F58091D901813009F051C08091DA014A
:100610009091DB018115914009F049C080E88093F9
:10062000C5018093C3018093C1018093BF01809174
:10063000E800877F8093E8006091DE017091DF0120
:1006400083EB91E0E3D0C5CF813289F58091D90168
:10065000893069F58091DA019091DB018115924032
:1006600031F58091E800877F8093E8006091DE019A
:100670007091DF0188E291E027D18091E8008E77C8
:100680008093E8006091DE017091DF018091C800E5
:1006900085FFFCCF8EEE8093CE008091C80085FF51
:1006A000FCCF6093CE00772788E291E0C0C4089524
:1006B000292F30E02130310541F02230310551F44D
:1006C00080E290E02AEE30E009C082E190E02AE08A
:1006D00031E004C080E090E020E030E0FA013183B6
:1006E00020830895CF92DF92EF92FF920F931F9392
:1006F000CF93DF93EC018B017A01DBD1811133C001
:10070000E114F10439F0F70180819181081B190B84
:10071000C80FD91FC12CD12C0115110519F18091D9
:10072000E80085FD16C08091E8008E778093E80090
:1007300064D4E114F10449F0F70180819181C80E7D
:10074000D91ED182C08285E00EC0B3D1882321F3A7
:100750000AC089918093F10001501109FFEFCF1A6F
:10076000DF0ADACF80E0DF91CF911F910F91FF90E8
:10077000EF90DF90CF900895CF92DF92EF92FF92AB
:100780000F931F93CF93DF93EC018B017A0191D1EB
:10079000811133C0E114F10439F0F70180819181B6
:1007A000081B190BC80FD91FC12CD12C011511051D
:1007B00019F18091E80085FD16C08091E8008B77E3
:1007C0008093E8001AD4E114F10449F0F701808124
:1007D0009181C80ED91ED182C08285E00EC069D138
:1007E000882321F30AC08091F100899301501109F7
:1007F000FFEFCF1ADF0ADACF80E0DF91CF911F91B0
:100800000F91FF90EF90DF90CF9008952091DE013F
:100810003091DF012617370748F06115710539F46B
:100820002091E8002E772093E80001C0B901FC0177
:1008300020E06115710579F18091D7018823F1F1EC
:100840008530F1F18091E80083FD3CC08091E800A3
:1008500082FD2EC08091E80080FFEBCF2091F30055
:100860008091F20090E0922B6115710551F0883073
:10087000910538F421912093F1006150710901969E
:10088000F3CF21E0089709F020E08091E8008E770F
:100890008093E800CECF2111CFCF0AC08091D7013D
:1008A000882361F0853061F08091E80083FD0AC003
:1008B0008091E80082FFF2CF80E0089582E0089501
:1008C00083E0089581E008956115710529F4209170
:1008D000E8002B772093E800FC016115710541F1D8
:1008E0008091D701882361F1853061F18091E80022
:1008F00083FD24C08091E80082FFEFCF2091F300B8
:100900008091F20090E0922B892B31F08091F100E0
:1009100081936150710991F78091E8008B77809302
:10092000E800DBCF8091D701882351F0853051F06A
:100930008091E80080FFF6CF80E0089581E008957F
:1009400082E0089583E008952091DE013091DF0177
:100950002617370748F06115710539F42091E80032
:100960002E772093E80001C0B901FC0120E0611559
:10097000710591F18091D701882309F440C0853039
:1009800009F43FC08091E80083FD3DC08091E800FC
:1009900082FD2FC08091E80080FFE9CF2091F30015
:1009A0008091F20090E0922B6115710559F088302A
:1009B000910540F424912093F10031966150710922
:1009C0000196F2CF21E0089709F020E08091E8003D
:1009D0008E778093E800CBCF2111CCCF0AC08091D5
:1009E000D701882361F0853061F08091E80083FDB4
:1009F0000AC08091E80082FFF2CF80E0089582E093
:100A0000089583E0089581E00895982F973068F560
:100A10009093E900981739F07091EC002091ED0067
:100A20005091F00003C0242F762F50E021FD02C02A
:100A30009F5FECCF3091EB003E7F3093EB00309125
:100A4000ED003D7F3093ED003091EB00316030934D
:100A5000EB007093EC002093ED005093F000209198
:100A6000EE0027FDE5CF80E008958F708093E900C8
:100A700081E008958091D80187FF11C08091E8003E
:100A800082FD05C08091D7018111F8CF11C08091FE
:100A9000E8008B770BC08091D701882349F08091C3
:100AA000E80080FFF8CF8091E8008E778093E8001F
:100AB00008952091E4003091E50095E64091EC0026
:100AC000842F817040FF23C08091E80080FD1DC00D
:100AD0008091D701882399F0853099F08091EB00BF
:100AE00085FD11C04091E4005091E50024173507C1
:100AF00029F3915011F09A01E1CF84E0089582E04A
:100B0000089583E0089581E0089580E0089540917C
:100B1000E80042FFDDCF08950F931F93CF93DF933B
:100B20004BD052D0C8EDD0E088818F778883888100
:100B30008068888388818F7D888319BC1092D70153
:100B40001092D3011092D5011092D40100EE10E062
:100B5000F80180818B7F808388818160888342E077
:100B600060E080E052DFE1EEF0E080818E7F808304
:100B7000E2EEF0E080818160808380818860808304
:100B8000F80180818E7F8083888180618883DF91F6
:100B9000CF911F910F910895E8EDF0E080818F7E55
:100BA0008083E7EDF0E080818160808384E082BF14
:100BB00081E08093D601B0CFE8EDF0E080818E7FB8
:100BC00080831092E20008951092DA001092E10002
:100BD00008951F920F920FB60F9211242F933F93F7
:100BE0004F935F936F937F938F939F93AF93BF9335
:100BF000EF93FF938091E10082FF0AC08091E200B1
:100C000082FF06C08091E1008B7F8093E100F4D1E8
:100C10008091DA0080FF1DC08091D80080FF19C04C
:100C20008091DA008E7F8093DA008091D90080FF76
:100C30000CC080E189BD82E189BD09B400FEFDCF11
:100C400081E08093D7012ADC04C019BC1092D7013F
:100C500026DC8091E10080FF18C08091E20080FFD7
:100C600014C08091E2008E7F8093E2008091E200C8
:100C700080618093E2008091D80080628093D800E8
:100C800019BC85E08093D701B7D18091E10084FF42
:100C90002FC08091E20084FF2BC080E189BD82E1FA
:100CA00089BD09B400FEFDCF8091D8008F7D80936F
:100CB000D8008091E1008F7E8093E1008091E20076
:100CC0008F7E8093E2008091E20081608093E20059
:100CD0008091D301882311F084E007C08091E30064
:100CE00087FD02C081E001C083E08093D70184D1F9
:100CF0008091E10083FF22C08091E20083FF1EC04B
:100D00008091E100877F8093E10082E08093D701AA
:100D10001092D3018091E1008E7F8093E100809159
:100D2000E2008E7F8093E2008091E20080618093F8
:100D3000E20042E060E080E068DE5ED1FF91EF918A
:100D4000BF91AF919F918F917F916F915F914F91E3
:100D50003F912F910F900FBE0F901F9018951F93EA
:100D6000CF93DF93CDB7DEB7AA970FB6F894DEBF67
:100D70000FBECDBFE8EDF1E08091F100819321E05D
:100D8000E03EF207C9F7F1DB8091E80083FF1CC168
:100D90008091D8019091D901492F50E04A305105F6
:100DA00008F012C1FA01EA5AFF4F73C1803881F08E
:100DB000823809F009C18091DC018F708093E900CD
:100DC0008091EB0085FB882780F91092E90006C02E
:100DD0008091D4019091D501911182609091E800A9
:100DE000977F9093E8008093F1001092F100C4C0C7
:100DF000282F2D7F09F0E8C0882319F0823061F098
:100E0000E3C08091DA01813009F0DEC0933009F04F
:100E100080E08093D5012BC08091DA01811127C039
:100E20008091DC018F7009F4CFC08093E90020919C
:100E3000EB0020FF1CC0933021F48091EB00806216
:100E400014C09091EB0090619093EB0021E030E0B2
:100E5000A90102C0440F551F8A95E2F74093EA00AA
:100E60001092EA008091EB0088608093EB00109272
:100E7000E9008091E800877F82C08111A5C01091B0
:100E8000DA011F778091E3008078812B8093E30063
:100E90008091E800877F8093E800ECDD8091E80096
:100EA00080FFFCCF8091E30080688093E300111104
:100EB00002C082E001C083E08093D70185C08058E2
:100EC000823008F081C08091DA019091DB018C3D85
:100ED00053E0950771F583E08A838AE289834FB7EF
:100EE000F894DE01139620E03EE051E2E32FF0E0BB
:100EF00050935700E49120FF03C0E295EF703F5FED
:100F0000EF708E2F90E0EA3010F0C79601C0C096C7
:100F10008D939D932F5F243149F74FBF8091E80057
:100F2000877F8093E8006AE270E0CE0101966EDC74
:100F300012C0AE014F5F5F4F6091DC01B9DBBC01B5
:100F4000892B09F441C09091E800977F9093E800C5
:100F500089819A81F9DC8091E8008B778093E800A1
:100F600033C0803889F58091E800877F8093E8005E
:100F70008091D3018093F1008091E8008E77809377
:100F8000E80078DD21C081111FC08091DA019091C5
:100F9000DB0199270297C4F48091E800877F809352
:100FA000E8008091DA018093D30164DD8091D30160
:100FB000811106C08091E30087FD02C081E001C07D
:100FC00084E08093D7016CDA8091E80083FF0AC047
:100FD0008091E800877F8093E8008091EB00806239
:100FE0008093EB00AA960FB6F894DEBF0FBECDBF7C
:100FF000DF91CF911F9108950895CF938091D701EC
:10100000882399F0C091E900CF709091EC00892F6E
:10101000817090FD80E8C82B1092E9008091E80073
:1010200083FD9DDECF70C093E900CF910895680FD6
:10103000791F8617970751F0FC012191CF0130915C
:10104000C80035FFFCCF2093CE00F3CF0895A1E276
:101050001A2EAA1BBB1BFD010DC0AA1FBB1FEE1F32
:10106000FF1FA217B307E407F50720F0A21BB30B7D
:10107000E40BF50B661F771F881F991F1A9469F7F9
:1010800060957095809590959B01AC01BD01CF0155
:101090000895EE0FFF1F0590F491E02D099409D0FB
:1010A000A59F900DB49F900DA49F800D911D1124BC
:1010B0000895A29FB001B39FC001A39F700D811D31
:1010C0001124911DB29F700D811D1124911D089551
:0410D000F894FFCFC2
:1010D400EE0000000000000000000000000000001E
:1010E40000000000000000000000000000000000FC
:0410F40000000500F3
:00000001FF
